{"abi":[{"type":"function","name":"DOMAIN_SEPARATOR","inputs":[],"outputs":[{"name":"","type":"bytes32","internalType":"bytes32"}],"stateMutability":"view"},{"type":"function","name":"allowance","inputs":[{"name":"","type":"address","internalType":"address"},{"name":"","type":"address","internalType":"address"}],"outputs":[{"name":"","type":"uint256","internalType":"uint256"}],"stateMutability":"view"},{"type":"function","name":"approve","inputs":[{"name":"spender","type":"address","internalType":"address"},{"name":"amount","type":"uint256","internalType":"uint256"}],"outputs":[{"name":"","type":"bool","internalType":"bool"}],"stateMutability":"nonpayable"},{"type":"function","name":"balanceOf","inputs":[{"name":"","type":"address","internalType":"address"}],"outputs":[{"name":"","type":"uint256","internalType":"uint256"}],"stateMutability":"view"},{"type":"function","name":"burn","inputs":[{"name":"from","type":"address","internalType":"address"},{"name":"amount","type":"uint256","internalType":"uint256"}],"outputs":[],"stateMutability":"nonpayable"},{"type":"function","name":"decimals","inputs":[],"outputs":[{"name":"","type":"uint8","internalType":"uint8"}],"stateMutability":"view"},{"type":"function","name":"dfmm","inputs":[],"outputs":[{"name":"","type":"address","internalType":"address"}],"stateMutability":"view"},{"type":"function","name":"initialize","inputs":[{"name":"name_","type":"string","internalType":"string"},{"name":"symbol_","type":"string","internalType":"string"}],"outputs":[],"stateMutability":"nonpayable"},{"type":"function","name":"initialized","inputs":[],"outputs":[{"name":"","type":"bool","internalType":"bool"}],"stateMutability":"view"},{"type":"function","name":"mint","inputs":[{"name":"to","type":"address","internalType":"address"},{"name":"amount","type":"uint256","internalType":"uint256"}],"outputs":[],"stateMutability":"nonpayable"},{"type":"function","name":"name","inputs":[],"outputs":[{"name":"","type":"string","internalType":"string"}],"stateMutability":"view"},{"type":"function","name":"nonces","inputs":[{"name":"","type":"address","internalType":"address"}],"outputs":[{"name":"","type":"uint256","internalType":"uint256"}],"stateMutability":"view"},{"type":"function","name":"permit","inputs":[{"name":"owner","type":"address","internalType":"address"},{"name":"spender","type":"address","internalType":"address"},{"name":"value","type":"uint256","internalType":"uint256"},{"name":"deadline","type":"uint256","internalType":"uint256"},{"name":"v","type":"uint8","internalType":"uint8"},{"name":"r","type":"bytes32","internalType":"bytes32"},{"name":"s","type":"bytes32","internalType":"bytes32"}],"outputs":[],"stateMutability":"nonpayable"},{"type":"function","name":"symbol","inputs":[],"outputs":[{"name":"","type":"string","internalType":"string"}],"stateMutability":"view"},{"type":"function","name":"totalSupply","inputs":[],"outputs":[{"name":"","type":"uint256","internalType":"uint256"}],"stateMutability":"view"},{"type":"function","name":"transfer","inputs":[{"name":"to","type":"address","internalType":"address"},{"name":"amount","type":"uint256","internalType":"uint256"}],"outputs":[{"name":"","type":"bool","internalType":"bool"}],"stateMutability":"nonpayable"},{"type":"function","name":"transferFrom","inputs":[{"name":"from","type":"address","internalType":"address"},{"name":"to","type":"address","internalType":"address"},{"name":"amount","type":"uint256","internalType":"uint256"}],"outputs":[{"name":"","type":"bool","internalType":"bool"}],"stateMutability":"nonpayable"},{"type":"event","name":"Approval","inputs":[{"name":"owner","type":"address","indexed":true,"internalType":"address"},{"name":"spender","type":"address","indexed":true,"internalType":"address"},{"name":"amount","type":"uint256","indexed":false,"internalType":"uint256"}],"anonymous":false},{"type":"event","name":"Transfer","inputs":[{"name":"from","type":"address","indexed":true,"internalType":"address"},{"name":"to","type":"address","indexed":true,"internalType":"address"},{"name":"amount","type":"uint256","indexed":false,"internalType":"uint256"}],"anonymous":false},{"type":"error","name":"AlreadyInitialized","inputs":[]},{"type":"error","name":"NotDFMM","inputs":[]}],"bytecode":{"object":"0x6080806040523461001657610ef1908161001c8239f35b600080fdfe6080604081815260048036101561001557600080fd5b600092833560e01c90816306fdde0314610b3557508063095ea7b314610ac7578063158ef93e14610aa057806318160ddd14610a8157806323b872dd146109c0578063313ce567146109a45780633644e5151461098057806340c10f19146108f95780634cd88b76146105de57806370a08231146105a65780637ecebe001461056e57806395d89b41146104885780639dc29fac14610408578063a9059cbb14610396578063afba13c41461036d578063d505accf146101295763dd62ed3e146100de57600080fd5b3461012557816003193601126101255760209282916100fb610c81565b610103610c9c565b6001600160a01b03918216845291865283832091168252845220549051908152f35b8280fd5b509190346103695760e036600319011261036957610145610c81565b9061014e610c9c565b91604435606435926084359260ff84168094036103655742851061032257610174610d2c565b9560018060a01b038092169586895260209560078752848a209889549960018b01905585519285898501957f6e71edae12b1b97f4d1f60370fef10105fa2faae0126114a169c64845d6126c987528b89870152169a8b606086015288608086015260a085015260c084015260c0835260e0830167ffffffffffffffff948482108683111761030e578188528451902061010085019261190160f01b845261010286015261012285015260428152610160840194818610908611176102fb57848752519020835261018082015260a4356101a082015260c4356101c0909101528780528490889060809060015afa156102f15786511696871515806102e8575b156102b65786977f8c5be1e5ebec7d5bd14f71427d1e84f3dd0314c0f7b2291e5b200ac8c7c3b9259596975283528087208688528352818188205551908152a380f35b83606492519162461bcd60e51b8352820152600e60248201526d24a72b20a624a22fa9a4a3a722a960911b6044820152fd5b50848814610273565b81513d88823e3d90fd5b634e487b7160e01b8c5260418d5260248cfd5b50634e487b7160e01b8c5260418d5260248cfd5b815162461bcd60e51b81526020818a0152601760248201527f5045524d49545f444541444c494e455f455850495245440000000000000000006044820152606490fd5b8680fd5b5080fd5b50503461036957816003193601126103695760085490516001600160a01b039091168152602090f35b5050346103695780600319360112610369576020916103b3610c81565b8260243591338452600386528184206103cd848254610d09565b90556001600160a01b031680845260038652922080548201905582519081523390600080516020610e9c833981519152908590a35160018152f35b5034610125578160031936011261012557610421610c81565b600854602435926001600160a01b0392918316330361047a5750849392600080516020610e9c83398151915292602092169384865260038352808620610468838254610d09565b9055816002540360025551908152a380f35b8451636853cba760e01b8152fd5b82843461056b578060031936011261056b578151908060018054906104ac82610bc6565b808652926020926001811690811561053e57506001146104e6575b6104e286886104d882890383610c00565b5191829182610c38565b0390f35b9350600184527fb10e2d527612073b26eecdfd717e6a320cf44b4afac2b0732d9fcbe2b7fa0cf65b83851061052b575050505081016020016104d8826104e2866104c7565b805486860184015293820193810161050e565b90506104e2979550869350602092506104d894915060ff191682840152151560051b8201019294866104c7565b80fd5b5050346103695760203660031901126103695760209181906001600160a01b03610596610c81565b1681526007845220549051908152f35b5050346103695760203660031901126103695760209181906001600160a01b036105ce610c81565b1681526003845220549051908152f35b5082903461036957826003193601126103695767ffffffffffffffff81358181116108f5576106109036908401610cb2565b916024358281116108f1576106289036908301610cb2565b946008549060ff8260a01c166108e357506001600160a01b031916331760085582518281116108d0578061065c8654610bc6565b94601f95868111610877575b506020908683116001146108085787926107fd575b50508160011b916000199060031b1c19161784555b84519182116107ea57506001916106a98354610bc6565b818111610788575b50602090821160011461070d57839482939492610702575b5050600019600383901b1c191690821b1790555b466005556106e9610d46565b6006556008805460ff60a01b1916600160a01b17905580f35b0151905084806106c9565b8284527fb10e2d527612073b26eecdfd717e6a320cf44b4afac2b0732d9fcbe2b7fa0cf690601f198316855b8181106107725750958385969710610759575b505050811b0190556106dd565b015160001960f88460031b161c1916905584808061074c565b8783015184559285019260209283019201610739565b8385527fb10e2d527612073b26eecdfd717e6a320cf44b4afac2b0732d9fcbe2b7fa0cf68280850160051c820192602086106107e1575b0160051c019084905b8281106107d65750506106b1565b8681550184906107c8565b925081926107bf565b634e487b7160e01b845260419052602483fd5b01519050878061067d565b878052600080516020610e7c8339815191529250601f198416885b81811061085f5750908460019594939210610846575b505050811b018455610692565b015160001960f88460031b161c19169055878080610839565b92936020600181928786015181550195019301610823565b909150868052600080516020610e7c8339815191528680850160051c820192602086106108c7575b9085949392910160051c01905b8181106108b95750610668565b8881558493506001016108ac565b9250819261089f565b634e487b7160e01b855260418252602485fd5b5162dc149f60e41b81529050fd5b8480fd5b8380fd5b5034610125578160031936011261012557610912610c81565b600854602435926001600160a01b0392918316330361047a576002549084820180921161096d575092600080516020610e9c83398151915292602092879560025516948585526003835280852082815401905551908152a380f35b634e487b7160e01b875260119052602486fd5b50503461036957816003193601126103695760209061099d610d2c565b9051908152f35b5050346103695781600319360112610369576020905160128152f35b50913461056b57606036600319011261056b576109db610c81565b600080516020610e9c8339815191526109f2610c9c565b6001600160a01b0392831680855260208781528686203387528152868620549097919488936044359389938560018201610a5e575b50505086885260038552828820610a3f858254610d09565b9055169586815260038452208181540190558551908152a35160018152f35b610a6791610d09565b90888a528652838920338a52865283892055388085610a27565b5050346103695781600319360112610369576020906002549051908152f35b50503461036957816003193601126103695760209060ff60085460a01c1690519015158152f35b5034610125578160031936011261012557602092610ae3610c81565b918360243592839233825287528181209460018060a01b0316948582528752205582519081527f8c5be1e5ebec7d5bd14f71427d1e84f3dd0314c0f7b2291e5b200ac8c7c3b925843392a35160018152f35b8390853461056b578060031936011261056b57805481610b5482610bc6565b8085529160209160019182811690811561053e5750600114610b81576104e286886104d882890383610c00565b8080955052600080516020610e7c8339815191525b838510610bb3575050505081016020016104d8826104e2866104c7565b8054868601840152938201938101610b96565b90600182811c92168015610bf6575b6020831014610be057565b634e487b7160e01b600052602260045260246000fd5b91607f1691610bd5565b90601f8019910116810190811067ffffffffffffffff821117610c2257604052565b634e487b7160e01b600052604160045260246000fd5b6020808252825181830181905290939260005b828110610c6d57505060409293506000838284010152601f8019910116010190565b818101860151848201604001528501610c4b565b600435906001600160a01b0382168203610c9757565b600080fd5b602435906001600160a01b0382168203610c9757565b81601f82011215610c975780359067ffffffffffffffff8211610c225760405192610ce7601f8401601f191660200185610c00565b82845260208383010111610c9757816000926020809301838601378301015290565b91908203918211610d1657565b634e487b7160e01b600052601160045260246000fd5b6005544603610d3b5760065490565b610d43610d46565b90565b60405160009060005490610d5982610bc6565b808252816020948582019460019087600182169182600014610e5d575050600114610e15575b50610d8c92500382610c00565b51902090604051908101917f8b73c3c69bb8fe3d512ecc4cf759cc79239f7b179b0ffacaa9a75d522b39400f835260408201527fc89efdaa54c0f20c7adf612882df0950f5a951637e0307cdcb4c672f298b8bc660608201524660808201523060a082015260a0815260c0810181811067ffffffffffffffff821117610c225760405251902090565b600080805287925090600080516020610e7c8339815191525b858310610e45575050610d8c935082010138610d7f565b80548388018501528694508893909201918101610e2e565b60ff19168852610d8c95151560051b8501019250389150610d7f905056fe290decd9548b62a8d60345a988386fc84ba6bc95484008f6362f93160ef3e563ddf252ad1be2c89b69c2b068fc378daa952ba7f163c4a11628f55a4df523b3efa2646970667358221220cb98d0e2a923f06208a7d95352c1e293c1ab04b4c62a0981e8484a4726b12c0c64736f6c63430008160033","linkReferences":{}},"methodIdentifiers":{"DOMAIN_SEPARATOR()":"3644e515","allowance(address,address)":"dd62ed3e","approve(address,uint256)":"095ea7b3","balanceOf(address)":"70a08231","burn(address,uint256)":"9dc29fac","decimals()":"313ce567","dfmm()":"afba13c4","initialize(string,string)":"4cd88b76","initialized()":"158ef93e","mint(address,uint256)":"40c10f19","name()":"06fdde03","nonces(address)":"7ecebe00","permit(address,address,uint256,uint256,uint8,bytes32,bytes32)":"d505accf","symbol()":"95d89b41","totalSupply()":"18160ddd","transfer(address,uint256)":"a9059cbb","transferFrom(address,address,uint256)":"23b872dd"},"id":25}