{"abi":[{"type":"constructor","inputs":[{"name":"_strategy","type":"address","internalType":"address"}],"stateMutability":"nonpayable"},{"type":"function","name":"allocateGivenX","inputs":[{"name":"poolId","type":"uint256","internalType":"uint256"},{"name":"amountX","type":"uint256","internalType":"uint256"}],"outputs":[{"name":"","type":"uint256","internalType":"uint256"},{"name":"","type":"uint256","internalType":"uint256"},{"name":"","type":"uint256","internalType":"uint256"}],"stateMutability":"view"},{"type":"function","name":"allocateGivenY","inputs":[{"name":"poolId","type":"uint256","internalType":"uint256"},{"name":"amountY","type":"uint256","internalType":"uint256"}],"outputs":[{"name":"","type":"uint256","internalType":"uint256"},{"name":"","type":"uint256","internalType":"uint256"},{"name":"","type":"uint256","internalType":"uint256"}],"stateMutability":"view"},{"type":"function","name":"calculateDiffLower","inputs":[{"name":"poolId","type":"uint256","internalType":"uint256"},{"name":"S","type":"uint256","internalType":"uint256"},{"name":"v","type":"uint256","internalType":"uint256"}],"outputs":[{"name":"","type":"int256","internalType":"int256"}],"stateMutability":"view"},{"type":"function","name":"calculateDiffRaise","inputs":[{"name":"poolId","type":"uint256","internalType":"uint256"},{"name":"S","type":"uint256","internalType":"uint256"},{"name":"v","type":"uint256","internalType":"uint256"}],"outputs":[{"name":"","type":"int256","internalType":"int256"}],"stateMutability":"view"},{"type":"function","name":"checkSwapConstant","inputs":[{"name":"poolId","type":"uint256","internalType":"uint256"},{"name":"data","type":"bytes","internalType":"bytes"}],"outputs":[{"name":"","type":"int256","internalType":"int256"}],"stateMutability":"view"},{"type":"function","name":"computeOptimalArbLowerPrice","inputs":[{"name":"poolId","type":"uint256","internalType":"uint256"},{"name":"S","type":"uint256","internalType":"uint256"},{"name":"vUpper","type":"uint256","internalType":"uint256"}],"outputs":[{"name":"","type":"uint256","internalType":"uint256"}],"stateMutability":"view"},{"type":"function","name":"computeOptimalArbRaisePrice","inputs":[{"name":"poolId","type":"uint256","internalType":"uint256"},{"name":"S","type":"uint256","internalType":"uint256"},{"name":"vUpper","type":"uint256","internalType":"uint256"}],"outputs":[{"name":"","type":"uint256","internalType":"uint256"}],"stateMutability":"view"},{"type":"function","name":"deallocateGivenX","inputs":[{"name":"poolId","type":"uint256","internalType":"uint256"},{"name":"amountX","type":"uint256","internalType":"uint256"}],"outputs":[{"name":"","type":"uint256","internalType":"uint256"},{"name":"","type":"uint256","internalType":"uint256"},{"name":"","type":"uint256","internalType":"uint256"}],"stateMutability":"view"},{"type":"function","name":"deallocateGivenY","inputs":[{"name":"poolId","type":"uint256","internalType":"uint256"},{"name":"amountY","type":"uint256","internalType":"uint256"}],"outputs":[{"name":"","type":"uint256","internalType":"uint256"},{"name":"","type":"uint256","internalType":"uint256"},{"name":"","type":"uint256","internalType":"uint256"}],"stateMutability":"view"},{"type":"function","name":"fetchPoolParams","inputs":[{"name":"poolId","type":"uint256","internalType":"uint256"}],"outputs":[{"name":"","type":"tuple","internalType":"struct G3M.G3MParams","components":[{"name":"wX","type":"uint256","internalType":"uint256"},{"name":"wY","type":"uint256","internalType":"uint256"},{"name":"swapFee","type":"uint256","internalType":"uint256"},{"name":"controller","type":"address","internalType":"address"}]}],"stateMutability":"view"},{"type":"function","name":"getInitialPoolData","inputs":[{"name":"rx","type":"uint256","internalType":"uint256"},{"name":"S","type":"uint256","internalType":"uint256"},{"name":"params","type":"tuple","internalType":"struct G3M.G3MParams","components":[{"name":"wX","type":"uint256","internalType":"uint256"},{"name":"wY","type":"uint256","internalType":"uint256"},{"name":"swapFee","type":"uint256","internalType":"uint256"},{"name":"controller","type":"address","internalType":"address"}]}],"outputs":[{"name":"","type":"bytes","internalType":"bytes"}],"stateMutability":"pure"},{"type":"function","name":"getNextLiquidity","inputs":[{"name":"poolId","type":"uint256","internalType":"uint256"},{"name":"rx","type":"uint256","internalType":"uint256"},{"name":"ry","type":"uint256","internalType":"uint256"}],"outputs":[{"name":"","type":"uint256","internalType":"uint256"}],"stateMutability":"view"},{"type":"function","name":"getNextReserveX","inputs":[{"name":"poolId","type":"uint256","internalType":"uint256"},{"name":"ry","type":"uint256","internalType":"uint256"},{"name":"L","type":"uint256","internalType":"uint256"}],"outputs":[{"name":"","type":"uint256","internalType":"uint256"}],"stateMutability":"view"},{"type":"function","name":"getNextReserveY","inputs":[{"name":"poolId","type":"uint256","internalType":"uint256"},{"name":"rx","type":"uint256","internalType":"uint256"},{"name":"L","type":"uint256","internalType":"uint256"}],"outputs":[{"name":"","type":"uint256","internalType":"uint256"}],"stateMutability":"view"},{"type":"function","name":"getReservesAndLiquidity","inputs":[{"name":"poolId","type":"uint256","internalType":"uint256"}],"outputs":[{"name":"","type":"uint256","internalType":"uint256"},{"name":"","type":"uint256","internalType":"uint256"},{"name":"","type":"uint256","internalType":"uint256"}],"stateMutability":"view"},{"type":"function","name":"internalPrice","inputs":[{"name":"poolId","type":"uint256","internalType":"uint256"}],"outputs":[{"name":"price","type":"uint256","internalType":"uint256"}],"stateMutability":"view"},{"type":"function","name":"prepareControllerUpdate","inputs":[{"name":"controller","type":"address","internalType":"address"}],"outputs":[{"name":"","type":"bytes","internalType":"bytes"}],"stateMutability":"pure"},{"type":"function","name":"prepareFeeUpdate","inputs":[{"name":"swapFee","type":"uint256","internalType":"uint256"}],"outputs":[{"name":"data","type":"bytes","internalType":"bytes"}],"stateMutability":"pure"},{"type":"function","name":"prepareWeightXUpdate","inputs":[{"name":"targetWeightX","type":"uint256","internalType":"uint256"},{"name":"targetTimestamp","type":"uint256","internalType":"uint256"}],"outputs":[{"name":"","type":"bytes","internalType":"bytes"}],"stateMutability":"pure"},{"type":"function","name":"simulateSwap","inputs":[{"name":"poolId","type":"uint256","internalType":"uint256"},{"name":"swapXIn","type":"bool","internalType":"bool"},{"name":"amountIn","type":"uint256","internalType":"uint256"}],"outputs":[{"name":"","type":"bool","internalType":"bool"},{"name":"","type":"uint256","internalType":"uint256"},{"name":"","type":"uint256","internalType":"uint256"},{"name":"","type":"bytes","internalType":"bytes"}],"stateMutability":"view"},{"type":"function","name":"strategy","inputs":[],"outputs":[{"name":"","type":"address","internalType":"address"}],"stateMutability":"view"},{"type":"error","name":"BisectionLib_InvalidBounds","inputs":[{"name":"lower","type":"uint256","internalType":"uint256"},{"name":"upper","type":"uint256","internalType":"uint256"}]},{"type":"error","name":"BisectionLib_RootOutsideBounds","inputs":[{"name":"lowerResult","type":"int256","internalType":"int256"},{"name":"upperResult","type":"int256","internalType":"int256"}]}],"bytecode":{"object":"0x60803461007457601f61255c38819003918201601f19168301916001600160401b038311848410176100795780849260209460405283398101031261007457516001600160a01b0381169081900361007457600080546001600160a01b0319169190911790556040516124cc90816100908239f35b600080fd5b634e487b7160e01b600052604160045260246000fdfe6080604052600436101561001257600080fd5b60003560e01c80630f4166b814610167578063250968d914610162578063306db46b1461015d578063332266f3146101585780633928ff97146101535780633b4d10301461014e5780634fd67c58146101495780635a93b8ce146101445780636237569f1461013f5780637f17409c1461013a57806381b5fac214610135578063902ecaa214610130578063a8c62e761461012b578063b09d04e514610126578063cb1f553214610121578063ce153bf41461011c578063def15f9214610117578063ec29d8e614610112578063ee3e8cfb1461010d578063f2de7a7b146101085763f30d37f21461010357600080fd5b6109b2565b610996565b610962565b61094c565b6108e0565b61082f565b6107ea565b6107a6565b61077d565b610754565b610700565b6106a0565b61063f565b61061a565b6105f1565b6105bf565b61032e565b6102d6565b61029f565b610236565b346101d55760403660031901126101d55767ffffffffffffffff6024358181116101d557366023820112156101d55780600401359182116101d55736602483830101116101d5576101d19160246101c192016004356109e5565b6040519081529081906020820190565b0390f35b600080fd5b60005b8381106101ed5750506000910152565b81810151838201526020016101dd565b90602091610216815180928185528580860191016101da565b601f01601f1916010190565b9060206102339281815201906101fd565b90565b346101d55760403660031901126101d5576101d160405160026020820152600435604082015260243560608201526060815261027181610881565b6040519182916020835260208301906101fd565b60609060031901126101d557600435906024359060443590565b346101d55760206102ce6102b236610285565b906102c56102bf84610c45565b93610d72565b92919091610f1e565b604051908152f35b346101d55760206102ce6102e936610285565b906102f66102bf84610c45565b92919091611149565b801515036101d557565b90926080926102339594151583526020830152604082015281606082015201906101fd565b346101d55760603660031901126101d55760043560243561034e816102ff565b6104c46044359161035d610a11565b6103ad610368610a11565b9461037287610d72565b9491959092602096878401946040978886015285528352868a878b61039683610c45565b9889938851906103a78b5191610c45565b916112e2565b951561053b575061040c936103fe6103f96104409998956103f3866103dc610405976104199c99015187611d20565b926103ea8d518b5190611d4c565b91015190611324565b90611d20565b610a57565b9351610a7a565b8b52610a7a565b80868a015288518a610e65565b9061043761042c878a0193808552610a57565b808452825111610b21565b51905190610b14565b955b60c0865185880192610484845197610476888c015189519a8b96879485016040919493926060820195825260208201520152565b03601f1981018452836108be565b6000546104a79061049b906001600160a01b031681565b6001600160a01b031690565b908651809981948293630d17a7c760e31b84523060048501610baf565b03915afa948515610536576000956104f6575b50906104eb916101d19596519051906114e4565b905194859485610309565b6101d19550906105216104eb939260c03d60c01161052f575b61051981836108be565b810190610b78565b5050505050955090916104d7565b503d61050f565b610bd3565b91966105b09561059d946105866105a59761057f6103f98c6103f36105b99f61057761056d6105909c83015188611d20565b93518b5190611d4c565b905190611324565b9451610a7a565b9401938452610a7a565b9081898d0152518c610bdf565b808a52610a57565b808952825111610a87565b51865190610b14565b95610442565b346101d55760203660031901126101d55760206102ce6004356105ea6105e482610c45565b91610d72565b50906114e4565b346101d55760206102ce61060436610285565b906106116102bf84610c45565b92919091611509565b346101d55760206102ce61063961063036610285565b91929092610c45565b916116a4565b346101d55760403660031901126101d55761067b6004356101d161068261067361066884610d72565b9190506024356116d1565b949093610c45565b84846119e2565b92604051938493846040919493926060820195825260208201520152565b346101d55760403660031901126101d5576004356106db6101d16106e26106d36106c985610d72565b91506024356116fe565b939094610c45565b83856116a4565b91604051938493846040919493926060820195825260208201520152565b346101d55760203660031901126101d557608061071e600435610c45565b61075260405180926060908051835260208101516020840152604081015160408401528160018060a01b0391015116910152565bf35b346101d55760206102ce61076736610285565b906107746102bf84610c45565b92919091611725565b346101d55760003660031901126101d5576000546040516001600160a01b039091168152602090f35b346101d55760203660031901126101d5576101d160405160016020820152600435604082015260408152610271816108a2565b6001600160a01b038116036101d557565b346101d55760203660031901126101d5576101d160043561080a816107d9565b60408051600360208201526001600160a01b03909216828201528152610271816108a2565b346101d55760203660031901126101d5576101d161084e600435610d72565b604080519384526020840192909252908201529081906060820190565b634e487b7160e01b600052604160045260246000fd5b6080810190811067ffffffffffffffff82111761089d57604052565b61086b565b6060810190811067ffffffffffffffff82111761089d57604052565b90601f8019910116810190811067ffffffffffffffff82111761089d57604052565b346101d55760c03660031901126101d55760803660431901126101d5576101d161094060405161090f81610881565b60443581526064356020820152608435604082015260a435610930816107d9565b60608201526024356004356118a2565b60405191829182610222565b346101d55760206102ce6103a761063036610285565b346101d55760403660031901126101d55761067b6004356101d161068261067361098b84610d72565b9190506024356116fe565b346101d55760206102ce6109ac61063036610285565b916119e2565b346101d55760403660031901126101d5576004356106db6101d16106e26106d36109db85610d72565b91506024356116d1565b9181606091810103126101d5576109fe61023392610c45565b9060408101359060208101359035610e8b565b604051906060820182811067ffffffffffffffff82111761089d5760405260006040838281528260208201520152565b634e487b7160e01b600052601160045260246000fd5b9060018201809211610a6557565b610a41565b906103e8918201809211610a6557565b91908201809211610a6557565b15610a8e57565b60405162461bcd60e51b815260206004820152602260248201527f696e76616c696420737761703a2078207265736572766520696e637265617365604482015261642160f01b6064820152608490fd5b90670de0b6b3a7640000918203918211610a6557565b906103e8918203918211610a6557565b6103e719810191908211610a6557565b91908203918211610a6557565b15610b2857565b60405162461bcd60e51b815260206004820152602260248201527f696e76616c696420737761703a2079207265736572766520696e637265617365604482015261642160f01b6064820152608490fd5b91908260c09103126101d5578151610b8f816102ff565b9160208101519160408201519160608101519160a0608083015192015190565b610233939260609260018060a01b03168252602082015281604082015201906101fd565b6040513d6000823e3d90fd5b9161063961023393610c45565b91908260809103126101d557604051610c0481610881565b6060808294805184526020810151602085015260408101516040850152015191610c2d836107d9565b0152565b906080828203126101d55761023391610bec565b90604051610c5281610881565b600090818152816060602092828482015282604082015201528160018060a01b038154169460246040518097819363dc17835560e01b835260048301525afa918215610536578092610cb3575b506102339293508082518301019101610c31565b9091503d8082863e610cc581866108be565b8401908285830312610d3b57845167ffffffffffffffff95868211610d3e57019082601f83011215610d3b57815195861161089d5760405192610d11601f8801601f19168601856108be565b868452848784010111610d3b57506102339394610d33918480850191016101da565b908392610c9f565b80fd5b8280fd5b908160209103126101d55751610233816107d9565b908160609103126101d5578051916040602083015192015190565b9060046020610d8e61049b61049b60005460018060a01b031690565b604051632bee84f160e21b815292839182905afa92831561053657610dd993606092600091610e36575b5060405180809681946333854efd60e21b8352600483019190602083019252565b03916001600160a01b03165afa9081156105365760008093600093610dff575b50929190565b91935050610e25915060603d606011610e2f575b610e1d81836108be565b810190610d57565b9290929138610df9565b503d610e13565b610e58915060203d602011610e5e575b610e5081836108be565b810190610d42565b38610db8565b503d610e46565b916109ac61023393610c45565b81810392916000138015828513169184121617610a6557565b9260206103ea84610eae610ea66103f39697610eb499612087565b855190611324565b95612087565b670de0b6b3a763ffff198101908113600116610a655790565b908152602080820192909252604080820193909352606080820194909452845160808201529084015160a08201529083015160c08201529101516001600160a01b031660e08201526101000190565b565b909291855160208701516040880151610f3690610ade565b91610f418785612087565b610f4b8282611324565b92610f5591611324565b895185898581610f65858d6120ca565b90610f6f916120ca565b90610f79916120ca565b92610f83906120a9565b610f8c90610af4565b90610f9691610a7a565b90610fa0916120ca565b610fa986610ade565b610fb2916120ca565b92610fbc8a610a6a565b90610fc6906110f0565b610fcf91611324565b91610fd9906120a9565b610fe286610ade565b610feb916120ca565b610ff59089610a7a565b92610fff91610b14565b91611009916120ca565b895161101490610ade565b61101d90612068565b61102691611324565b61102f916120ca565b91885161103b90610ade565b61104488610a6a565b9261104f89896120ca565b90611059916120ca565b91611063866120a9565b9061106d90610ade565b611076916120ca565b92611080916120ca565b9161108a91610a7a565b611093916120ca565b9061109d846110f0565b916110a791612087565b6110b09161112d565b6000136110e557610233956110e0936110d29260405196879560208701610ecd565b03601f1981018352826108be565b611a30565b505050505050600090565b600160ff1b8114610a655760000390565b90816103e801918212600116610a6557565b9081670de0b6b3a763ffff190191821215600116610a6557565b91909160008382019384129112908015821691151617610a6557565b94939290928451906020860151604087015161116490610ade565b9261116f8787612087565b6111798282611324565b9261118391611324565b885187898581611193858c6120ca565b9061119d916120ca565b906111a7916120ca565b926111b290886120ca565b6111bc9088610b14565b906111c691610a7a565b906111d0916120ca565b6111d987610ade565b6111e2916120ca565b926111ed8a87610a7a565b906111f7906110f0565b61120091611324565b9161120b90866120ca565b61121487610ade565b61121d916120ca565b6112279088610a7a565b9261123191610b14565b9161123b916120ca565b885161124690610ade565b61124f90612068565b61125891611324565b611261916120ca565b965161126c90610ade565b936112778784610a7a565b96611281916120ca565b9061128b916120ca565b93611295916120ca565b9061129f90610ade565b6112a8916120ca565b926112b2916120ca565b916112bc91610a7a565b6112c5916120ca565b916112cf906110f0565b916112d991612087565b6102339161112d565b610233929160206112f86103f393855190611324565b93015190611324565b818102929160008212600160ff1b821416610a65578184051490151715610a6557565b6114d1610233927d57115e47018c7177eebf7cd370a3356a1b7863008a5ae8028c72b88642846114df9361135a60008213611dc8565b711340daa0d5f769dba1915cef59f0815a55066113768261210a565b6060928382609f03011b609f1c90605f19017d0267a36c0c95b3975ab3ee5b203a7614a3f75373f047d803ae7b6687f2b302926c0b7a86d7375468fac667a0a527826d01920d8043ca89b5239253284e42816d0a0f742023def783a307a986912e816d13cdffb29d51d99322bdff5f2211816d0df99ac502031bf953eff472fdcc816d0388eaa27412d5aca026815d636e816c465772b2bbbb5f824b15207a308101028c1d01028a1d0102881d0102861d0102841d0102821d0191780a09507084cc699bb0e71ea869ffffffffffffffffffffffff19916cb9a025d814b29c212b8b1a07cd1990826d02384773bdf1ac5676facced609019816c8c3f38e95a6b1ff2ab1c3b343619816d02247f7a7b6594320649aa03aba1816d0139601a2efabe717e604cbb4894816c29508e458543d8aa4df2abee78810102891d0102871d0102851d0102831d0102901d0102010502010160ae1d611301565b670de0b6b3a7640000900590565b611e00565b611503906114fb6102339493602085015190612087565b925190612087565b90612087565b90929185516040870151670de0b6b3a764000060008282039212818312811691831390151617610a655761153c83611101565b61154583611113565b61154e91611324565b908261155a8589611fa9565b9061156491611324565b61156d81611fc7565b9261157783611113565b6115819085611ff0565b61158b9089610e72565b91829161159788611101565b6115a19088611ff0565b936115ab91611ff0565b6115b487611f8a565b6115bd91611324565b926115c787611113565b6115d1908b611ff0565b91886115dc89611fc7565b906115e69161112d565b6115ef91611ff0565b6115f886611113565b61160191611ff0565b9261160b91611ff0565b926116169089611ff0565b9161162091610e72565b61162991611ff0565b6116329161112d565b9261163c85611101565b61164591611ff0565b9161164f876110f0565b9161165990611113565b61166291611ff0565b61166b9161112d565b61167491611ff0565b61167d91611fa9565b6000136110e5576102339561169f936110d29260405196879560208701610ecd565b611b55565b6116c461023393926116be6116cb93602086015190611324565b90611d4c565b9151611d7c565b90611324565b9291906116e76116e18284611d4c565b85611d20565b938103908111610a6557928103908111610a655790565b92919061170e6116e18284611d4c565b938101809111610a6557928101809111610a655790565b9293949091946040825192015193670de0b6b3a764000060008682039612818712811691871390151617610a6557828794611760868561112d565b61176983611113565b61177291611324565b9561177c91611fa9565b9061178691611324565b936117918584611ff0565b9461179b87611113565b6117a59087611ff0565b6117af9089610e72565b9283926117bc8b8761112d565b6117c69088611ff0565b946117d091611ff0565b6117d987611f8a565b6117e291611324565b936117ec87611113565b6117f6908b611ff0565b928b6118028989611ff0565b9061180c9161112d565b61181591611ff0565b61181e8a611113565b61182791611ff0565b9361183191611ff0565b9361183b91611ff0565b9161184591610e72565b61184e91611ff0565b6118579161112d565b956118619161112d565b61186a91611ff0565b92611874906110f0565b9161187e90611113565b61188791611ff0565b6118909161112d565b61189991611ff0565b61023391611fa9565b929190836118bd6118c2926118bd6020860151865190612087565b6120ca565b906118ce8183866112e2565b936118db82868584610e8b565b85906000808212156119a4575b808212611986575061192d61197a9261023396979886935b6119146040519889928c8a6020860161201f565b0396611928601f19988981018352826108be565b611c2c565b8151604080840151606094850151825160208101989098529187019990995292850191909152608084015260a08301959095526001600160a01b0390941660c082015292839060e0820190565b039081018352826108be565b9661199191506120eb565b9561199e84888786610e8b565b906118e8565b9691965b8082136119c4575061192d61023395969761197a938693611900565b966119cf9150611d9e565b956119dc84888786610e8b565b906119a8565b60206119fb61023394936116be6116cb94865190611324565b920151611d7c565b9190610100838203126101d557825192602081015192610233604083015193608060608501519401610bec565b91906103e892600093600091838211611b3457611a4c8161217c565b611a5685836122d5565b6000611a628284611301565b13611b155750611a73859695610b04565b60019460009186805b611a8d575b50505050505050509050565b15611af0575b5085969798508091611aae611aa88b88610a7a565b60011c90565b99611ab98b876122d5565b9083611ac58784611301565b13611ae457505089925b87611ada8886610b14565b9201939998611a7c565b8b975090945092611acf565b861080611b0a575b15611b035788611a93565b8080611a81565b506101008210611af8565b6040516306f1be5d60e21b815260048101929092526024820152604490fd5b604051633082dfdb60e11b81526103e8600482015260248101859052604490fd5b91906103e892600093600091838211611b3457611b71816122f6565b611b7b8583612441565b6000611b878284611301565b13611b155750611b98859695610b04565b60019460009186805b611bb15750505050505050509050565b15611c0e575b5085969798508091611bcc611aa88b88610a7a565b99611bd78b87612441565b9083611be38784611301565b13611c0257505089925b87611bf88886610b14565b9201939998611ba1565b8b975090945092611bed565b861080611c21575b15611b035788611bb7565b506101008210611c16565b60009392918491838211611d0057611c448282612462565b611c4e8583612462565b6000611c5a8284611301565b13611b155750611c6c83869796610b14565b60019460009186805b611c855750505050505050509050565b15611ce2575b5085969798508091611ca0611aa88b88610a7a565b99611cab8b87612462565b9083611cb78784611301565b13611cd657505089925b87611ccc8886610b14565b9201939998611c75565b8b975090945092611cc1565b861080611cf5575b15611b035788611c8b565b506101008210611cea565b604051633082dfdb60e11b81526004810183905260248101859052604490fd5b8181029181830414901517600116156101d5576001670de0b6b3a7640000600019830104019015150290565b90670de0b6b3a764000091828102928184041490151781151516156101d557600190600019830104019015150290565b600181151516156101d5576ec097ce7bc90715b34b9f0fffffffff0460010190565b6103e9908181029181830414901517600116156101d55760016103e8600019830104019015150290565b15611dcf57565b60405162461bcd60e51b815260206004820152600960248201526815539111519253915160ba1b6044820152606490fd5b680248ce36a70cb26b3e19811315611f8457680755bf798b4a1bf1e5811215611f50576503782dace9d990604e1b0574029d9dc38563c32e5c2f6dc192ee70ef65f9978af36bb17217f7d1cf79abc9e3b398916060906001605f1b8482841b0501821d9384029003806c10fe68e7fd37d0007b713f7650810102821d906e0587f503bb6ea29d25fcb7401964506e05180bb14799ab47a8a8cb2a527d57826e02c72388d9f74f51a9331fed693f1419816db1bbb201f443cf962f1a1d3db4a5816d1a521255e34f6a5061b25ef1c9c319816d0277594991cfc85f6e2461837cd9816c240c330e9fb2d9cbaf0fd5aafb198101028d1d01028b1d0102891d0102871d0102851d01936d360d7aeea093263ecc6e0ecb291760621b936d02d16720577bd19bf614176fe9ea810190846d01d3967ed30fc4f89c02bab570811991010102901d01020105029060c3031c90565b60405162461bcd60e51b815260206004820152600c60248201526b4558505f4f564552464c4f5760a01b6044820152606490fd5b50600090565b600181151516156101d5576ec097ce7bc90715b34b9f10000000000590565b670de0b6b3a7640000908181029182051482151516156101d5570590565b6103e881810291600160ff1b81136001179183051416156101d557670de0b6b3a7640000900590565b818102918115828405821417600019909210600160ff1b9091131716156101d557670de0b6b3a7640000900590565b610f1c9360609296959360e083019783526020830152604082015201906060908051835260208101516020840152604081015160408401528160018060a01b0391015116910152565b600181151516156101d5576ec097ce7bc90715b34b9f10000000000490565b670de0b6b3a764000090818102918183041490151782151516156101d5570490565b6103e89080820291820414600116156101d557670de0b6b3a7640000900490565b8181029181830414901517600116156101d557670de0b6b3a7640000900490565b6103e7908181029181830414901517600116156101d5576103e8900490565b612115811515611dc8565b806fffffffffffffffffffffffffffffffff1060071b81811c67ffffffffffffffff1060061b1781811c63ffffffff1060051b1781811c61ffff1060041b1781811c60ff1060031b1781811c600f1060021b1781811c60031060011b1790811c6001101790565b80518101602001906020019061219191611a03565b9291908351602085015160408601516121a990610ade565b916121b48686612087565b6121be8282611324565b926121c891611324565b8751868885816121d8858b6120ca565b906121e2916120ca565b906121ec916120ca565b926121f6906120a9565b6121ff90610af4565b9061220991610a7a565b90612213916120ca565b61221c86610ade565b612225916120ca565b9261222f89610a6a565b90612239906110f0565b61224291611324565b9161224c906120a9565b61225586610ade565b61225e916120ca565b6122689087610a7a565b9261227291610b14565b9161227c916120ca565b875161228790610ade565b61229090612068565b61229991611324565b6122a2916120ca565b95516122ad90610ade565b926122b786610a6a565b956122c1916120ca565b906122cb916120ca565b92611295906120a9565b906122ec6102339260208082518301019101611a03565b9493929092611149565b6123099060208082518301019101611a03565b6040819593959492945191015192670de0b6b3a764000060008582039512818612811691861390151617610a655781869361234385611101565b61234c83611113565b61235591611324565b9461235f91611fa9565b9061236991611324565b9261237384611fc7565b9361237d86611113565b6123879086611ff0565b6123919088610e72565b92839261239d8a611101565b6123a79087611ff0565b946123b191611ff0565b6123ba86611f8a565b6123c391611324565b936123cd86611113565b6123d7908a611ff0565b928a6123e288611fc7565b906123ec9161112d565b6123f591611ff0565b6123fe89611113565b61240791611ff0565b9361241191611ff0565b9361241b91611ff0565b9161242591610e72565b61242e91611ff0565b6124379161112d565b9461186190611101565b906124586102339260208082518301019101611a03565b9493929092611725565b805181019160e0828403126101d5576102339261249060208401519360806020604083015194019101610bec565b92610e8b56fea2646970667358221220ddef7f48a463f4812492c0cc35c784e857fab14e0a29d203d7aa233c67d9fa2964736f6c63430008160033","linkReferences":{}},"methodIdentifiers":{"allocateGivenX(uint256,uint256)":"ee3e8cfb","allocateGivenY(uint256,uint256)":"7f17409c","calculateDiffLower(uint256,uint256,uint256)":"332266f3","calculateDiffRaise(uint256,uint256,uint256)":"902ecaa2","checkSwapConstant(uint256,bytes)":"0f4166b8","computeOptimalArbLowerPrice(uint256,uint256,uint256)":"306db46b","computeOptimalArbRaisePrice(uint256,uint256,uint256)":"4fd67c58","deallocateGivenX(uint256,uint256)":"6237569f","deallocateGivenY(uint256,uint256)":"f30d37f2","fetchPoolParams(uint256)":"81b5fac2","getInitialPoolData(uint256,uint256,(uint256,uint256,uint256,address))":"def15f92","getNextLiquidity(uint256,uint256,uint256)":"ec29d8e6","getNextReserveX(uint256,uint256,uint256)":"5a93b8ce","getNextReserveY(uint256,uint256,uint256)":"f2de7a7b","getReservesAndLiquidity(uint256)":"ce153bf4","internalPrice(uint256)":"3b4d1030","prepareControllerUpdate(address)":"cb1f5532","prepareFeeUpdate(uint256)":"b09d04e5","prepareWeightXUpdate(uint256,uint256)":"250968d9","simulateSwap(uint256,bool,uint256)":"3928ff97","strategy()":"a8c62e76"},"id":36}