{"abi":[{"type":"constructor","inputs":[{"name":"dfmm_","type":"address","internalType":"address"}],"stateMutability":"nonpayable"},{"type":"function","name":"computeSwapConstant","inputs":[{"name":"poolId","type":"uint256","internalType":"uint256"},{"name":"data","type":"bytes","internalType":"bytes"}],"outputs":[{"name":"","type":"int256","internalType":"int256"}],"stateMutability":"view"},{"type":"function","name":"dfmm","inputs":[],"outputs":[{"name":"","type":"address","internalType":"address"}],"stateMutability":"view"},{"type":"function","name":"getPoolParams","inputs":[{"name":"poolId","type":"uint256","internalType":"uint256"}],"outputs":[{"name":"","type":"bytes","internalType":"bytes"}],"stateMutability":"view"},{"type":"function","name":"init","inputs":[{"name":"","type":"address","internalType":"address"},{"name":"poolId","type":"uint256","internalType":"uint256"},{"name":"data","type":"bytes","internalType":"bytes"}],"outputs":[{"name":"valid","type":"bool","internalType":"bool"},{"name":"invariant","type":"int256","internalType":"int256"},{"name":"reserveX","type":"uint256","internalType":"uint256"},{"name":"reserveY","type":"uint256","internalType":"uint256"},{"name":"totalLiquidity","type":"uint256","internalType":"uint256"}],"stateMutability":"nonpayable"},{"type":"function","name":"internalParams","inputs":[{"name":"","type":"uint256","internalType":"uint256"}],"outputs":[{"name":"wX","type":"tuple","internalType":"struct DynamicParam","components":[{"name":"lastComputedValue","type":"uint256","internalType":"uint256"},{"name":"updateEnd","type":"uint256","internalType":"uint256"},{"name":"updatePerSecond","type":"int256","internalType":"int256"},{"name":"lastUpdateAt","type":"uint256","internalType":"uint256"}]},{"name":"swapFee","type":"uint256","internalType":"uint256"},{"name":"controller","type":"address","internalType":"address"}],"stateMutability":"view"},{"type":"function","name":"name","inputs":[],"outputs":[{"name":"","type":"string","internalType":"string"}],"stateMutability":"view"},{"type":"function","name":"update","inputs":[{"name":"sender","type":"address","internalType":"address"},{"name":"poolId","type":"uint256","internalType":"uint256"},{"name":"data","type":"bytes","internalType":"bytes"}],"outputs":[],"stateMutability":"nonpayable"},{"type":"function","name":"validateAllocateOrDeallocate","inputs":[{"name":"","type":"address","internalType":"address"},{"name":"poolId","type":"uint256","internalType":"uint256"},{"name":"data","type":"bytes","internalType":"bytes"}],"outputs":[{"name":"valid","type":"bool","internalType":"bool"},{"name":"invariant","type":"int256","internalType":"int256"},{"name":"reserveX","type":"uint256","internalType":"uint256"},{"name":"reserveY","type":"uint256","internalType":"uint256"},{"name":"totalLiquidity","type":"uint256","internalType":"uint256"}],"stateMutability":"view"},{"type":"function","name":"validateSwap","inputs":[{"name":"","type":"address","internalType":"address"},{"name":"poolId","type":"uint256","internalType":"uint256"},{"name":"data","type":"bytes","internalType":"bytes"}],"outputs":[{"name":"valid","type":"bool","internalType":"bool"},{"name":"invariant","type":"int256","internalType":"int256"},{"name":"liquidityDelta","type":"int256","internalType":"int256"},{"name":"nextRx","type":"uint256","internalType":"uint256"},{"name":"nextRy","type":"uint256","internalType":"uint256"},{"name":"nextL","type":"uint256","internalType":"uint256"}],"stateMutability":"view"},{"type":"error","name":"InvalidSender","inputs":[]},{"type":"error","name":"InvalidUpdateCode","inputs":[]},{"type":"error","name":"InvalidUpdateEnd","inputs":[]},{"type":"error","name":"InvalidWeightX","inputs":[]},{"type":"error","name":"NotDFMM","inputs":[]}],"bytecode":{"object":"0x60a03461007f57601f6112cb38819003918201601f19168301916001600160401b038311848410176100845780849260209460405283398101031261007f57516001600160a01b038116810361007f57608052604051611230908161009b82396080518181816103b701528181610612015281816107c601526109240152f35b600080fd5b634e487b7160e01b600052604160045260246000fdfe6080604052600436101561001257600080fd5b6000803560e01c9081622e524b146100a95750806306fdde03146100a45780631edb71e51461009f57806368bd3e381461009a57806373cb2d03146100955780638a04bdd514610090578063acad29891461008b578063afba13c4146100865763dc1783551461008157600080fd5b610953565b61090e565b6107ad565b610773565b6105f6565b610331565b6102ae565b610221565b3461011b57604036600319011261011b576024359067ffffffffffffffff821161011b5760206101136100f06100e236600487016101c3565b838082518301019101610986565b9061010d6100ff600435610a7f565b8680825183010191016109a1565b92610b68565b604051908152f35b80fd5b634e487b7160e01b600052604160045260246000fd5b6080810190811067ffffffffffffffff82111761015057604052565b61011e565b90601f8019910116810190811067ffffffffffffffff82111761015057604052565b92919267ffffffffffffffff821161015057604051916101a1601f8201601f191660200184610155565b8294818452818301116101be578281602093846000960137010152565b600080fd5b9080601f830112156101be578160206101de93359101610177565b90565b919082519283825260005b84811061020d575050826000602080949584010152601f8019910116010190565b6020818301810151848301820152016101ec565b346101be5760003660031901126101be57604051604081019080821067ffffffffffffffff8311176101505761027891604052600381526247334d60e81b60208201526040519182916020835260208301906101e1565b0390f35b9060405161028981610134565b6060600382948054845260018101546020850152600281015460408501520154910152565b346101be5760203660031901126101be57600435600052600060205260c060406000206102da8161027c565b90600481015490600560018060a01b03910154169060606040519380518552602081015160208601526040810151604086015201516060840152608083015260a0820152f35b6001600160a01b038116036101be57565b346101be5760603660031901126101be5761034d600435610320565b60243560443567ffffffffffffffff81116101be576103709036906004016101c3565b9061037a81610a7f565b90610390825192602080809583010191016109a1565b6040516333854efd60e21b8152600481018390529092906060816024816001600160a01b037f0000000000000000000000000000000000000000000000000000000000000000165afa948515610596576000908192829761055d575b508084806103ff93518301019101610986565b949195909787878581116000146104c45793610454869461044e866104496104769b9761044461046198604061043b61046d9f6104679f610a08565b91015190610f48565b610f48565b610f74565b50610a7f565b80518101820191016109a1565b91610bb9565b83610a27565b93828685610b68565b93846013191292836104b9575b6102789394604051968796879260a094919796959260c08501981515855260208501526040840152606083015260808201520152565b601486129350610483565b5050919290938089116000146104ff5761046161046d946104546104769761044e856104498f998f61044490604061043b866104679f610a08565b60405162461bcd60e51b815260206004820152603060248201527f696e76616c696420737761703a20696e70757473207820616e6420792068617660448201526f65207468652073616d65207369676e2160801b6064820152608490fd5b9096506103ff9250610587915060603d60601161058f575b61057f8183610155565b810190610986565b9690926103ec565b503d610575565b6109e6565b9060606003198301126101be576004356105b481610320565b916024359160443567ffffffffffffffff928382116101be57806023830112156101be5781600401359384116101be57602484830101116101be576024019190565b346101be576106043661059b565b9192506001600160a01b03917f000000000000000000000000000000000000000000000000000000000000000083163303610761578160c091810103126101be5780359160208201359160408101359460608201359060a08301359261066984610320565b670de0b6b3a764000083101561074f5761070d946107059460806106f1936106f69661069f876000526000602052604060002090565b55013560046106b8866000526000602052604060002090565b01551660056106d1846000526000602052604060002090565b0180546001600160a01b0319166001600160a01b03909216919091179055565b610a7f565b602080825183010191016109a1565b848385610b68565b9283601319129182610744575b6040805193151584526020840195909552938201929092526060810192909252608082015260a090f35b60148512925061071a565b60405163e8a38a6160e01b8152600490fd5b604051636853cba760e01b8152600490fd5b346101be5760606107833661059b565b818094509492940103126101be5780359061070d6107056106f66040602085013594013595610a7f565b346101be576107bb3661059b565b926001600160a01b037f000000000000000000000000000000000000000000000000000000000000000081163303610761576108236108176005610809876000526000602052604060002090565b01546001600160a01b031690565b6001600160a01b031690565b9116036108fc5761083683820182610a4a565b61083f81610a5f565b60018103610878575061086261085d61087392600494953691610177565b610caa565b926000526000602052604060002090565b01555b005b61088181610a5f565b600281036108bd5750906108a56108a06108b893610876953691610177565b610c00565b9290916000526000602052604060002090565b610c28565b806108c9600392610a5f565b036108ea576106d16108626108e5600593610876963691610177565b610bd8565b60405163235d2b3d60e01b8152600490fd5b604051636edaef2f60e11b8152600490fd5b346101be5760003660031901126101be576040517f00000000000000000000000000000000000000000000000000000000000000006001600160a01b03168152602090f35b346101be5760203660031901126101be57610278610972600435610a7f565b6040519182916020835260208301906101e1565b908160609103126101be578051916040602083015192015190565b908160809103126101be576060604051916109bb83610134565b80518352602081015160208401526040810151604084015201516109de81610320565b606082015290565b6040513d6000823e3d90fd5b634e487b7160e01b600052601160045260246000fd5b91908203918211610a1557565b6109f2565b91908201809211610a1557565b81810392916000138015828513169184121617610a1557565b600411156101be57565b908160209103126101be57356101de81610a40565b60041115610a6957565b634e487b7160e01b600052602160045260246000fd5b60408051610a8c81610134565b6000918282526020820193838552818301848152606084019085825282865285602052610ac2610abd85882061027c565b610cdf565b808652670de0b6b3a7640000908103908111610a1557846101de97610b1f95610b1294600594610b5a9c5281835282602052600484842001549052815280602052200160018060a01b0390541690565b6001600160a01b03169052565b5192839160208301919091606060808201938051835260208101516020840152604081015160408401528160018060a01b0391015116910152565b03601f198101835282610155565b926020610b9184610b8b610b83610b9a9697610ba099610fa4565b855190610d88565b95610fa4565b91015190610d88565b90610f48565b670de0b6b3a763ffff198101908113600116610a155790565b6101de92916020610bcf610b9a93855190610d88565b93015190610d88565b6040818051810103126101be5780610bf560206040930151610a40565b015161081781610320565b6060818051810103126101be57610c1a6020820151610a40565b606060408201519101519091565b919042821115610c9857610c3e610abd8461027c565b9081845542600385015542830391838311610a1557610c5c91610a27565b428314610c8257600160ff1b8114600019831416610a1557600292600185015505910155565b634e487b7160e01b600052601260045260246000fd5b6040516366f102ed60e11b8152600490fd5b6040818051810103126101be5780610cc760206040930151610a40565b015190565b81810292918115918404141715610a1557565b6060810151906020810151808314610d5e57804211600014610d5657915b8203918211610a15576040810190815160008113600014610d3057506101de92610d2a9151925190610ccc565b90610a1a565b90519150600160ff1b8114610a15576101de92610d509160000390610ccc565b90610a08565b504291610cfd565b5090505190565b818102929160008212600160ff1b821416610a15578184051490151715610a1557565b610f356101de927d57115e47018c7177eebf7cd370a3356a1b7863008a5ae8028c72b8864284610f4393610dbe60008213610fc6565b711340daa0d5f769dba1915cef59f0815a5506610dda82611188565b6060928382609f03011b609f1c90605f19017d0267a36c0c95b3975ab3ee5b203a7614a3f75373f047d803ae7b6687f2b302926c0b7a86d7375468fac667a0a527826d01920d8043ca89b5239253284e42816d0a0f742023def783a307a986912e816d13cdffb29d51d99322bdff5f2211816d0df99ac502031bf953eff472fdcc816d0388eaa27412d5aca026815d636e816c465772b2bbbb5f824b15207a308101028c1d01028a1d0102881d0102861d0102841d0102821d0191780a09507084cc699bb0e71ea869ffffffffffffffffffffffff19916cb9a025d814b29c212b8b1a07cd1990826d02384773bdf1ac5676facced609019816c8c3f38e95a6b1ff2ab1c3b343619816d02247f7a7b6594320649aa03aba1816d0139601a2efabe717e604cbb4894816c29508e458543d8aa4df2abee78810102891d0102871d0102851d0102831d0102901d0102010502010160ae1d610d65565b670de0b6b3a7640000900590565b610ffe565b8181029181830414901517600116156101be576001670de0b6b3a7640000600019830104019015150290565b90670de0b6b3a764000091828102928184041490151781151516156101be57600190600019830104019015150290565b670de0b6b3a764000090818102918183041490151782151516156101be570490565b15610fcd57565b60405162461bcd60e51b815260206004820152600960248201526815539111519253915160ba1b6044820152606490fd5b680248ce36a70cb26b3e1981131561118257680755bf798b4a1bf1e581121561114e576503782dace9d990604e1b0574029d9dc38563c32e5c2f6dc192ee70ef65f9978af36bb17217f7d1cf79abc9e3b398916060906001605f1b8482841b0501821d9384029003806c10fe68e7fd37d0007b713f7650810102821d906e0587f503bb6ea29d25fcb7401964506e05180bb14799ab47a8a8cb2a527d57826e02c72388d9f74f51a9331fed693f1419816db1bbb201f443cf962f1a1d3db4a5816d1a521255e34f6a5061b25ef1c9c319816d0277594991cfc85f6e2461837cd9816c240c330e9fb2d9cbaf0fd5aafb198101028d1d01028b1d0102891d0102871d0102851d01936d360d7aeea093263ecc6e0ecb291760621b936d02d16720577bd19bf614176fe9ea810190846d01d3967ed30fc4f89c02bab570811991010102901d01020105029060c3031c90565b60405162461bcd60e51b815260206004820152600c60248201526b4558505f4f564552464c4f5760a01b6044820152606490fd5b50600090565b611193811515610fc6565b806fffffffffffffffffffffffffffffffff1060071b81811c67ffffffffffffffff1060061b1781811c63ffffffff1060051b1781811c61ffff1060041b1781811c60ff1060031b1781811c600f1060021b1781811c60031060011b1790811c600110179056fea26469706673582212209815df372867dd1ba42d4263690c8e70d1f8dc34ff9f897579936267cb43316764736f6c63430008160033","linkReferences":{}},"methodIdentifiers":{"computeSwapConstant(uint256,bytes)":"002e524b","dfmm()":"afba13c4","getPoolParams(uint256)":"dc178355","init(address,uint256,bytes)":"73cb2d03","internalParams(uint256)":"1edb71e5","name()":"06fdde03","update(address,uint256,bytes)":"acad2989","validateAllocateOrDeallocate(address,uint256,bytes)":"8a04bdd5","validateSwap(address,uint256,bytes)":"68bd3e38"},"id":41}