{"abi":[{"type":"constructor","inputs":[{"name":"name","type":"string","internalType":"string"},{"name":"symbol","type":"string","internalType":"string"},{"name":"decimals","type":"uint8","internalType":"uint8"}],"stateMutability":"nonpayable"},{"type":"function","name":"DOMAIN_SEPARATOR","inputs":[],"outputs":[{"name":"","type":"bytes32","internalType":"bytes32"}],"stateMutability":"view"},{"type":"function","name":"admin","inputs":[],"outputs":[{"name":"","type":"address","internalType":"address"}],"stateMutability":"view"},{"type":"function","name":"allowance","inputs":[{"name":"","type":"address","internalType":"address"},{"name":"","type":"address","internalType":"address"}],"outputs":[{"name":"","type":"uint256","internalType":"uint256"}],"stateMutability":"view"},{"type":"function","name":"approve","inputs":[{"name":"spender","type":"address","internalType":"address"},{"name":"amount","type":"uint256","internalType":"uint256"}],"outputs":[{"name":"","type":"bool","internalType":"bool"}],"stateMutability":"nonpayable"},{"type":"function","name":"balanceOf","inputs":[{"name":"","type":"address","internalType":"address"}],"outputs":[{"name":"","type":"uint256","internalType":"uint256"}],"stateMutability":"view"},{"type":"function","name":"decimals","inputs":[],"outputs":[{"name":"","type":"uint8","internalType":"uint8"}],"stateMutability":"view"},{"type":"function","name":"mint","inputs":[{"name":"receiver","type":"address","internalType":"address"},{"name":"amount","type":"uint256","internalType":"uint256"}],"outputs":[{"name":"","type":"bool","internalType":"bool"}],"stateMutability":"nonpayable"},{"type":"function","name":"name","inputs":[],"outputs":[{"name":"","type":"string","internalType":"string"}],"stateMutability":"view"},{"type":"function","name":"nonces","inputs":[{"name":"","type":"address","internalType":"address"}],"outputs":[{"name":"","type":"uint256","internalType":"uint256"}],"stateMutability":"view"},{"type":"function","name":"permit","inputs":[{"name":"owner","type":"address","internalType":"address"},{"name":"spender","type":"address","internalType":"address"},{"name":"value","type":"uint256","internalType":"uint256"},{"name":"deadline","type":"uint256","internalType":"uint256"},{"name":"v","type":"uint8","internalType":"uint8"},{"name":"r","type":"bytes32","internalType":"bytes32"},{"name":"s","type":"bytes32","internalType":"bytes32"}],"outputs":[],"stateMutability":"nonpayable"},{"type":"function","name":"symbol","inputs":[],"outputs":[{"name":"","type":"string","internalType":"string"}],"stateMutability":"view"},{"type":"function","name":"totalSupply","inputs":[],"outputs":[{"name":"","type":"uint256","internalType":"uint256"}],"stateMutability":"view"},{"type":"function","name":"transfer","inputs":[{"name":"to","type":"address","internalType":"address"},{"name":"amount","type":"uint256","internalType":"uint256"}],"outputs":[{"name":"","type":"bool","internalType":"bool"}],"stateMutability":"nonpayable"},{"type":"function","name":"transferFrom","inputs":[{"name":"from","type":"address","internalType":"address"},{"name":"to","type":"address","internalType":"address"},{"name":"amount","type":"uint256","internalType":"uint256"}],"outputs":[{"name":"","type":"bool","internalType":"bool"}],"stateMutability":"nonpayable"},{"type":"event","name":"Approval","inputs":[{"name":"owner","type":"address","indexed":true,"internalType":"address"},{"name":"spender","type":"address","indexed":true,"internalType":"address"},{"name":"amount","type":"uint256","indexed":false,"internalType":"uint256"}],"anonymous":false},{"type":"event","name":"Transfer","inputs":[{"name":"from","type":"address","indexed":true,"internalType":"address"},{"name":"to","type":"address","indexed":true,"internalType":"address"},{"name":"amount","type":"uint256","indexed":false,"internalType":"uint256"}],"anonymous":false}],"bytecode":{"object":"0x60e0604090808252346200044e57620010b8803803809162000022828562000453565b833981016060828203126200044e5781516001600160401b0393908481116200044e57826200005391850162000477565b92602092838201518681116200044e5783916200007291840162000477565b91015160ff811681036200044e578451948686116200043857600095806200009b8854620004ed565b92601f93848111620003e7575b5087908483116001146200037f57899262000373575b50508160011b916000199060031b1c19161786555b8251908782116200035f578190600194620000ef8654620004ed565b8281116200030a575b5087918311600114620002a65788926200029a575b5050600019600383901b1c191690831b1782555b6080524660a052815184549181866200013a85620004ed565b92838352878301958882821691826000146200027a5750506001146200023a575b506200016a9250038262000453565b519020928151928301937f8b73c3c69bb8fe3d512ecc4cf759cc79239f7b179b0ffacaa9a75d522b39400f8552828401527fc89efdaa54c0f20c7adf612882df0950f5a951637e0307cdcb4c672f298b8bc660608401524660808401523060a084015260a0835260c08301948386109086111762000226575083905251902060c052600680546001600160a01b03191633179055610b8d90816200052b823960805181610679015260a051816109b5015260c051816109dc0152f35b634e487b7160e01b81526041600452602490fd5b8791508880528189209089915b858310620002615750506200016a9350820101386200015b565b8054838801850152869450899390920191810162000247565b60ff191688526200016a95151560051b85010192503891506200015b9050565b0151905038806200010d565b8589528789208694509190601f1984168a5b8a828210620002f35750508411620002d9575b505050811b01825562000121565b015160001960f88460031b161c19169055388080620002cb565b8385015186558997909501949384019301620002b8565b909192508589528789208380860160051c8201928a871062000355575b91869589929594930160051c01915b82811062000346575050620000f8565b8b815586955088910162000336565b9250819262000327565b634e487b7160e01b87526041600452602487fd5b015190503880620000be565b898052888a209250601f1984168a5b8a828210620003d0575050908460019594939210620003b6575b505050811b018655620000d3565b015160001960f88460031b161c19169055388080620003a8565b60018596829396860151815501950193016200038e565b9091508880528789208480850160051c8201928a86106200042e575b9085949392910160051c01905b8181106200041f5750620000a8565b8a815584935060010162000410565b9250819262000403565b634e487b7160e01b600052604160045260246000fd5b600080fd5b601f909101601f19168101906001600160401b038211908210176200043857604052565b919080601f840112156200044e5782516001600160401b038111620004385760209060405192620004b283601f19601f850116018562000453565b8184528282870101116200044e5760005b818110620004d957508260009394955001015290565b8581018301518482018401528201620004c3565b90600182811c921680156200051f575b60208310146200050957565b634e487b7160e01b600052602260045260246000fd5b91607f1691620004fd56fe608060408181526004918236101561001657600080fd5b600092833560e01c91826306fdde03146107fe57508163095ea7b31461078f57816318160ddd1461077057816323b872dd1461069d578163313ce5671461065f5781633644e5151461063b57816340c10f191461055057816370a08231146105185781637ecebe00146104e057816395d89b41146103fa578163a9059cbb14610376578163d505accf14610137578163dd62ed3e146100ea575063f851a440146100bf57600080fd5b346100e657816003193601126100e65760065490516001600160a01b039091168152602090f35b5080fd5b905034610133578160031936011261013357602092829161010961095c565b610111610977565b6001600160a01b03918216845291865283832091168252845220549051908152f35b8280fd5b8383346100e65760e03660031901126100e65761015261095c565b9061015b610977565b91604435606435926084359260ff84168094036103725742851061032f576101816109b0565b9560018060a01b038092169586895260209560058752848a209889549960018b01905585519285898501957f6e71edae12b1b97f4d1f60370fef10105fa2faae0126114a169c64845d6126c987528b89870152169a8b606086015288608086015260a085015260c084015260c0835260e0830167ffffffffffffffff948482108683111761031b578188528451902061010085019261190160f01b8452610102860152610122850152604281526101608401948186109086111761030857848752519020835261018082015260a4356101a082015260c4356101c0909101528780528490889060809060015afa156102fe5786511696871515806102f5575b156102c35786977f8c5be1e5ebec7d5bd14f71427d1e84f3dd0314c0f7b2291e5b200ac8c7c3b9259596975283528087208688528352818188205551908152a380f35b83606492519162461bcd60e51b8352820152600e60248201526d24a72b20a624a22fa9a4a3a722a960911b6044820152fd5b50848814610280565b81513d88823e3d90fd5b634e487b7160e01b8c5260418d5260248cfd5b50634e487b7160e01b8c5260418d5260248cfd5b815162461bcd60e51b81526020818a0152601760248201527f5045524d49545f444541444c494e455f455850495245440000000000000000006044820152606490fd5b8680fd5b5050346100e657806003193601126100e65760209161039361095c565b8260243591338452600386528184206103ad84825461098d565b90556001600160a01b0316808452600386529220805482019055825190815233907fddf252ad1be2c89b69c2b068fc378daa952ba7f163c4a11628f55a4df523b3ef908590a35160018152f35b8284346104dd57806003193601126104dd5781519080600180549061041e826108a1565b80865292602092600181169081156104b05750600114610458575b610454868861044a828903836108db565b5191829182610913565b0390f35b9350600184527fb10e2d527612073b26eecdfd717e6a320cf44b4afac2b0732d9fcbe2b7fa0cf65b83851061049d5750505050810160200161044a8261045486610439565b8054868601840152938201938101610480565b90506104549795508693506020925061044a94915060ff191682840152151560051b820101929486610439565b80fd5b5050346100e65760203660031901126100e65760209181906001600160a01b0361050861095c565b1681526005845220549051908152f35b5050346100e65760203660031901126100e65760209181906001600160a01b0361054061095c565b1681526003845220549051908152f35b8284346104dd57816003193601126104dd5761056a61095c565b60065460243592916001600160a01b0391821633036105ee576002548481018091116105db57602096509186917fddf252ad1be2c89b69c2b068fc378daa952ba7f163c4a11628f55a4df523b3ef936002551693848452600382528584208181540190558551908152a35160018152f35b634e487b7160e01b845260118752602484fd5b845162461bcd60e51b8152602081880152602160248201527f4f6e6c792061646d696e2063616e2063616c6c20746869732066756e6374696f6044820152603760f91b6064820152608490fd5b5050346100e657816003193601126100e6576020906106586109b0565b9051908152f35b5050346100e657816003193601126100e6576020905160ff7f0000000000000000000000000000000000000000000000000000000000000000168152f35b8284346104dd5760603660031901126104dd576106b861095c565b7fddf252ad1be2c89b69c2b068fc378daa952ba7f163c4a11628f55a4df523b3ef6106e1610977565b6001600160a01b039283168085526020878152868620338752815286862054909791948893604435938993856001820161074d575b5050508688526003855282882061072e85825461098d565b9055169586815260038452208181540190558551908152a35160018152f35b6107569161098d565b90888a528652838920338a528652838920558a8085610716565b5050346100e657816003193601126100e6576020906002549051908152f35b9050346101335781600319360112610133576020926107ac61095c565b918360243592839233825287528181209460018060a01b0316948582528752205582519081527f8c5be1e5ebec7d5bd14f71427d1e84f3dd0314c0f7b2291e5b200ac8c7c3b925843392a35160018152f35b839085346104dd57806003193601126104dd5780548161081d826108a1565b808552916020916001918281169081156104b0575060011461084a57610454868861044a828903836108db565b80809550527f290decd9548b62a8d60345a988386fc84ba6bc95484008f6362f93160ef3e5635b83851061088e5750505050810160200161044a8261045486610439565b8054868601840152938201938101610871565b90600182811c921680156108d1575b60208310146108bb57565b634e487b7160e01b600052602260045260246000fd5b91607f16916108b0565b90601f8019910116810190811067ffffffffffffffff8211176108fd57604052565b634e487b7160e01b600052604160045260246000fd5b6020808252825181830181905290939260005b82811061094857505060409293506000838284010152601f8019910116010190565b818101860151848201604001528501610926565b600435906001600160a01b038216820361097257565b600080fd5b602435906001600160a01b038216820361097257565b9190820391821161099a57565b634e487b7160e01b600052601160045260246000fd5b6000467f0000000000000000000000000000000000000000000000000000000000000000036109fe57507f000000000000000000000000000000000000000000000000000000000000000090565b60405181548291610a0e826108a1565b808252816020948582019460019087600182169182600014610b39575050600114610ae0575b50610a41925003826108db565b51902091604051918201927f8b73c3c69bb8fe3d512ecc4cf759cc79239f7b179b0ffacaa9a75d522b39400f845260408301527fc89efdaa54c0f20c7adf612882df0950f5a951637e0307cdcb4c672f298b8bc660608301524660808301523060a083015260a0825260c082019082821067ffffffffffffffff831117610acc575060405251902090565b634e487b7160e01b81526041600452602490fd5b87805286915087907f290decd9548b62a8d60345a988386fc84ba6bc95484008f6362f93160ef3e5635b858310610b21575050610a41935082010138610a34565b80548388018501528694508893909201918101610b0a565b60ff19168852610a4195151560051b8501019250389150610a34905056fea2646970667358221220bb7e59c870fb12e6a97b862b170e604eae41818eb723198bc726bb1da33fe4ba64736f6c63430008160033","linkReferences":{}},"methodIdentifiers":{"DOMAIN_SEPARATOR()":"3644e515","admin()":"f851a440","allowance(address,address)":"dd62ed3e","approve(address,uint256)":"095ea7b3","balanceOf(address)":"70a08231","decimals()":"313ce567","mint(address,uint256)":"40c10f19","name()":"06fdde03","nonces(address)":"7ecebe00","permit(address,address,uint256,uint256,uint8,bytes32,bytes32)":"d505accf","symbol()":"95d89b41","totalSupply()":"18160ddd","transfer(address,uint256)":"a9059cbb","transferFrom(address,address,uint256)":"23b872dd"},"id":53}