{"abi":[{"type":"constructor","inputs":[{"name":"_strategy","type":"address","internalType":"address"}],"stateMutability":"nonpayable"},{"type":"function","name":"BISECTION_EPSILON","inputs":[],"outputs":[{"name":"","type":"uint256","internalType":"uint256"}],"stateMutability":"view"},{"type":"function","name":"MAX_BISECTION_ITERS","inputs":[],"outputs":[{"name":"","type":"uint256","internalType":"uint256"}],"stateMutability":"view"},{"type":"function","name":"allocateGivenX","inputs":[{"name":"poolId","type":"uint256","internalType":"uint256"},{"name":"amountX","type":"uint256","internalType":"uint256"}],"outputs":[{"name":"","type":"uint256","internalType":"uint256"},{"name":"","type":"uint256","internalType":"uint256"},{"name":"","type":"uint256","internalType":"uint256"}],"stateMutability":"view"},{"type":"function","name":"allocateGivenY","inputs":[{"name":"poolId","type":"uint256","internalType":"uint256"},{"name":"amountY","type":"uint256","internalType":"uint256"}],"outputs":[{"name":"","type":"uint256","internalType":"uint256"},{"name":"","type":"uint256","internalType":"uint256"},{"name":"","type":"uint256","internalType":"uint256"}],"stateMutability":"view"},{"type":"function","name":"calculateDiffLower","inputs":[{"name":"poolId","type":"uint256","internalType":"uint256"},{"name":"S","type":"uint256","internalType":"uint256"},{"name":"v","type":"uint256","internalType":"uint256"}],"outputs":[{"name":"","type":"int256","internalType":"int256"}],"stateMutability":"view"},{"type":"function","name":"calculateDiffRaise","inputs":[{"name":"poolId","type":"uint256","internalType":"uint256"},{"name":"S","type":"uint256","internalType":"uint256"},{"name":"v","type":"uint256","internalType":"uint256"}],"outputs":[{"name":"","type":"int256","internalType":"int256"}],"stateMutability":"view"},{"type":"function","name":"computeOptimalArbLowerPrice","inputs":[{"name":"poolId","type":"uint256","internalType":"uint256"},{"name":"S","type":"uint256","internalType":"uint256"},{"name":"vUpper","type":"uint256","internalType":"uint256"}],"outputs":[{"name":"","type":"uint256","internalType":"uint256"}],"stateMutability":"view"},{"type":"function","name":"computeOptimalArbRaisePrice","inputs":[{"name":"poolId","type":"uint256","internalType":"uint256"},{"name":"S","type":"uint256","internalType":"uint256"},{"name":"vUpper","type":"uint256","internalType":"uint256"}],"outputs":[{"name":"","type":"uint256","internalType":"uint256"}],"stateMutability":"view"},{"type":"function","name":"deallocateGivenX","inputs":[{"name":"poolId","type":"uint256","internalType":"uint256"},{"name":"amountX","type":"uint256","internalType":"uint256"}],"outputs":[{"name":"","type":"uint256","internalType":"uint256"},{"name":"","type":"uint256","internalType":"uint256"},{"name":"","type":"uint256","internalType":"uint256"}],"stateMutability":"view"},{"type":"function","name":"deallocateGivenY","inputs":[{"name":"poolId","type":"uint256","internalType":"uint256"},{"name":"amountY","type":"uint256","internalType":"uint256"}],"outputs":[{"name":"","type":"uint256","internalType":"uint256"},{"name":"","type":"uint256","internalType":"uint256"},{"name":"","type":"uint256","internalType":"uint256"}],"stateMutability":"view"},{"type":"function","name":"fetchPoolParams","inputs":[{"name":"poolId","type":"uint256","internalType":"uint256"}],"outputs":[{"name":"","type":"tuple","internalType":"struct LogNormal.LogNormalParams","components":[{"name":"strike","type":"uint256","internalType":"uint256"},{"name":"sigma","type":"uint256","internalType":"uint256"},{"name":"tau","type":"uint256","internalType":"uint256"},{"name":"swapFee","type":"uint256","internalType":"uint256"},{"name":"controller","type":"address","internalType":"address"}]}],"stateMutability":"view"},{"type":"function","name":"getInitialPoolData","inputs":[{"name":"rx","type":"uint256","internalType":"uint256"},{"name":"S","type":"uint256","internalType":"uint256"},{"name":"params","type":"tuple","internalType":"struct LogNormal.LogNormalParams","components":[{"name":"strike","type":"uint256","internalType":"uint256"},{"name":"sigma","type":"uint256","internalType":"uint256"},{"name":"tau","type":"uint256","internalType":"uint256"},{"name":"swapFee","type":"uint256","internalType":"uint256"},{"name":"controller","type":"address","internalType":"address"}]}],"outputs":[{"name":"","type":"bytes","internalType":"bytes"}],"stateMutability":"pure"},{"type":"function","name":"getNextLiquidity","inputs":[{"name":"poolId","type":"uint256","internalType":"uint256"},{"name":"rx","type":"uint256","internalType":"uint256"},{"name":"ry","type":"uint256","internalType":"uint256"},{"name":"L","type":"uint256","internalType":"uint256"}],"outputs":[{"name":"","type":"uint256","internalType":"uint256"}],"stateMutability":"view"},{"type":"function","name":"getNextReserveX","inputs":[{"name":"poolId","type":"uint256","internalType":"uint256"},{"name":"ry","type":"uint256","internalType":"uint256"},{"name":"L","type":"uint256","internalType":"uint256"},{"name":"S","type":"uint256","internalType":"uint256"}],"outputs":[{"name":"","type":"uint256","internalType":"uint256"}],"stateMutability":"view"},{"type":"function","name":"getNextReserveY","inputs":[{"name":"poolId","type":"uint256","internalType":"uint256"},{"name":"rx","type":"uint256","internalType":"uint256"},{"name":"L","type":"uint256","internalType":"uint256"},{"name":"S","type":"uint256","internalType":"uint256"}],"outputs":[{"name":"","type":"uint256","internalType":"uint256"}],"stateMutability":"view"},{"type":"function","name":"getPriceGivenXL","inputs":[{"name":"poolId","type":"uint256","internalType":"uint256"},{"name":"rx","type":"uint256","internalType":"uint256"},{"name":"L","type":"uint256","internalType":"uint256"}],"outputs":[{"name":"price","type":"uint256","internalType":"uint256"}],"stateMutability":"view"},{"type":"function","name":"getPriceGivenYL","inputs":[{"name":"poolId","type":"uint256","internalType":"uint256"},{"name":"ry","type":"uint256","internalType":"uint256"},{"name":"L","type":"uint256","internalType":"uint256"}],"outputs":[{"name":"price","type":"uint256","internalType":"uint256"}],"stateMutability":"view"},{"type":"function","name":"getReservesAndLiquidity","inputs":[{"name":"poolId","type":"uint256","internalType":"uint256"}],"outputs":[{"name":"","type":"uint256","internalType":"uint256"},{"name":"","type":"uint256","internalType":"uint256"},{"name":"","type":"uint256","internalType":"uint256"}],"stateMutability":"view"},{"type":"function","name":"internalPrice","inputs":[{"name":"poolId","type":"uint256","internalType":"uint256"}],"outputs":[{"name":"price","type":"uint256","internalType":"uint256"}],"stateMutability":"view"},{"type":"function","name":"prepareControllerUpdate","inputs":[{"name":"controller","type":"address","internalType":"address"}],"outputs":[{"name":"","type":"bytes","internalType":"bytes"}],"stateMutability":"pure"},{"type":"function","name":"prepareFeeUpdate","inputs":[{"name":"swapFee","type":"uint256","internalType":"uint256"}],"outputs":[{"name":"","type":"bytes","internalType":"bytes"}],"stateMutability":"pure"},{"type":"function","name":"prepareSigmaUpdate","inputs":[{"name":"targetSigma","type":"uint256","internalType":"uint256"},{"name":"targetTimestamp","type":"uint256","internalType":"uint256"}],"outputs":[{"name":"","type":"bytes","internalType":"bytes"}],"stateMutability":"pure"},{"type":"function","name":"prepareStrikeUpdate","inputs":[{"name":"targetStrike","type":"uint256","internalType":"uint256"},{"name":"targetTimestamp","type":"uint256","internalType":"uint256"}],"outputs":[{"name":"","type":"bytes","internalType":"bytes"}],"stateMutability":"pure"},{"type":"function","name":"prepareTauUpdate","inputs":[{"name":"targetTau","type":"uint256","internalType":"uint256"},{"name":"targetTimestamp","type":"uint256","internalType":"uint256"}],"outputs":[{"name":"","type":"bytes","internalType":"bytes"}],"stateMutability":"pure"},{"type":"function","name":"simulateSwap","inputs":[{"name":"poolId","type":"uint256","internalType":"uint256"},{"name":"swapXIn","type":"bool","internalType":"bool"},{"name":"amountIn","type":"uint256","internalType":"uint256"}],"outputs":[{"name":"","type":"bool","internalType":"bool"},{"name":"","type":"uint256","internalType":"uint256"},{"name":"","type":"uint256","internalType":"uint256"},{"name":"","type":"bytes","internalType":"bytes"}],"stateMutability":"view"},{"type":"function","name":"strategy","inputs":[],"outputs":[{"name":"","type":"address","internalType":"address"}],"stateMutability":"view"},{"type":"error","name":"BisectionLib_InvalidBounds","inputs":[{"name":"lower","type":"uint256","internalType":"uint256"},{"name":"upper","type":"uint256","internalType":"uint256"}]},{"type":"error","name":"BisectionLib_RootOutsideBounds","inputs":[{"name":"lowerResult","type":"int256","internalType":"int256"},{"name":"upperResult","type":"int256","internalType":"int256"}]},{"type":"error","name":"Infinity","inputs":[]},{"type":"error","name":"Min","inputs":[]},{"type":"error","name":"NegativeInfinity","inputs":[]},{"type":"error","name":"OutOfBounds","inputs":[]}],"bytecode":{"object":"0x6080346200007a57601f620037a038819003918201601f19168301916001600160401b038311848410176200007f578084926020946040528339810103126200007a57516001600160a01b038116908190036200007a57600080546001600160a01b03191691909117905560405161370a9081620000968239f35b600080fd5b634e487b7160e01b600052604160045260246000fdfe6080604052600436101561001257600080fd5b60003560e01c80630420580a146101b7578063120649c5146101b2578063134ead12146101ad5780631e978cb0146101a8578063306db46b146101a3578063332266f31461019e5780633928ff97146101995780633b268d5d146101945780633b4d10301461018f5780634e817fd91461018a5780634fd67c58146101855780635eb408fc146101805780636237569f1461017b5780636d652299146101765780637f17409c1461017157806381b5fac21461016c578063902ecaa214610167578063a8c62e7614610162578063af4e437f1461015d578063b09d04e514610158578063cb1f553214610153578063ce153bf41461014e578063e94716d514610149578063ee3e8cfb14610144578063f30d37f21461013f5763f9c282111461013a57600080fd5b610aff565b610acf565b610a9e565b610a63565b610a27565b6109e2565b6109af565b610993565b61096a565b610941565b610914565b610872565b610856565b6107e9565b6107cd565b6107a4565b610788565b610759565b61071e565b61048d565b610436565b610407565b6103e2565b610354565b61028e565b610218565b60005b8381106101cf5750506000910152565b81810151838201526020016101bf565b906020916101f8815180928185528580860191016101bc565b601f01601f1916010190565b9060206102159281815201906101df565b90565b3461026b57604036600319011261026b57610267604051600260208201526004356040820152602435606082015260608152610253816102e9565b6040519182916020835260208301906101df565b0390f35b600080fd5b608090600319011261026b5760043590602435906044359060643590565b3461026b5760206102aa6102a136610270565b92919091610b4d565b604051908152f35b634e487b7160e01b600052604160045260246000fd5b60a0810190811067ffffffffffffffff8211176102e457604052565b6102b2565b6080810190811067ffffffffffffffff8211176102e457604052565b6060810190811067ffffffffffffffff8211176102e457604052565b90601f8019910116810190811067ffffffffffffffff8211176102e457604052565b6001600160a01b0381160361026b57565b3461026b5760e036600319011261026b5760a036604319011261026b576102676103bc604051610383816102c8565b60443581526064356020820152608435604082015260a435606082015260c4356103ac81610343565b608082015260243560043561139a565b60405191829182610204565b606090600319011261026b57600435906024359060443590565b3461026b5760206102aa6104016103f8366103c8565b91929092610f06565b91611583565b3461026b5760206102aa61041a366103c8565b9061042d61042784610f06565b936110d9565b92919091611670565b3461026b5760206102aa610449366103c8565b9061045661042784610f06565b9290506119da565b8015150361026b57565b90926080926102159594151583526020830152604082015281606082015201906101df565b3461026b57606036600319011261026b5761050360243561061f6004356104b38361045e565b604435926104bf610c57565b936104c8610c57565b946104d2846110d9565b60208496939592960194604096878601928352865284526104f287610f06565b998a9185519087519051918a611009565b921561069657928261054a6105519361054361053e61053661056f9861053160606105979d9c0151866125a2565b6125a2565b8651906125f8565b610c9d565b9351610cb0565b8a52610cb0565b61056385890191808352895188610c4a565b90885190519087610b4d565b9061058e6105836020890193808552610c9d565b808452825111610d31565b51905190610d24565b945b84519260c06020870151848801926105df8451976105d18851998a958693602085016040919493926060820195825260208201520152565b03601f198101845283610321565b600054610602906105f6906001600160a01b031681565b6001600160a01b031690565b908651809981948293630d17a7c760e31b84523060048501610dbf565b03915afa94851561069157600095610651575b509061064691610267959651905190611583565b905194859485610468565b61026795509061067c610646939260c03d60c01161068a575b6106748183610321565b810190610d88565b505050505095509091610632565b503d61066a565b610b41565b826106df610718966106d2610704956106cb61053e6106c361070f9a61053160606106fc9b0151866125a2565b8551906125f8565b9251610cb0565b9260208d01938452610cb0565b6106f1888c019180835283518b610de3565b915190519089610df0565b808952610c9d565b808852825111610cbd565b51855190610d24565b94610599565b3461026b57604036600319011261026b57610267604051600460208201526004356040820152602435606082015260608152610253816102e9565b3461026b57602036600319011261026b5760206102aa60043561040161077e826110d9565b9291939050610f06565b3461026b5760206102aa61079e6103f8366103c8565b91611b9c565b3461026b5760206102aa6107b7366103c8565b906107c461042784610f06565b92919091611c16565b3461026b5760206102aa6107e036610270565b92919091610df0565b3461026b57604036600319011261026b5761083860043561026761081a61080f836110d9565b919050602435611f7a565b939092848461083261082b84610f06565b8383611583565b92610b4d565b92604051938493846040919493926060820195825260208201520152565b3461026b57600036600319011261026b57602060405160008152f35b3461026b57604036600319011261026b576004356108c06102676108a2610898846110d9565b9150602435611fa7565b92909383856108ba6108b384610f06565b8383611b9c565b92610df0565b91604051938493846040919493926060820195825260208201520152565b805182526020808201519083015260408082015190830152606080820151908301526080908101516001600160a01b0316910152565b3461026b57602036600319011261026b5760a0610932600435610f06565b61093f60405180926108de565bf35b3461026b5760206102aa610954366103c8565b9061096161042784610f06565b92909150611fce565b3461026b57600036600319011261026b576000546040516001600160a01b039091168152602090f35b3461026b5760206102aa6109a636610270565b92919091611009565b3461026b57602036600319011261026b576102676040516001602082015260043560408201526040815261025381610305565b3461026b57602036600319011261026b57610267600435610a0281610343565b60408051600560208201526001600160a01b0390921682820152815261025381610305565b3461026b57602036600319011261026b57610267610a466004356110d9565b604080519384526020840192909252908201529081906060820190565b3461026b57604036600319011261026b57610267604051600360208201526004356040820152602435606082015260608152610253816102e9565b3461026b57604036600319011261026b5761083860043561026761081a610ac4836110d9565b919050602435611fa7565b3461026b57604036600319011261026b576004356108c06102676108a2610af5846110d9565b9150602435611f7a565b3461026b57600036600319011261026b57602060405160788152f35b9081602091031261026b575190565b6040906102159392815281602082015201906101df565b6040513d6000823e3d90fd5b610b85610bee9493929361053184610b7e610b79610b74610b6d88610f06565b809661230a565b61237f565b6123b2565b92516125a2565b916020604051610bbc81610bae85888a8785016040919493926060820195825260208201520152565b03601f198101835282610321565b600054610bd3906105f6906001600160a01b031681565b6040518080998194622e524b60e01b83528860048401610b2a565b03915afa9182156106915761021595600093610c15575b50610c0f90610f06565b936111f1565b610c0f919350610c3c9060203d602011610c43575b610c348183610321565b810190610b1b565b9290610c05565b503d610c2a565b9161040161021593610f06565b604051906060820182811067ffffffffffffffff8211176102e45760405260006040838281528260208201520152565b634e487b7160e01b600052601160045260246000fd5b9060018201809211610cab57565b610c87565b91908201809211610cab57565b15610cc457565b60405162461bcd60e51b815260206004820152602260248201527f696e76616c696420737761703a2078207265736572766520696e637265617365604482015261642160f01b6064820152608490fd5b6103e719810191908211610cab57565b91908203918211610cab57565b15610d3857565b60405162461bcd60e51b815260206004820152602260248201527f696e76616c696420737761703a2079207265736572766520696e637265617365604482015261642160f01b6064820152608490fd5b91908260c091031261026b578151610d9f8161045e565b9160208101519160408201519160608101519160a0608083015192015190565b610215939260609260018060a01b03168252602082015281604082015201906101df565b9161079e61021593610f06565b92610b79610b74610e0d92949394610e0787610f06565b90612f44565b92670de0b6b3a7640000938403938411610cab57610e2e610e5794836125a2565b916020604051610bbc81610bae8589898785016040919493926060820195825260208201520152565b03915afa9182156106915761021595600093610e7e575b50610e7890610f06565b93611e24565b610e78919350610e9c9060203d602011610c4357610c348183610321565b9290610e6e565b91908260a091031261026b57604051610ebb816102c8565b608080829480518452602081015160208501526040810151604085015260608101516060850152015191610eee83610343565b0152565b9060a08282031261026b5761021591610ea3565b90604051610f13816102c8565b600090818152816080602092828482015282604082015282606082015201528160018060a01b038154169460246040518097819363dc17835560e01b835260048301525afa918215610691578092610f7a575b506102159293508082518301019101610ef2565b9091503d8082863e610f8c8186610321565b840190828583031261100257845167ffffffffffffffff9586821161100557019082601f830112156110025781519586116102e45760405192610fd8601f8801601f1916860185610321565b86845284878401011161100257506102159394610ffa918480850191016101bc565b908392610f66565b80fd5b8280fd5b61105d939192602060405161103781610bae87868a8785016040919493926060820195825260208201520152565b60018060a01b03600054166040518080998194622e524b60e01b83528860048401610b2a565b03915afa9182156106915761021595600093611084575b5061107e90610f06565b936121b4565b61107e9193506110a29060203d602011610c4357610c348183610321565b9290611074565b9081602091031261026b575161021581610343565b9081606091031261026b578051916040602083015192015190565b90600460206110f56105f66105f660005460018060a01b031690565b604051632bee84f160e21b815292839182905afa928315610691576111409360609260009161119d575b5060405180809681946333854efd60e21b8352600483019190602083019252565b03916001600160a01b03165afa9081156106915760008093600093611166575b50929190565b9193505061118c915060603d606011611196575b6111848183610321565b8101906110be565b9290929138611160565b503d61117a565b6111bf915060203d6020116111c5575b6111b78183610321565b8101906110a9565b3861111f565b503d6111ad565b6111ef9360609296959361010083019783526020830152604082015201906108de565b565b929360009385929185851215611367575b8585126113485790610bae611224925b604096604051958694602086016111cc565b81859285968281116113255761123a818561337f565b92611245818661337f565b88611250828761152f565b136113045750906112649197969297610d24565b60019591829187805b61127f575b5050505050505050505090565b156112e0575b5086979850819261129f6112998b89610cb0565b60011c90565b996112aa8b8861337f565b90846112b6888461152f565b136112d457505089935b886112cb8987610d24565b9201949961126d565b8b9850909550936112c0565b601410806112fb575b156112f45788611285565b8080611272565b508083106112e9565b6040516306f1be5d60e21b8152600481018690526024810191909152604490fd5b604051633082dfdb60e11b81526004810191909152602481019290925250604490fd5b935091611354906125ce565b91611361848385846124a9565b93611202565b85851361137b5790610bae61122492611212565b935094611387906123f5565b94611394848388846124a9565b93611367565b916113ab610b79610b748385612f44565b91670de0b6b3a7640000928303928311610cab57611402826113ee6113e3610b79610b74846113dd6114209a8c6125f8565b9761230a565b6105318584516125a2565b926113fb8282868a6124a9565b84886121b4565b906040519460208601526040850152606084015260808301906108de565b6101008152610120810181811067ffffffffffffffff8211176102e45760405290565b90670de0b6b3a764000060008382039312818412811691841390151617610cab57565b90671bc16d674ec8000060008382039312818412811691841390151617610cab57565b9067119000ab100ffbff198201918213600116610cab57565b81810392916000138015828513169184121617610cab57565b90670de0b6b3a764000091828102928184051490151715610cab57565b90671bc16d674ec8000091828102928184051490151715610cab57565b90633b9aca0091828102928184051490151715610cab57565b60008190039190600160ff1b8114600116610cab57600019830503610cab57565b818102929160008212600160ff1b821416610cab578184051490151715610cab57565b811561156d57600160ff1b8114600019831416610cab570590565b634e487b7160e01b600052601260045260246000fd5b9190916115be60208301936115b885516115b06115a66040880192835190612843565b975182519061286c565b905190612414565b92612435565b92670de0b6b3a76400008085121561163c5760008513156116315760008582039512818612811691861390151617610cab5761162561162a92611620611612610b799461160d6102159961288b565b61152f565b670de0b6b3a7640000900590565b6114a2565b612917565b90516125a2565b505050505060001990565b5050505050600090565b90959492936111ef94608093610120840198845260208401526040830152606082015201906108de565b909291828651602088015160408901519060608a01519261169083612ac8565b6116999061185a565b936116a390611443565b906116ad8a612b86565b6116b68b611981565b6116bf91612c38565b6116c88b611981565b6116d184612bb5565b6116da916114a2565b6116e49088612c38565b6116ed91612cb5565b6116f690612cd3565b9361170084612fbb565b611709906114d8565b670de0b6b3a7640000900561171d90612917565b9061172791612c38565b61173090612c67565b611739906119c9565b848661174486612c09565b9061174e91612c38565b9061175891612c38565b611761916119ad565b61176a90612917565b826117758c84612c38565b9061177f91612c38565b61178891612c38565b6117918b611981565b61179a84612bb5565b6117a3916114a2565b6117ac91612cb5565b956117b691612c38565b906117c090611993565b6117c991612c38565b926117d391612c38565b6117dc90612c8e565b906117e6916114a2565b6117ef90612e24565b6117f891612c38565b61180186612b86565b61180a91612cb5565b90611814846119c9565b9061181e916119ad565b90611828916119ad565b60001361184f576102159561184a93610bae9260405196879560208701611646565b61264d565b505050505050600090565b90633b9aca0091828102928184041490151715610cab57565b9081672005fe4f268ea00001918212600116610cab57565b9081670dc5527f642c200001918212600116610cab57565b9081670de0b6b3a764000001918212600116610cab57565b9081670b68df18e471fbff190191821215600116610cab57565b90816714a8454c19e1ac0001918212600116610cab57565b9081670fc10e01578277ff190191821215600116610cab57565b90816703debd083b8c7c0001918212600116610cab57565b9081670295d400ea3257ff190191821215600116610cab57565b9081670157d8b2ecc7080001918212600116610cab57565b90816705310aa7d521300001918212600116610cab57565b9081670de0cc3d1561000001918212600116610cab57565b90816103e801918212600116610cab57565b9081670de0b6b3a763ffff190191821215600116610cab57565b91909160008382019384129112908015821691151617610cab57565b600160ff1b8114610cab5760000390565b939290919280519160208201519060408301519260600151936119fc84612ac8565b611a059061185a565b94611a0f90611443565b9182611a1a88612b86565b611a2489846119ad565b611a2d91612c38565b611a3789846119ad565b611a418385612c38565b611a4a916114a2565b611a54908b612c38565b611a5d91612cb5565b611a6690612cd3565b95611a7086612fbb565b611a79906114d8565b670de0b6b3a76400009005611a8d90612917565b90611a9791612c38565b611aa090612c67565b611aa9906119c9565b8688611ab488612c09565b90611abe91612c38565b90611ac891612c38565b611ad1916119ad565b611ada90612917565b81611ae58a86612c38565b90611aef91612c38565b611af891612c38565b91611b0389826119ad565b91611b0d91612c38565b611b16916114a2565b611b1f91612cb5565b96611b2991612c38565b90611b3390611993565b611b3c91612c38565b92611b4691612c38565b611b4f90612c8e565b90611b59916114a2565b611b6290612e24565b611b6b91612c38565b90611b7590612b86565b611b7e91612cb5565b91611b88906119c9565b90611b92916119ad565b90610215916119ad565b919091611bda6020830191611bd4611bcc84516115b0611bc26040890192835190612843565b965182519061286c565b958551612414565b90612435565b670de0b6b3a7640000918282121561163c576000821315611631576102159461162a93611c106116259361160d610b799661288b565b056119ad565b909291855160208701516040880151606089015191611c3482612ac8565b611c3d9061185a565b92611c4790611443565b93611c5186612b86565b611c5a87611981565b611c6391612c38565b611c6d8983612c38565b611c7688611981565b611c7f91612c38565b611c88906119c9565b86611c938b85612c38565b611c9c90612bde565b90611ca691612c38565b611caf916119ad565b611cb891612cb5565b611cc1906119c9565b611cca90612cd3565b92611cd483612fbb565b611cdd906114d8565b670de0b6b3a76400009005611cf190612917565b90611cfb91612c38565b611d0490612c67565b611d0d906119c9565b8385611d1885612c09565b90611d2291612c38565b90611d2c91612c38565b611d35916119ad565b611d3e90612917565b85611d49888a612c38565b90611d5391612c38565b611d5c91612c38565b90611d6687611981565b611d6f87612bb5565b611d78916114a2565b611d8191612c38565b611d8a91612cb5565b93611d958789612c38565b90611d9f90611993565b611da891612c38565b92611db291612c38565b611dbb90612c8e565b90611dc5916114a2565b611dce90612e24565b611dd791612c38565b611de083612b86565b611de991612cb5565b90611df390611993565b90611dfd916119ad565b60001361184f5761021595611e1f93610bae9260405196879560208701611646565b61276c565b929360009385929185851215611f47575b858512611f285790610bae611e5692604096604051958694602086016111cc565b818592859682811161132557611e6c81856133a0565b92611e7781866133a0565b88611e82828761152f565b13611304575090611e969197969297610d24565b60019591829187805b611eb0575050505050505050505090565b15611f0b575b50869798508192611eca6112998b89610cb0565b99611ed58b886133a0565b9084611ee1888461152f565b13611eff57505089935b88611ef68987610d24565b92019499611e9f565b8b985090955093611eeb565b60141080611f1f575b156112f45788611eb6565b50808310611f14565b935091611f34906125ce565b91611f41848383866124a9565b93611e35565b858513611f5b5790610bae611e5692611212565b935094611f67906123f5565b94611f74848383896124a9565b93611f47565b929190611f90611f8a82846125f8565b856125a2565b938103908111610cab57928103908111610cab5790565b929190611fb7611f8a82846125f8565b938101809111610cab57928101809111610cab5790565b9390929181516020830151916040840151936060015194611fee85612ac8565b611ff79061185a565b9561200190611443565b928361200c89612b86565b6120168a856119ad565b61201f91612c38565b6120298584612c38565b6120338b866119ad565b61203c91612c38565b612045906119c9565b82856120518887612c38565b9061205b91612c38565b9061206591612c38565b61206e916119ad565b61207791612cb5565b612080906119c9565b61208990612cd3565b9661209387612fbb565b61209c906114d8565b670de0b6b3a764000090056120b090612917565b906120ba91612c38565b6120c390612c67565b6120cc906119c9565b87896120d789612c09565b906120e191612c38565b906120eb91612c38565b6120f4916119ad565b6120fd90612917565b816121088b8d612c38565b9061211291612c38565b61211b91612c38565b926121268a826119ad565b9161213091612c38565b612139916114a2565b61214291612c38565b61214b91612cb5565b9661215591612c38565b9061215f90611993565b61216891612c38565b9261217291612c38565b61217b90612c8e565b90612185916114a2565b61218e90612e24565b61219791612c38565b906121a190612b86565b6121aa91612cb5565b90611b9290611993565b9293600093859291858512156122d7575b8585126122b85790610bae6121e692604096604051958694602086016111cc565b8185928596828111611325576121fc81856133c2565b9261220781866133c2565b88612212828761152f565b136113045750906122269197969297610d24565b60019591829187805b612240575050505050505050505090565b1561229b575b5086979850819261225a6112998b89610cb0565b996122658b886133c2565b9084612271888461152f565b1361228f57505089935b886122868987610d24565b9201949961222f565b8b98509095509361227b565b601410806122af575b156112f45788612246565b508083106122a4565b9350946122c4906123f5565b946122d1848784846124a9565b936121c5565b8585136122eb5790610bae6121e692611212565b9350916122f7906125ce565b91612304848484846124a9565b936122d7565b61237a6123756102159361236f61236a8251612365670de0b6b3a764000061235f61235a61235461234f604060208b01519a015196612349888c612843565b9d6125f8565b612fbb565b97612fbb565b6114d8565b05612917565b612414565b612457565b906114a2565b6114bb565b611552565b6123ae6123756123a96713a04bbdfdc9be886123a3671bc16d674ec80000956114bb565b056119c9565b612e24565b0590565b600081126123bd5790565b60405162461bcd60e51b815260206004820152601060248201526f746f55696e743a206e6567617469766560801b6044820152606490fd5b6103e79081810291818304149015176001161561026b576103e8900490565b81810291818304149015176001161561026b57670de0b6b3a7640000900490565b670de0b6b3a7640000908181029181830414901517821515161561026b570490565b6706f05b59d3b2000090808202918204146001161561026b57670de0b6b3a7640000900490565b670de0b6b3a76400009081810291818304149015176001161561026b57671bc16d674ec80000900490565b90928282101561255d57610215936125269284670de0b6b3a764000091826124d18383612435565b1061254a57506001600160ff1b039590505b8351916124f96124f38385612414565b85612435565b1061252b57506001600160ff1b0392612520925090505b6040602082015191015190612843565b926119ad565b6119ad565b61252092611bd461253f9261254494612414565b61288b565b91612510565b6125579161253f91612435565b946124e3565b60405162461bcd60e51b815260206004820152601a60248201527f74726164696e6746756e6374696f6e3a20696e76616c696420780000000000006044820152606490fd5b81810291818304149015176001161561026b576001670de0b6b3a7640000600019830104019015150290565b6103e99081810291818304149015176001161561026b5760016103e8600019830104019015150290565b90670de0b6b3a7640000918281029281840414901517811515161561026b57600190600019830104019015150290565b6101008183031261026b57805192610215602083015193606060408501519401610ea3565b91906103e89260009360009183821161274b57612669816133e2565b6126738583613521565b600061267f828461152f565b1361272c5750612690859695610d14565b60019460009186805b6126aa575b50505050505050509050565b15612707575b50859697985080916126c56112998b88610cb0565b996126d08b87613521565b90836126dc878461152f565b136126fb57505089925b876126f18886610d24565b9201939998612699565b8b9750909450926126e6565b861080612721575b1561271a57886126b0565b808061269e565b50610100821061270f565b6040516306f1be5d60e21b815260048101929092526024820152604490fd5b604051633082dfdb60e11b81526103e8600482015260248101859052604490fd5b91906103e89260009360009183821161274b5761278881613543565b61279285836136b3565b600061279e828461152f565b1361272c57506127af859695610d14565b60019460009186805b6127c85750505050505050509050565b15612825575b50859697985080916127e36112998b88610cb0565b996127ee8b876136b3565b90836127fa878461152f565b1361281957505089925b8761280f8886610d24565b92019399986127b8565b8b975090945092612804565b861080612838575b1561271a57886127ce565b50610100821061282d565b9061284d90612ac8565b633b9aca0090818102918183041490151715610cab5761021591612414565b61021591612365670de0b6b3a764000061235f61235a61236a95612fbb565b6706f05b59d3b20000811461291157670de0b6b3a764000090818112156128ff5780156128ed578060011b908105600203610cab576128c990612cd3565b906713a04bbdfdc9be8891808302928305146001161561026b5761021591056119c9565b6040516322ed598560e21b8152600490fd5b6040516307a0212760e01b8152600490fd5b50600090565b680248ce36a70cb26b3e1981131561291157680755bf798b4a1bf1e5811215612a67576503782dace9d990604e1b0574029d9dc38563c32e5c2f6dc192ee70ef65f9978af36bb17217f7d1cf79abc9e3b398916060906001605f1b8482841b0501821d9384029003806c10fe68e7fd37d0007b713f7650810102821d906e0587f503bb6ea29d25fcb7401964506e05180bb14799ab47a8a8cb2a527d57826e02c72388d9f74f51a9331fed693f1419816db1bbb201f443cf962f1a1d3db4a5816d1a521255e34f6a5061b25ef1c9c319816d0277594991cfc85f6e2461837cd9816c240c330e9fb2d9cbaf0fd5aafb198101028d1d01028b1d0102891d0102871d0102851d01936d360d7aeea093263ecc6e0ecb291760621b936d02d16720577bd19bf614176fe9ea810190846d01d3967ed30fc4f89c02bab570811991010102901d01020105029060c3031c90565b60405162461bcd60e51b815260206004820152600c60248201526b4558505f4f564552464c4f5760a01b6044820152606490fd5b91906101208382031261026b57825192602081015192610215604083015193608060608501519401610ea3565b60b581600160881b811015612b6f575b80690100000000000000000062010000921015612b62575b65010000000000811015612b55575b6301000000811015612b48575b010260121c60019080830401811c80830401811c80830401811c80830401811c80830401811c80830401811c80830401901c8080920410900390565b60101c9160081b91612b0c565b60201c9160101b91612aff565b60401c9160201b91612af0565b5068b500000000000000009050608082901c612ad8565b671bc16d674ec8000081810291600160ff1b811360011791830514161561026b57670de0b6b3a7640000900590565b6103e881810291600160ff1b811360011791830514161561026b57670de0b6b3a7640000900590565b6103e88082029160016000198210179181840514901517161561026b57670de0b6b3a7640000900590565b6713a04bbde78cc40081810291600160ff1b811360011791830514161561026b57670de0b6b3a7640000900590565b818102918115828405821417600019909210600160ff1b90911317161561026b57670de0b6b3a7640000900590565b670de0b6b3a764000090818102918205146001161561026b57671bc16d674ec80000900590565b670de0b6b3a764000090818102918205146001161561026b576713a04bbde78cc400900590565b670de0b6b3a76400009081810291820514821515161561026b570590565b600081128015612e13575b612e015780156128ff57671bc16d674ec8000081146128ed57670de0b6b3a76400008112908115612df257905b612d1482613189565b80156128ff57612d7d612d41612d3c612d37612d32612d8295612fbb565b61324a565b612ac8565b6114f5565b611620612d55612d50836131b4565b611873565b612d77612d72612d6c612d67866131df565b61188b565b856132c1565b6118a3565b90613228565b613272565b916000905b60028210612da257505015612d995790565b610215906119c9565b9092612dea81612de4612dba85611620600196612e24565b612d77612dda612dd5611625612dd087806132c1565b6119c9565b61329a565b61236f83866132c1565b906119ad565b930190612d87565b612dfb90611466565b90612d0b565b604051632d0483c560e21b8152600490fd5b50671bc16d674ec800008113612cde565b8015612f3757675698eef06670000081121561291157675698eef0666fffff19811315612f2a576000612f1a612e598361315c565b612ee2611625612e73612e6e612d728561247e565b613209565b92612526612f15612f10612f09612f03612efe612ef8612ef3612eed612ee88d612ee2612edd612ed7612ed2612d6c612ecd612ec7612ec2612ebc612eb78a6132e2565b6118bb565b896132c1565b6118d5565b876132c1565b6118ed565b611907565b836132c1565b61191f565b906132c1565b611939565b8c6132c1565b611951565b8a6132c1565b611969565b886132c1565b93806132c1565b61150e565b611489565b9112156102155761021590611466565b50671bc16d674ec8000090565b50670de0b6b3a764000090565b61237a61237561021593612de461236a8251612365670de0b6b3a764000061235f61235a61235461234f604060208b01519a015196612349888c612843565b15612f8a57565b60405162461bcd60e51b815260206004820152600960248201526815539111519253915160ba1b6044820152606490fd5b7d57115e47018c7177eebf7cd370a3356a1b7863008a5ae8028c72b886428490612fe760008213612f83565b711340daa0d5f769dba1915cef59f0815a55066130038261330d565b6060928382609f03011b609f1c90605f19017d0267a36c0c95b3975ab3ee5b203a7614a3f75373f047d803ae7b6687f2b302926c0b7a86d7375468fac667a0a527826d01920d8043ca89b5239253284e42816d0a0f742023def783a307a986912e816d13cdffb29d51d99322bdff5f2211816d0df99ac502031bf953eff472fdcc816d0388eaa27412d5aca026815d636e816c465772b2bbbb5f824b15207a308101028c1d01028a1d0102881d0102861d0102841d0102821d0191780a09507084cc699bb0e71ea869ffffffffffffffffffffffff19916cb9a025d814b29c212b8b1a07cd1990826d02384773bdf1ac5676facced609019816c8c3f38e95a6b1ff2ab1c3b343619816d02247f7a7b6594320649aa03aba1816d0139601a2efabe717e604cbb4894816c29508e458543d8aa4df2abee78810102891d0102871d0102851d0102831d0102901d0102010502010160ae1d90565b600160ff1b8114613177576000811215610215571960010190565b604051634d2d75b160e01b8152600490fd5b670de0b6b3a76400009081810291818305149015176001161561026b57671bc16d674ec80000900590565b6703c1665c7aab20009081810291818305149015176001161561026b57670de0b6b3a7640000900590565b669f32752462a0009081810291818305149015176001161561026b57670de0b6b3a7640000900590565b6001811515161561026b576ec097ce7bc90715b34b9f10000000000590565b670de0b6b3a7640000908181029181830514901517821515161561026b570590565b671bc16d674ec7ffff1981810291600191830514161561026b57670de0b6b3a7640000900590565b6709d028cc6f205fff1981810291600191830514161561026b57670de0b6b3a7640000900590565b670fa8cedfc2adddfa90808202918205146001161561026b57670de0b6b3a7640000900590565b81810291818305149015176001161561026b57670de0b6b3a7640000900590565b67025f0fe105a314009081810291818305149015176001161561026b57670de0b6b3a7640000900590565b613318811515612f83565b806fffffffffffffffffffffffffffffffff1060071b81811c67ffffffffffffffff1060061b1781811c63ffffffff1060051b1781811c61ffff1060041b1781811c60ff1060031b1781811c600f1060021b1781811c60031060011b1790811c6001101790565b906133966102159260208082518301019101612628565b93919290506124a9565b906133b76102159260208082518301019101612628565b9390509190916124a9565b906133d96102159260208082518301019101612628565b939290506124a9565b8051810160200190602001906133f791612a9b565b809193925051906020810151604082015191606001519261341783612ac8565b6134209061185a565b9361342a90611443565b9061343486612b86565b61343d87611981565b61344691612c38565b61344f87611981565b61345884612bb5565b613461916114a2565b61346b9089612c38565b61347491612cb5565b61347d90612cd3565b9361348784612fbb565b613490906114d8565b670de0b6b3a764000090056134a490612917565b906134ae91612c38565b6134b790612c67565b6134c0906119c9565b84866134cb86612c09565b906134d591612c38565b906134df91612c38565b6134e8916119ad565b6134f190612917565b826134fc8884612c38565b9061350691612c38565b61350f91612c38565b61351887611981565b611b0d84612bb5565b906135386102159260208082518301019101612a9b565b9493909291506119da565b80518101602001906020019061355891612a9b565b809192935051602082015190604083015192606001519361357884612ac8565b6135819061185a565b9461358b90611443565b9161359587612b86565b61359e88611981565b6135a791612c38565b6135b18383612c38565b6135ba89611981565b6135c391612c38565b6135cc906119c9565b846135d78585612c38565b6135e090612bde565b906135ea91612c38565b6135f3916119ad565b6135fc91612cb5565b613605906119c9565b61360e90612cd3565b9461361885612fbb565b613621906114d8565b670de0b6b3a7640000900561363590612917565b9061363f91612c38565b61364890612c67565b613651906119c9565b858761365c87612c09565b9061366691612c38565b9061367091612c38565b613679916119ad565b61368290612917565b8361368d898b612c38565b9061369791612c38565b6136a091612c38565b906136aa88611981565b61213085612bb5565b906136ca6102159260208082518301019101612a9b565b9493909250611fce56fea2646970667358221220f3e875cd9c43c4535da38090630f644037f96036f7dad55519e2d7d792047e4b64736f6c63430008160033","linkReferences":{}},"methodIdentifiers":{"BISECTION_EPSILON()":"6d652299","MAX_BISECTION_ITERS()":"f9c28211","allocateGivenX(uint256,uint256)":"ee3e8cfb","allocateGivenY(uint256,uint256)":"7f17409c","calculateDiffLower(uint256,uint256,uint256)":"332266f3","calculateDiffRaise(uint256,uint256,uint256)":"902ecaa2","computeOptimalArbLowerPrice(uint256,uint256,uint256)":"306db46b","computeOptimalArbRaisePrice(uint256,uint256,uint256)":"4fd67c58","deallocateGivenX(uint256,uint256)":"6237569f","deallocateGivenY(uint256,uint256)":"f30d37f2","fetchPoolParams(uint256)":"81b5fac2","getInitialPoolData(uint256,uint256,(uint256,uint256,uint256,uint256,address))":"134ead12","getNextLiquidity(uint256,uint256,uint256,uint256)":"af4e437f","getNextReserveX(uint256,uint256,uint256,uint256)":"5eb408fc","getNextReserveY(uint256,uint256,uint256,uint256)":"120649c5","getPriceGivenXL(uint256,uint256,uint256)":"1e978cb0","getPriceGivenYL(uint256,uint256,uint256)":"4e817fd9","getReservesAndLiquidity(uint256)":"ce153bf4","internalPrice(uint256)":"3b4d1030","prepareControllerUpdate(address)":"cb1f5532","prepareFeeUpdate(uint256)":"b09d04e5","prepareSigmaUpdate(uint256,uint256)":"e94716d5","prepareStrikeUpdate(uint256,uint256)":"0420580a","prepareTauUpdate(uint256,uint256)":"3b268d5d","simulateSwap(uint256,bool,uint256)":"3928ff97","strategy()":"a8c62e76"},"id":38}