{"abi":[{"type":"constructor","inputs":[],"stateMutability":"nonpayable"},{"type":"function","name":"cdf","inputs":[{"name":"input","type":"int256","internalType":"int256"}],"outputs":[{"name":"output","type":"int256","internalType":"int256"}],"stateMutability":"pure"},{"type":"function","name":"divWadDown","inputs":[{"name":"x","type":"uint256","internalType":"uint256"},{"name":"y","type":"uint256","internalType":"uint256"}],"outputs":[{"name":"z","type":"uint256","internalType":"uint256"}],"stateMutability":"pure"},{"type":"function","name":"divWadUp","inputs":[{"name":"x","type":"uint256","internalType":"uint256"},{"name":"y","type":"uint256","internalType":"uint256"}],"outputs":[{"name":"z","type":"uint256","internalType":"uint256"}],"stateMutability":"pure"},{"type":"function","name":"log","inputs":[{"name":"x","type":"int256","internalType":"int256"}],"outputs":[{"name":"z","type":"int256","internalType":"int256"}],"stateMutability":"pure"},{"type":"function","name":"mulWadDown","inputs":[{"name":"x","type":"uint256","internalType":"uint256"},{"name":"y","type":"uint256","internalType":"uint256"}],"outputs":[{"name":"z","type":"uint256","internalType":"uint256"}],"stateMutability":"pure"},{"type":"function","name":"mulWadUp","inputs":[{"name":"x","type":"uint256","internalType":"uint256"},{"name":"y","type":"uint256","internalType":"uint256"}],"outputs":[{"name":"z","type":"uint256","internalType":"uint256"}],"stateMutability":"pure"},{"type":"function","name":"pdf","inputs":[{"name":"input","type":"int256","internalType":"int256"}],"outputs":[{"name":"output","type":"int256","internalType":"int256"}],"stateMutability":"pure"},{"type":"function","name":"pow","inputs":[{"name":"x","type":"int256","internalType":"int256"},{"name":"y","type":"int256","internalType":"int256"}],"outputs":[{"name":"z","type":"int256","internalType":"int256"}],"stateMutability":"pure"},{"type":"function","name":"ppf","inputs":[{"name":"input","type":"int256","internalType":"int256"}],"outputs":[{"name":"output","type":"int256","internalType":"int256"}],"stateMutability":"pure"},{"type":"function","name":"sqrt","inputs":[{"name":"x","type":"uint256","internalType":"uint256"}],"outputs":[{"name":"z","type":"uint256","internalType":"uint256"}],"stateMutability":"pure"},{"type":"error","name":"Infinity","inputs":[]},{"type":"error","name":"Min","inputs":[]},{"type":"error","name":"NegativeInfinity","inputs":[]},{"type":"error","name":"OutOfBounds","inputs":[]}],"bytecode":{"object":"0x6080806040523461001657610ee6908161001c8239f35b600080fdfe6080604052600436101561001257600080fd5b60003560e01c80632d5b6cb9146100b75780633679723a146100b257806337c6a44a146100ad578063677342ce146100a857806392b0c5b2146100a3578063ae9768a81461009e578063bd252d0614610099578063d0b71b1e14610094578063d24ce6e51461008f5763e524f8491461008a57600080fd5b6102c0565b610286565b610234565b6101e7565b61019b565b610160565b610142565b610100565b6100e2565b346100dd5760203660031901126100dd5760206100d5600435610338565b604051908152f35b600080fd5b346100dd5760203660031901126100dd5760206100d560043561057f565b346100dd5760403660031901126100dd5760043560243590670de0b6b3a764000090818102918183041490151782151516156100dd5760209160405191048152f35b346100dd5760203660031901126100dd5760206100d5600435610755565b346100dd5760403660031901126100dd5760206100d5670de0b6b3a7640000610195602435610190600435610338565b61054b565b05610a2f565b346100dd5760403660031901126100dd57600435602435908181029181830414901517600116156100dd57602090604051906001670de0b6b3a764000060001983010401901515028152f35b346100dd5760403660031901126100dd57600435602435670de0b6b3a764000091828102928184041490151781151516156100dd5760209160016040519260001983010401901515028152f35b346100dd5760203660031901126100dd576020671bc16d674ec8000061027d6102786102736713a04bbdfdc9be8861026d6004356104ef565b0561056e565b610bb3565b6104ef565b05604051908152f35b346100dd5760203660031901126100dd5760206722c955229554c1b661027d610278671bc16d674ec800006101956004356101908161056e565b346100dd5760403660031901126100dd57600435602435908181029181830414901517600116156100dd57602090670de0b6b3a764000060405191048152f35b1561030757565b60405162461bcd60e51b815260206004820152600960248201526815539111519253915160ba1b6044820152606490fd5b7d57115e47018c7177eebf7cd370a3356a1b7863008a5ae8028c72b88642849061036460008213610300565b711340daa0d5f769dba1915cef59f0815a550661038082610813565b6060928382609f03011b609f1c90605f19017d0267a36c0c95b3975ab3ee5b203a7614a3f75373f047d803ae7b6687f2b302926c0b7a86d7375468fac667a0a527826d01920d8043ca89b5239253284e42816d0a0f742023def783a307a986912e816d13cdffb29d51d99322bdff5f2211816d0df99ac502031bf953eff472fdcc816d0388eaa27412d5aca026815d636e816c465772b2bbbb5f824b15207a308101028c1d01028a1d0102881d0102861d0102841d0102821d0191780a09507084cc699bb0e71ea869ffffffffffffffffffffffff19916cb9a025d814b29c212b8b1a07cd1990826d02384773bdf1ac5676facced609019816c8c3f38e95a6b1ff2ab1c3b343619816d02247f7a7b6594320649aa03aba1816d0139601a2efabe717e604cbb4894816c29508e458543d8aa4df2abee78810102891d0102871d0102851d0102831d0102901d0102010502010160ae1d90565b634e487b7160e01b600052601160045260246000fd5b90670de0b6b3a76400009182810292818405149015171561050c57565b6104d9565b90633b9aca009182810292818405149015171561050c57565b60008190039190600160ff1b811460011661050c5760001983050361050c57565b818102929160008212600160ff1b82141661050c57818405149015171561050c57565b600160ff1b811461050c5760000390565b6706f05b59d3b20000811461074f57670de0b6b3a7640000808212156106f957811561071a5760018260011b91600293830560020361050c5760008312801561073e575b61072c5782156106f957671bc16d674ec80000831461071a57821291821561070b57925b6105f084610cff565b80156106f95761066261062161061c6106176106126106679599979699610338565b610dc0565b610755565b610511565b61065d61063561063083610d2a565b6108da565b61065761065261064c61064786610d55565b6108f2565b85610e37565b61090a565b90610d9e565b6108c1565b610de8565b936000925b8184106106a157505050506106909161068b9160001461069357610cd8565b61056e565b90565b61069c9061056e565b610cd8565b90916106ef866106e96106b98561065d86999b610bb3565b6106576106d96106d46106cf61068b8780610e37565b610a2f565b610e10565b6106e38386610e37565b906108c1565b906109e8565b950192919061066c565b6040516307a0212760e01b8152600490fd5b61071490610885565b926105e7565b6040516322ed598560e21b8152600490fd5b604051632d0483c560e21b8152600490fd5b50671bc16d674ec8000083136105c3565b50600090565b60b581600160881b8110156107fc575b806901000000000000000000620100009210156107ef575b650100000000008110156107e2575b63010000008110156107d5575b010260121c60019080830401811c80830401811c80830401811c80830401811c80830401811c80830401811c80830401901c8080920410900390565b60101c9160081b91610799565b60201c9160101b9161078c565b60401c9160201b9161077d565b5068b500000000000000009050608082901c610765565b61081e811515610300565b806fffffffffffffffffffffffffffffffff1060071b81811c67ffffffffffffffff1060061b1781811c63ffffffff1060051b1781811c61ffff1060041b1781811c60ff1060031b1781811c600f1060021b1781811c60031060011b1790811c6001101790565b90671bc16d674ec800006000838203931281841281169184139015161761050c57565b9067119000ab100ffbff19820191821360011661050c57565b8181039291600013801582851316918412161761050c57565b9081672005fe4f268ea0000191821260011661050c57565b9081670dc5527f642c20000191821260011661050c57565b9081670de0b6b3a76400000191821260011661050c57565b9081670b68df18e471fbff19019182121560011661050c57565b90816714a8454c19e1ac000191821260011661050c57565b9081670fc10e01578277ff19019182121560011661050c57565b90816703debd083b8c7c000191821260011661050c57565b9081670295d400ea3257ff19019182121560011661050c57565b9081670157d8b2ecc708000191821260011661050c57565b90816705310aa7d52130000191821260011661050c57565b9081670de0cc3d156100000191821260011661050c57565b9190916000838201938412911290801582169115161761050c57565b670de0b6b3a7640000908181029181830414901517600116156100dd57671bc16d674ec80000900490565b680248ce36a70cb26b3e1981131561074f57680755bf798b4a1bf1e5811215610b7f576503782dace9d990604e1b0574029d9dc38563c32e5c2f6dc192ee70ef65f9978af36bb17217f7d1cf79abc9e3b398916060906001605f1b8482841b0501821d9384029003806c10fe68e7fd37d0007b713f7650810102821d906e0587f503bb6ea29d25fcb7401964506e05180bb14799ab47a8a8cb2a527d57826e02c72388d9f74f51a9331fed693f1419816db1bbb201f443cf962f1a1d3db4a5816d1a521255e34f6a5061b25ef1c9c319816d0277594991cfc85f6e2461837cd9816c240c330e9fb2d9cbaf0fd5aafb198101028d1d01028b1d0102891d0102871d0102851d01936d360d7aeea093263ecc6e0ecb291760621b936d02d16720577bd19bf614176fe9ea810190846d01d3967ed30fc4f89c02bab570811991010102901d01020105029060c3031c90565b60405162461bcd60e51b815260206004820152600c60248201526b4558505f4f564552464c4f5760a01b6044820152606490fd5b8015610ccb57675698eef06670000081121561074f57675698eef0666fffff19811315610cbe576000610cae610be883610e83565b610c716106cf610c02610bfd61065285610a04565b610d7f565b92610ca9610ca4610c9f610c98610c92610c8d610c87610c82610c7c610c778d610c71610c6c610c66610c6161064c610c5c610c56610c51610c4b610c468a610e58565b610922565b89610e37565b61093c565b87610e37565b610954565b61096e565b83610e37565b610986565b90610e37565b6109a0565b8c610e37565b6109b8565b8a610e37565b6109d0565b88610e37565b9380610e37565b61052a565b6108a8565b6109e8565b9112156106905761069090610885565b50671bc16d674ec8000090565b50670de0b6b3a764000090565b6713a04bbdfdc9be889080820291820514600116156100dd57670de0b6b3a7640000900590565b670de0b6b3a7640000908181029181830514901517600116156100dd57671bc16d674ec80000900590565b6703c1665c7aab2000908181029181830514901517600116156100dd57670de0b6b3a7640000900590565b669f32752462a000908181029181830514901517600116156100dd57670de0b6b3a7640000900590565b600181151516156100dd576ec097ce7bc90715b34b9f10000000000590565b670de0b6b3a764000090818102918183051490151782151516156100dd570590565b671bc16d674ec7ffff198181029160019183051416156100dd57670de0b6b3a7640000900590565b6709d028cc6f205fff198181029160019183051416156100dd57670de0b6b3a7640000900590565b670fa8cedfc2adddfa9080820291820514600116156100dd57670de0b6b3a7640000900590565b8181029181830514901517600116156100dd57670de0b6b3a7640000900590565b67025f0fe105a31400908181029181830514901517600116156100dd57670de0b6b3a7640000900590565b600160ff1b8114610e9e576000811215610690571960010190565b604051634d2d75b160e01b8152600490fdfea26469706673582212207eefcc35928418e86b3d58b8a795e6b6ccd74a9af75bb2aeb388c1c00918118364736f6c63430008160033","linkReferences":{}},"methodIdentifiers":{"cdf(int256)":"d0b71b1e","divWadDown(uint256,uint256)":"37c6a44a","divWadUp(uint256,uint256)":"bd252d06","log(int256)":"2d5b6cb9","mulWadDown(uint256,uint256)":"e524f849","mulWadUp(uint256,uint256)":"ae9768a8","pdf(int256)":"d24ce6e5","pow(int256,int256)":"92b0c5b2","ppf(int256)":"3679723a","sqrt(uint256)":"677342ce"},"id":52}