{"abi":[{"type":"constructor","inputs":[{"name":"arbiterTokenX_","type":"address","internalType":"address"},{"name":"arbiterTokenY_","type":"address","internalType":"address"},{"name":"price_","type":"uint256","internalType":"uint256"}],"stateMutability":"nonpayable"},{"type":"function","name":"admin","inputs":[],"outputs":[{"name":"","type":"address","internalType":"address"}],"stateMutability":"view"},{"type":"function","name":"arbiterTokenX","inputs":[],"outputs":[{"name":"","type":"address","internalType":"address"}],"stateMutability":"view"},{"type":"function","name":"arbiterTokenY","inputs":[],"outputs":[{"name":"","type":"address","internalType":"address"}],"stateMutability":"view"},{"type":"function","name":"price","inputs":[],"outputs":[{"name":"","type":"uint256","internalType":"uint256"}],"stateMutability":"view"},{"type":"function","name":"setPrice","inputs":[{"name":"_price","type":"uint256","internalType":"uint256"}],"outputs":[],"stateMutability":"nonpayable"},{"type":"function","name":"swap","inputs":[{"name":"tokenIn","type":"address","internalType":"address"},{"name":"amountIn","type":"uint256","internalType":"uint256"}],"outputs":[],"stateMutability":"nonpayable"},{"type":"event","name":"PriceChange","inputs":[{"name":"price","type":"uint256","indexed":false,"internalType":"uint256"},{"name":"timestamp","type":"uint256","indexed":false,"internalType":"uint256"}],"anonymous":false},{"type":"event","name":"Swap","inputs":[{"name":"tokenIn","type":"address","indexed":false,"internalType":"address"},{"name":"tokenOut","type":"address","indexed":false,"internalType":"address"},{"name":"amountIn","type":"uint256","indexed":false,"internalType":"uint256"},{"name":"amountOut","type":"uint256","indexed":false,"internalType":"uint256"},{"name":"to","type":"address","indexed":false,"internalType":"address"}],"anonymous":false}],"bytecode":{"object":"0x60803461009c57601f61059738819003918201601f19168301916001600160401b038311848410176100a15780849260609460405283398101031261009c57610047816100b7565b906040610056602083016100b7565b9101519160018060a01b0319913383600054161760005560018060a01b03809216836001541617600155169060025416176002556003556040516104cb90816100cc8239f35b600080fd5b634e487b7160e01b600052604160045260246000fd5b51906001600160a01b038216820361009c5756fe6080604052600436101561001257600080fd5b6000803560e01c9081633b2049481461007a5750806391b7f5ed14610075578063a035b1fe14610070578063d004f0f71461006b578063d0c472ec146100665763f851a4401461006157600080fd5b61038f565b610366565b610172565b610154565b6100a3565b346100a057806003193601126100a0576001546001600160a01b03166080908152602090f35b80fd5b3461014f57602036600319011261014f57600054600435906001600160a01b03163303610100576040817ffe6b606ca0477592b5740a0eb00c8e91570a5d0eb736abfa1a6309bd081b4a4d926003558151908152426020820152a1005b60405162461bcd60e51b815260206004820152602160248201527f4f6e6c792061646d696e2063616e2063616c6c20746869732066756e6374696f6044820152603760f91b6064820152608490fd5b600080fd5b3461014f57600036600319011261014f576020600354604051908152f35b3461014f57604036600319011261014f576004356001600160a01b038181169182810361014f5760015460243592906001600160a01b0316808216850361030d57506002546001600160a01b0316916101cd60035485610474565b6040516323b872dd60e01b8152336004820152306024820152604481018690526020968790829060649082906000905af180156102eb57610216916000916102f0575b50610414565b60405163a9059cbb60e01b8152336004820152602481018290529286908490604490829060009089165af19586156102eb577fb39c9bc43f811e1a7ce159c5f147458fdb80266bf23c17322013316e27e086d0966102b994610281926000926102be575b5050610414565b604080516001600160a01b039384168152929094166020830152928101939093526060830191909152336080830152819060a0820190565b0390a1005b6102dd9250803d106102e4575b6102d581836103b8565b8101906103f0565b388061027a565b503d6102cb565b610408565b6103079150883d8a116102e4576102d581836103b8565b38610210565b6002546001600160a01b03168503610331579161032c60035485610452565b6101cd565b60405162461bcd60e51b815260206004820152600d60248201526c24b73b30b634b2103a37b5b2b760991b6044820152606490fd5b3461014f57600036600319011261014f576002546040516001600160a01b039091168152602090f35b3461014f57600036600319011261014f576000546040516001600160a01b039091168152602090f35b90601f8019910116810190811067ffffffffffffffff8211176103da57604052565b634e487b7160e01b600052604160045260246000fd5b9081602091031261014f5751801515810361014f5790565b6040513d6000823e3d90fd5b1561041b57565b60405162461bcd60e51b815260206004820152600f60248201526e151c985b9cd9995c8819985a5b1959608a1b6044820152606490fd5b670de0b6b3a7640000908181029181830414901517821515161561014f570490565b81810291818304149015176001161561014f57670de0b6b3a764000090049056fea26469706673582212200d2b1dc63a9605ce9c6e57eb9201d1add3a8c26642e5ad3e572012f6c24cba0864736f6c63430008160033","linkReferences":{}},"methodIdentifiers":{"admin()":"f851a440","arbiterTokenX()":"3b204948","arbiterTokenY()":"d0c472ec","price()":"a035b1fe","setPrice(uint256)":"91b7f5ed","swap(address,uint256)":"d004f0f7"},"id":56}