{"abi":[{"type":"constructor","inputs":[{"name":"initialSupply","type":"uint256","internalType":"uint256"}],"stateMutability":"nonpayable"},{"type":"function","name":"DOMAIN_SEPARATOR","inputs":[],"outputs":[{"name":"","type":"bytes32","internalType":"bytes32"}],"stateMutability":"view"},{"type":"function","name":"allowance","inputs":[{"name":"","type":"address","internalType":"address"},{"name":"","type":"address","internalType":"address"}],"outputs":[{"name":"","type":"uint256","internalType":"uint256"}],"stateMutability":"view"},{"type":"function","name":"approve","inputs":[{"name":"spender","type":"address","internalType":"address"},{"name":"amount","type":"uint256","internalType":"uint256"}],"outputs":[{"name":"","type":"bool","internalType":"bool"}],"stateMutability":"nonpayable"},{"type":"function","name":"balanceOf","inputs":[{"name":"","type":"address","internalType":"address"}],"outputs":[{"name":"","type":"uint256","internalType":"uint256"}],"stateMutability":"view"},{"type":"function","name":"decimals","inputs":[],"outputs":[{"name":"","type":"uint8","internalType":"uint8"}],"stateMutability":"view"},{"type":"function","name":"name","inputs":[],"outputs":[{"name":"","type":"string","internalType":"string"}],"stateMutability":"view"},{"type":"function","name":"nonces","inputs":[{"name":"","type":"address","internalType":"address"}],"outputs":[{"name":"","type":"uint256","internalType":"uint256"}],"stateMutability":"view"},{"type":"function","name":"permit","inputs":[{"name":"owner","type":"address","internalType":"address"},{"name":"spender","type":"address","internalType":"address"},{"name":"value","type":"uint256","internalType":"uint256"},{"name":"deadline","type":"uint256","internalType":"uint256"},{"name":"v","type":"uint8","internalType":"uint8"},{"name":"r","type":"bytes32","internalType":"bytes32"},{"name":"s","type":"bytes32","internalType":"bytes32"}],"outputs":[],"stateMutability":"nonpayable"},{"type":"function","name":"symbol","inputs":[],"outputs":[{"name":"","type":"string","internalType":"string"}],"stateMutability":"view"},{"type":"function","name":"totalSupply","inputs":[],"outputs":[{"name":"","type":"uint256","internalType":"uint256"}],"stateMutability":"view"},{"type":"function","name":"transfer","inputs":[{"name":"to","type":"address","internalType":"address"},{"name":"amount","type":"uint256","internalType":"uint256"}],"outputs":[{"name":"","type":"bool","internalType":"bool"}],"stateMutability":"nonpayable"},{"type":"function","name":"transferFrom","inputs":[{"name":"from","type":"address","internalType":"address"},{"name":"to","type":"address","internalType":"address"},{"name":"amount","type":"uint256","internalType":"uint256"}],"outputs":[{"name":"","type":"bool","internalType":"bool"}],"stateMutability":"nonpayable"},{"type":"event","name":"Approval","inputs":[{"name":"owner","type":"address","indexed":true,"internalType":"address"},{"name":"spender","type":"address","indexed":true,"internalType":"address"},{"name":"amount","type":"uint256","indexed":false,"internalType":"uint256"}],"anonymous":false},{"type":"event","name":"Transfer","inputs":[{"name":"from","type":"address","indexed":true,"internalType":"address"},{"name":"to","type":"address","indexed":true,"internalType":"address"},{"name":"amount","type":"uint256","indexed":false,"internalType":"uint256"}],"anonymous":false}],"bytecode":{"object":"0x60e060408181523462000492578162000f8c8038038091620000228285620004c9565b8339602093849181010312620004925751815190620000418262000497565b6004938483526321b7b4b760e11b81840152835191620000618362000497565b8583526321a7a4a760e11b8284015283516001600160401b03949093908585116200047d5760009480620000968754620004ed565b92601f938481116200042c575b508690848311600114620003c4578892620003b8575b50508160011b916000199060031b1c19161785555b815190868211620003a5578190600193620000ea8554620004ed565b82811162000350575b5086918311600114620002ec578792620002e0575b5050600019600383901b1c191690821b1781555b60126080524660a052855184549181866200013785620004ed565b9283835287830195888282169182600014620002c057505060011462000280575b506200016792500382620004c9565b5190208551838101917f8b73c3c69bb8fe3d512ecc4cf759cc79239f7b179b0ffacaa9a75d522b39400f8352878201527fc89efdaa54c0f20c7adf612882df0950f5a951637e0307cdcb4c672f298b8bc660608201524660808201523060a082015260a0815260c0810195818710908711176200026d5785875251902060c0526002548181018091116200025a57907fddf252ad1be2c89b69c2b068fc378daa952ba7f163c4a11628f55a4df523b3ef92916002553384526003825285842081815401905584523393a351610a6190816200052b82396080518161054e015260a05181610889015260c051816108b00152f35b634e487b7160e01b845260118752602484fd5b634e487b7160e01b855260418852602485fd5b8791508880528189209089915b858310620002a75750506200016793508201013862000158565b805483880185015286945089939092019181016200028d565b60ff191688526200016795151560051b8501019250389150620001589050565b01519050388062000108565b8488528688208594509190601f198416895b898282106200033957505084116200031f575b505050811b0181556200011c565b015160001960f88460031b161c1916905538808062000311565b8385015186558897909501949384019301620002fe565b909192508488528688208380860160051c8201928987106200039b575b91869588929594930160051c01915b8281106200038c575050620000f3565b8a81558695508791016200037c565b925081926200036d565b634e487b7160e01b865260418952602486fd5b015190503880620000b9565b8880528789209250601f198416895b8982821062000415575050908460019594939210620003fb575b505050811b018555620000ce565b015160001960f88460031b161c19169055388080620003ed565b6001859682939686015181550195019301620003d3565b9091508780528688208480850160051c82019289861062000473575b9085949392910160051c01905b818110620004645750620000a3565b89815584935060010162000455565b9250819262000448565b604188634e487b7160e01b6000525260246000fd5b600080fd5b604081019081106001600160401b03821117620004b357604052565b634e487b7160e01b600052604160045260246000fd5b601f909101601f19168101906001600160401b03821190821017620004b357604052565b90600182811c921680156200051f575b60208310146200050957565b634e487b7160e01b600052602260045260246000fd5b91607f1691620004fd56fe6080604081815260048036101561001557600080fd5b600092833560e01c90816306fdde03146106d257508063095ea7b31461066457806318160ddd1461064557806323b872dd14610572578063313ce567146105345780633644e5151461051057806370a08231146104d85780637ecebe00146104a057806395d89b41146103ba578063a9059cbb14610336578063d505accf146100f25763dd62ed3e146100a757600080fd5b346100ee57816003193601126100ee5760209282916100c4610830565b6100cc61084b565b6001600160a01b03918216845291865283832091168252845220549051908152f35b8280fd5b509190346103325760e03660031901126103325761010e610830565b9061011761084b565b91604435606435926084359260ff841680940361032e574285106102eb5761013d610884565b9560018060a01b038092169586895260209560058752848a209889549960018b01905585519285898501957f6e71edae12b1b97f4d1f60370fef10105fa2faae0126114a169c64845d6126c987528b89870152169a8b606086015288608086015260a085015260c084015260c0835260e0830167ffffffffffffffff94848210868311176102d7578188528451902061010085019261190160f01b845261010286015261012285015260428152610160840194818610908611176102c457848752519020835261018082015260a4356101a082015260c4356101c0909101528780528490889060809060015afa156102ba5786511696871515806102b1575b1561027f5786977f8c5be1e5ebec7d5bd14f71427d1e84f3dd0314c0f7b2291e5b200ac8c7c3b9259596975283528087208688528352818188205551908152a380f35b83606492519162461bcd60e51b8352820152600e60248201526d24a72b20a624a22fa9a4a3a722a960911b6044820152fd5b5084881461023c565b81513d88823e3d90fd5b634e487b7160e01b8c5260418d5260248cfd5b50634e487b7160e01b8c5260418d5260248cfd5b815162461bcd60e51b81526020818a0152601760248201527f5045524d49545f444541444c494e455f455850495245440000000000000000006044820152606490fd5b8680fd5b5080fd5b505034610332578060031936011261033257602091610353610830565b82602435913384526003865281842061036d848254610861565b90556001600160a01b0316808452600386529220805482019055825190815233907fddf252ad1be2c89b69c2b068fc378daa952ba7f163c4a11628f55a4df523b3ef908590a35160018152f35b82843461049d578060031936011261049d578151908060018054906103de82610775565b80865292602092600181169081156104705750600114610418575b610414868861040a828903836107af565b51918291826107e7565b0390f35b9350600184527fb10e2d527612073b26eecdfd717e6a320cf44b4afac2b0732d9fcbe2b7fa0cf65b83851061045d5750505050810160200161040a82610414866103f9565b8054868601840152938201938101610440565b90506104149795508693506020925061040a94915060ff191682840152151560051b8201019294866103f9565b80fd5b5050346103325760203660031901126103325760209181906001600160a01b036104c8610830565b1681526005845220549051908152f35b5050346103325760203660031901126103325760209181906001600160a01b03610500610830565b1681526003845220549051908152f35b50503461033257816003193601126103325760209061052d610884565b9051908152f35b5050346103325781600319360112610332576020905160ff7f0000000000000000000000000000000000000000000000000000000000000000168152f35b50913461049d57606036600319011261049d5761058d610830565b7fddf252ad1be2c89b69c2b068fc378daa952ba7f163c4a11628f55a4df523b3ef6105b661084b565b6001600160a01b0392831680855260208781528686203387528152868620549097919488936044359389938560018201610622575b50505086885260038552828820610603858254610861565b9055169586815260038452208181540190558551908152a35160018152f35b61062b91610861565b90888a528652838920338a528652838920553880856105eb565b5050346103325781600319360112610332576020906002549051908152f35b50346100ee57816003193601126100ee57602092610680610830565b918360243592839233825287528181209460018060a01b0316948582528752205582519081527f8c5be1e5ebec7d5bd14f71427d1e84f3dd0314c0f7b2291e5b200ac8c7c3b925843392a35160018152f35b8390853461049d578060031936011261049d578054816106f182610775565b80855291602091600191828116908115610470575060011461071e57610414868861040a828903836107af565b80809550527f290decd9548b62a8d60345a988386fc84ba6bc95484008f6362f93160ef3e5635b8385106107625750505050810160200161040a82610414866103f9565b8054868601840152938201938101610745565b90600182811c921680156107a5575b602083101461078f57565b634e487b7160e01b600052602260045260246000fd5b91607f1691610784565b90601f8019910116810190811067ffffffffffffffff8211176107d157604052565b634e487b7160e01b600052604160045260246000fd5b6020808252825181830181905290939260005b82811061081c57505060409293506000838284010152601f8019910116010190565b8181018601518482016040015285016107fa565b600435906001600160a01b038216820361084657565b600080fd5b602435906001600160a01b038216820361084657565b9190820391821161086e57565b634e487b7160e01b600052601160045260246000fd5b6000467f0000000000000000000000000000000000000000000000000000000000000000036108d257507f000000000000000000000000000000000000000000000000000000000000000090565b604051815482916108e282610775565b808252816020948582019460019087600182169182600014610a0d5750506001146109b4575b50610915925003826107af565b51902091604051918201927f8b73c3c69bb8fe3d512ecc4cf759cc79239f7b179b0ffacaa9a75d522b39400f845260408301527fc89efdaa54c0f20c7adf612882df0950f5a951637e0307cdcb4c672f298b8bc660608301524660808301523060a083015260a0825260c082019082821067ffffffffffffffff8311176109a0575060405251902090565b634e487b7160e01b81526041600452602490fd5b87805286915087907f290decd9548b62a8d60345a988386fc84ba6bc95484008f6362f93160ef3e5635b8583106109f5575050610915935082010138610908565b805483880185015286945088939092019181016109de565b60ff1916885261091595151560051b8501019250389150610908905056fea2646970667358221220ebaeb219997aead8d12d861da50dcba28530a48d15b35dcb292be1d7187ab81164736f6c63430008160033","linkReferences":{}},"methodIdentifiers":{"DOMAIN_SEPARATOR()":"3644e515","allowance(address,address)":"dd62ed3e","approve(address,uint256)":"095ea7b3","balanceOf(address)":"70a08231","decimals()":"313ce567","name()":"06fdde03","nonces(address)":"7ecebe00","permit(address,address,uint256,uint256,uint8,bytes32,bytes32)":"d505accf","symbol()":"95d89b41","totalSupply()":"18160ddd","transfer(address,uint256)":"a9059cbb","transferFrom(address,address,uint256)":"23b872dd"},"id":55}