{"abi":[{"type":"function","name":"logPortfolio","inputs":[{"name":"tokenX","type":"address","internalType":"address"},{"name":"tokenY","type":"address","internalType":"address"}],"outputs":[],"stateMutability":"nonpayable"},{"type":"event","name":"GhostEvent","inputs":[{"name":"ghosted","type":"bool","indexed":false,"internalType":"bool"}],"anonymous":false},{"type":"event","name":"LogPortfolio","inputs":[{"name":"tokenXBalance","type":"uint256","indexed":false,"internalType":"uint256"},{"name":"tokenYBalance","type":"uint256","indexed":false,"internalType":"uint256"},{"name":"blockTimestamp","type":"uint256","indexed":false,"internalType":"uint256"}],"anonymous":false}],"bytecode":{"object":"0x60808060405234610016576101f9908161001c8239f35b600080fdfe60806040818152600436101561001457600080fd5b600091823560e01c633b3d821f1461002b57600080fd5b346101875781600319360112610187576001600160a01b036004358181169081900361013557602435918216809203610135576370a0823160e01b8084523360048501526020918290859060249082905afa93841561017d57869461014a575b508190602486518095819382523360048301525afa9182156101405785926100e7575b5092606092917f54a6d4307a119575de15b0ad977ab187cda7e97f30308af0a71d235e555ff4e69482519384528301524290820152a180f35b929150928383813d8311610139575b610100818361018b565b8101031261013557915191929091907f54a6d4307a119575de15b0ad977ab187cda7e97f30308af0a71d235e555ff4e66100ae565b8480fd5b503d6100f6565b84513d87823e3d90fd5b9093508181813d8311610176575b610162818361018b565b810103126101725751928161008b565b8580fd5b503d610158565b85513d88823e3d90fd5b8280fd5b90601f8019910116810190811067ffffffffffffffff8211176101ad57604052565b634e487b7160e01b600052604160045260246000fdfea26469706673582212204b3d1873948d33d284c194594b5e10371c864ebf35ed71a5e168502cc061f98064736f6c63430008160033","linkReferences":{}},"methodIdentifiers":{"logPortfolio(address,address)":"3b3d821f"},"id":58}