{"abi":[{"type":"constructor","inputs":[{"name":"dfmm_","type":"address","internalType":"address"}],"stateMutability":"nonpayable"},{"type":"function","name":"computeSwapConstant","inputs":[{"name":"poolId","type":"uint256","internalType":"uint256"},{"name":"data","type":"bytes","internalType":"bytes"}],"outputs":[{"name":"","type":"int256","internalType":"int256"}],"stateMutability":"view"},{"type":"function","name":"dfmm","inputs":[],"outputs":[{"name":"","type":"address","internalType":"address"}],"stateMutability":"view"},{"type":"function","name":"getPoolParams","inputs":[{"name":"poolId","type":"uint256","internalType":"uint256"}],"outputs":[{"name":"params","type":"bytes","internalType":"bytes"}],"stateMutability":"view"},{"type":"function","name":"init","inputs":[{"name":"","type":"address","internalType":"address"},{"name":"poolId","type":"uint256","internalType":"uint256"},{"name":"data","type":"bytes","internalType":"bytes"}],"outputs":[{"name":"valid","type":"bool","internalType":"bool"},{"name":"swapConstantGrowth","type":"int256","internalType":"int256"},{"name":"reserveX","type":"uint256","internalType":"uint256"},{"name":"reserveY","type":"uint256","internalType":"uint256"},{"name":"totalLiquidity","type":"uint256","internalType":"uint256"}],"stateMutability":"nonpayable"},{"type":"function","name":"name","inputs":[],"outputs":[{"name":"","type":"string","internalType":"string"}],"stateMutability":"view"},{"type":"function","name":"update","inputs":[{"name":"sender","type":"address","internalType":"address"},{"name":"poolId","type":"uint256","internalType":"uint256"},{"name":"data","type":"bytes","internalType":"bytes"}],"outputs":[],"stateMutability":"nonpayable"},{"type":"function","name":"validateAllocateOrDeallocate","inputs":[{"name":"","type":"address","internalType":"address"},{"name":"poolId","type":"uint256","internalType":"uint256"},{"name":"data","type":"bytes","internalType":"bytes"}],"outputs":[{"name":"valid","type":"bool","internalType":"bool"},{"name":"invariant","type":"int256","internalType":"int256"},{"name":"reserveX","type":"uint256","internalType":"uint256"},{"name":"reserveY","type":"uint256","internalType":"uint256"},{"name":"totalLiquidity","type":"uint256","internalType":"uint256"}],"stateMutability":"view"},{"type":"function","name":"validateSwap","inputs":[{"name":"","type":"address","internalType":"address"},{"name":"poolId","type":"uint256","internalType":"uint256"},{"name":"data","type":"bytes","internalType":"bytes"}],"outputs":[{"name":"valid","type":"bool","internalType":"bool"},{"name":"swapConstantGrowth","type":"int256","internalType":"int256"},{"name":"liquidityDelta","type":"int256","internalType":"int256"},{"name":"reserveX","type":"uint256","internalType":"uint256"},{"name":"reserveY","type":"uint256","internalType":"uint256"},{"name":"totalLiquidity","type":"uint256","internalType":"uint256"}],"stateMutability":"view"},{"type":"error","name":"InvalidSender","inputs":[]},{"type":"error","name":"InvalidUpdateCode","inputs":[]},{"type":"error","name":"NotDFMM","inputs":[]}],"bytecode":{"object":"0x60a03461006957601f6105b538819003918201601f19168301916001600160401b0383118484101761006e5780849260209460405283398101031261006957516001600160a01b038116810361006957608052604051610530908161008582396080518160ef0152f35b600080fd5b634e487b7160e01b600052604160045260246000fdfe60806040818152600436101561001457600080fd5b600091823560e01c9081622e524b146103f95750806306fdde031461035657806368bd3e381461031d57806373cb2d031461024e5780638a04bdd514610137578063acad29891461011e578063afba13c4146100db5763dc1783551461007957600080fd5b346100d7576020806003193601126100d3579181519283916020835260605191826020850152815b8381106100be575050828201840152601f01601f19168101030190f35b608081015187820187015286945081016100a1565b8280fd5b5080fd5b50346100d757816003193601126100d757517f00000000000000000000000000000000000000000000000000000000000000006001600160a01b03168152602090f35b82346101345761012d36610493565b5050505080f35b80fd5b5090346101345761014736610493565b849350839250829182918290602090830183900312610134575035600181036101c45750505050505060016101c0670de0b6b3a7640000926802b5e3af16b188000080674563918244f40000925b51958695869192608093969594919660a0840197151584526020840152604083015260608201520152565b0390f35b600981036102055750505050505060016101c0670de0b6b3a76400009268056bc75e2d6310000068068155a43676e0000090678ac7230489e8000092610195565b600814610218575b6101c0939495610195565b50670de0b6b3a7640000935060019250678ac7230489e80000915068056bc75e2d63100000905068068155a43676e0000061020d565b5090346101345761025e36610493565b849350839250829182918290602090830183900312610134575035600181146102e8575b6002146102bb575b6101c093949551958695869192608093969594919660a0840197151584526020840152604083015260608201520152565b50670de0b6b3a7640000935060019250678ac7230489e80000915068056bc75e2d6310000090508061028a565b670de0b6b3a7640000955060019450673782dace9d90000093506729a2241af62c00009250671bc16d674ec800009150610282565b50346100d75760c09161032f36610493565b505050508082519281845281602085015283015280606083015280608083015260a0820152f35b50346100d757816003193601126100d757805181810181811067ffffffffffffffff8211176103e5578252600c81526020906b4d6f636b537472617465677960a01b6020820152825193849260208452825192836020860152825b8481106103cf57505050828201840152601f01601f19168101030190f35b81810183015188820188015287955082016103b1565b634e487b7160e01b84526041600452602484fd5b8383346100d757806003193601126100d75767ffffffffffffffff9260243584811161047b573660238201121561047b5780600401359480861161047f57601f8601601f19908116603f011683019081118382101761047f578352848252366024868301011161047b5784849260209660248894018483013701015251908152f35b8380fd5b634e487b7160e01b85526041600452602485fd5b9060606003198301126104f5576004356001600160a01b03811681036104f557916024359160443567ffffffffffffffff928382116104f557806023830112156104f55781600401359384116104f557602484830101116104f5576024019190565b600080fdfea264697066735822122009a636832ec6847884e761e11e93e4c99c16c8767042c516d6f7d4bb27fb9bb064736f6c63430008160033","linkReferences":{}},"methodIdentifiers":{"computeSwapConstant(uint256,bytes)":"002e524b","dfmm()":"afba13c4","getPoolParams(uint256)":"dc178355","init(address,uint256,bytes)":"73cb2d03","name()":"06fdde03","update(address,uint256,bytes)":"acad2989","validateAllocateOrDeallocate(address,uint256,bytes)":"8a04bdd5","validateSwap(address,uint256,bytes)":"68bd3e38"},"id":57}