{"abi":[{"type":"constructor","inputs":[{"name":"solverAddress","type":"address","internalType":"address"},{"name":"exchangeAddress","type":"address","internalType":"address"},{"name":"liquidExchangeAddress","type":"address","internalType":"address"},{"name":"assetAddress","type":"address","internalType":"address"},{"name":"quoteAddress","type":"address","internalType":"address"}],"stateMutability":"nonpayable"},{"type":"function","name":"XTOY","inputs":[],"outputs":[{"name":"","type":"bool","internalType":"bool"}],"stateMutability":"view"},{"type":"function","name":"YTOX","inputs":[],"outputs":[{"name":"","type":"bool","internalType":"bool"}],"stateMutability":"view"},{"type":"function","name":"asset","inputs":[],"outputs":[{"name":"","type":"address","internalType":"address"}],"stateMutability":"view"},{"type":"function","name":"cdf","inputs":[{"name":"input","type":"int256","internalType":"int256"}],"outputs":[{"name":"output","type":"int256","internalType":"int256"}],"stateMutability":"pure"},{"type":"function","name":"cumulativeProfit","inputs":[],"outputs":[{"name":"","type":"uint256","internalType":"uint256"}],"stateMutability":"view"},{"type":"function","name":"divWadDown","inputs":[{"name":"x","type":"uint256","internalType":"uint256"},{"name":"y","type":"uint256","internalType":"uint256"}],"outputs":[{"name":"z","type":"uint256","internalType":"uint256"}],"stateMutability":"pure"},{"type":"function","name":"divWadUp","inputs":[{"name":"x","type":"uint256","internalType":"uint256"},{"name":"y","type":"uint256","internalType":"uint256"}],"outputs":[{"name":"z","type":"uint256","internalType":"uint256"}],"stateMutability":"pure"},{"type":"function","name":"exchange","inputs":[],"outputs":[{"name":"","type":"address","internalType":"address"}],"stateMutability":"view"},{"type":"function","name":"intermediateTokenXBalance","inputs":[],"outputs":[{"name":"","type":"uint256","internalType":"uint256"}],"stateMutability":"view"},{"type":"function","name":"intermediateTokenYEndBalance","inputs":[],"outputs":[{"name":"","type":"uint256","internalType":"uint256"}],"stateMutability":"view"},{"type":"function","name":"intermediateTokenYStartBalance","inputs":[],"outputs":[{"name":"","type":"uint256","internalType":"uint256"}],"stateMutability":"view"},{"type":"function","name":"liquidExchange","inputs":[],"outputs":[{"name":"","type":"address","internalType":"address"}],"stateMutability":"view"},{"type":"function","name":"log","inputs":[{"name":"x","type":"int256","internalType":"int256"}],"outputs":[{"name":"z","type":"int256","internalType":"int256"}],"stateMutability":"pure"},{"type":"function","name":"lower_exchange_price","inputs":[{"name":"poolId","type":"uint256","internalType":"uint256"},{"name":"input","type":"uint256","internalType":"uint256"}],"outputs":[],"stateMutability":"nonpayable"},{"type":"function","name":"mulWadDown","inputs":[{"name":"x","type":"uint256","internalType":"uint256"},{"name":"y","type":"uint256","internalType":"uint256"}],"outputs":[{"name":"z","type":"uint256","internalType":"uint256"}],"stateMutability":"pure"},{"type":"function","name":"mulWadUp","inputs":[{"name":"x","type":"uint256","internalType":"uint256"},{"name":"y","type":"uint256","internalType":"uint256"}],"outputs":[{"name":"z","type":"uint256","internalType":"uint256"}],"stateMutability":"pure"},{"type":"function","name":"pdf","inputs":[{"name":"input","type":"int256","internalType":"int256"}],"outputs":[{"name":"output","type":"int256","internalType":"int256"}],"stateMutability":"pure"},{"type":"function","name":"ppf","inputs":[{"name":"input","type":"int256","internalType":"int256"}],"outputs":[{"name":"output","type":"int256","internalType":"int256"}],"stateMutability":"pure"},{"type":"function","name":"quote","inputs":[],"outputs":[{"name":"","type":"address","internalType":"address"}],"stateMutability":"view"},{"type":"function","name":"raise_exchange_price","inputs":[{"name":"poolId","type":"uint256","internalType":"uint256"},{"name":"input","type":"uint256","internalType":"uint256"}],"outputs":[],"stateMutability":"nonpayable"},{"type":"function","name":"simulateSwap","inputs":[{"name":"poolId","type":"uint256","internalType":"uint256"},{"name":"swapXIn","type":"bool","internalType":"bool"},{"name":"amountIn","type":"uint256","internalType":"uint256"}],"outputs":[{"name":"valid","type":"bool","internalType":"bool"},{"name":"estimatedOut","type":"uint256","internalType":"uint256"},{"name":"estimatedPrice","type":"uint256","internalType":"uint256"},{"name":"payload","type":"bytes","internalType":"bytes"}],"stateMutability":"view"},{"type":"function","name":"solver","inputs":[],"outputs":[{"name":"","type":"address","internalType":"address"}],"stateMutability":"view"},{"type":"function","name":"sqrt","inputs":[{"name":"x","type":"uint256","internalType":"uint256"}],"outputs":[{"name":"z","type":"uint256","internalType":"uint256"}],"stateMutability":"pure"},{"type":"event","name":"Loss","inputs":[{"name":"loss","type":"uint256","indexed":false,"internalType":"uint256"}],"anonymous":false},{"type":"event","name":"Price","inputs":[{"name":"price","type":"uint256","indexed":false,"internalType":"uint256"},{"name":"timestamp","type":"uint256","indexed":false,"internalType":"uint256"}],"anonymous":false},{"type":"event","name":"Profit","inputs":[{"name":"profit","type":"uint256","indexed":false,"internalType":"uint256"}],"anonymous":false},{"type":"error","name":"AttemptedProfit","inputs":[{"name":"profit","type":"int256","internalType":"int256"}]},{"type":"error","name":"DexSwapFailure","inputs":[{"name":"reason","type":"string","internalType":"string"},{"name":"err","type":"bytes","internalType":"bytes"}]},{"type":"error","name":"Infinity","inputs":[]},{"type":"error","name":"InsufficientApprovalY","inputs":[{"name":"allowance","type":"uint256","internalType":"uint256"},{"name":"payment","type":"uint256","internalType":"uint256"}]},{"type":"error","name":"InsufficientBalanceX","inputs":[{"name":"balance","type":"uint256","internalType":"uint256"},{"name":"payment","type":"uint256","internalType":"uint256"}]},{"type":"error","name":"InsufficientBalanceY","inputs":[{"name":"balance","type":"uint256","internalType":"uint256"},{"name":"payment","type":"uint256","internalType":"uint256"}]},{"type":"error","name":"Min","inputs":[]},{"type":"error","name":"NegativeInfinity","inputs":[]},{"type":"error","name":"OutOfBounds","inputs":[]},{"type":"error","name":"SimulatedSwapFailure","inputs":[{"name":"valid","type":"bool","internalType":"bool"},{"name":"estimatedOut","type":"uint256","internalType":"uint256"},{"name":"estimatedPrice","type":"uint256","internalType":"uint256"},{"name":"payload","type":"bytes","internalType":"bytes"}]},{"type":"error","name":"UnprofitableArbitrage","inputs":[{"name":"start_y_balance","type":"uint256","internalType":"uint256"},{"name":"end_y_balance","type":"uint256","internalType":"uint256"},{"name":"absolute_difference","type":"uint256","internalType":"uint256"}]}],"bytecode":{"object":"0x608034620000ef57601f6200201738819003918201601f19168301916001600160401b03831184841017620000f45780849260a094604052833981010312620000ef576200004d816200010a565b906200005c602082016200010a565b906200006b604082016200010a565b9162000088608062000080606085016200010a565b93016200010a565b91600161ffff19600954161760095560018060a01b0380948180948160018060a01b0319991689600254161760025516876001541617600155168560005416176000551683600354161760035516906004541617600455604051611ef79081620001208239f35b600080fd5b634e487b7160e01b600052604160045260246000fd5b51906001600160a01b0382168203620000ef5756fe6080604052600436101561001257600080fd5b60003560e01c80632d5b6cb9146101875780633679723a1461018257806337c6a44a1461017d57806338d52e0f146101785780633928ff971461017357806349a7a26d1461016e5780636449fc5714610169578063677342ce1461016457806372b982461461015f57806385b319ff1461015a578063936520c31461015557806396fbee1d14610150578063999b93af1461014b5780639f27ef4f14610146578063ae9768a814610141578063bd252d061461013c578063d0b71b1e14610137578063d24ce6e514610132578063d2f7265a1461012d578063e524f84914610128578063f3c973cf14610123578063f9005eb51461011e5763fa2e59941461011957600080fd5b61090b565b6107d8565b6107b5565b610775565b61074c565b6106ef565b6106a8565b61065b565b61060f565b6105e6565b6105bd565b610448565b61042a565b61040c565b6103ee565b6103d0565b6103aa565b610381565b6102cb565b610228565b6101db565b6101c3565b6101a3565b602090600319011261019e5760043590565b600080fd5b3461019e5760206101bb6101b63661018c565b610a63565b604051908152f35b3461019e5760206101bb6101d63661018c565b610c82565b3461019e57604036600319011261019e5760043560243590670de0b6b3a7640000908181029181830414901517821515161561019e5760209160405191048152f35b600091031261019e57565b3461019e57600036600319011261019e576003546040516001600160a01b039091168152602090f35b8015150361019e57565b60005b83811061026e5750506000910152565b818101518382015260200161025e565b906020916102978151809281855285808601910161025b565b601f01601f1916010190565b90926080926102c895941515835260208301526040820152816060820152019061027e565b90565b3461019e57606036600319011261019e576024356102e881610251565b600254604051633928ff9760e01b81526004803590820152911515602483015260448035908301526000908190839060649082906001600160a01b03165afa801561037c5781809381809361034f575b50509061034b91604051948594856102a3565b0390f35b9150915061034b935061037492503d8091833e61036c8183610958565b810190610996565b919338610338565b610a10565b3461019e57600036600319011261019e576002546040516001600160a01b039091168152602090f35b3461019e57600036600319011261019e57602060ff60095460081c166040519015158152f35b3461019e57602036600319011261019e5760206101bb600435610e55565b3461019e57600036600319011261019e576020600754604051908152f35b3461019e57600036600319011261019e576020600854604051908152f35b3461019e57600036600319011261019e576020600554604051908152f35b3461019e57604036600319011261019e57600254602435906004359061048490610478906001600160a01b031681565b6001600160a01b031690565b6040516303b4d10360e41b81526004810183905260209390918490839060249082905afa801561037c576104f67fd1353c68e79ef70de84ee90d2facf845ec24895116d4a03505aa41785af71f5a91610510946000916105a0575b506040805191825242602083015290918291820190565b0390a161050281610f13565b60095460081c60ff16611108565b60095460ff1660035461052d90610478906001600160a01b031681565b6040516370a0823160e01b815230600482015292908490849060249082905afa92831561037c5761056794600094610571575b5050611409565b61056f6116e6565b005b610591929450803d10610599575b6105898183610958565b810190610a1c565b913880610560565b503d61057f565b6105b79150873d8911610599576105898183610958565b386104df565b3461019e57600036600319011261019e576004546040516001600160a01b039091168152602090f35b3461019e57600036600319011261019e576000546040516001600160a01b039091168152602090f35b3461019e57604036600319011261019e576004356024359081810291818304149015176001161561019e57602090604051906001670de0b6b3a764000060001983010401901515028152f35b3461019e57604036600319011261019e57600435602435670de0b6b3a7640000918281029281840414901517811515161561019e5760209160016040519260001983010401901515028152f35b3461019e576020671bc16d674ec800006106e66106d66106e16713a04bbdfdc9be886106db6106d63661018c565b610c1a565b05610c71565b611a40565b05604051908152f35b3461019e576106fd3661018c565b61070681610c71565b8082029160008212600160ff1b821416610747578183051490151715610747576722c955229554c1b66106e66106d6671bc16d674ec8000060209405611b65565b610c04565b3461019e57600036600319011261019e576001546040516001600160a01b039091168152602090f35b3461019e57604036600319011261019e576004356024359081810291818304149015176001161561019e57602090670de0b6b3a764000060405191048152f35b3461019e57600036600319011261019e57602060ff600954166040519015158152f35b3461019e57604036600319011261019e57600254600435906024359061080890610478906001600160a01b031681565b6040516303b4d10360e41b8152600481018490526020939092918490849060249082905afa801561037c5761087a7fd1353c68e79ef70de84ee90d2facf845ec24895116d4a03505aa41785af71f5a91610895956000916105a057506040805191825242602083015290918291820190565b0390a161088682610f13565b60095460081c60ff1690611409565b60095460ff166003546108b290610478906001600160a01b031681565b6040516370a0823160e01b815230600482015291908390839060249082905afa91821561037c57610567936000936108ec575b5050611108565b610903929350803d10610599576105898183610958565b9038806108e5565b3461019e57600036600319011261019e576020600654604051908152f35b634e487b7160e01b600052604160045260246000fd5b67ffffffffffffffff811161095357604052565b610929565b90601f8019910116810190811067ffffffffffffffff82111761095357604052565b67ffffffffffffffff811161095357601f01601f191660200190565b60808183031261019e5780516109ab81610251565b9260208201519260408301519260608101519067ffffffffffffffff821161019e570181601f8201121561019e5780516109e48161097a565b926109f26040519485610958565b8184526020828401011161019e576102c8916020808501910161025b565b6040513d6000823e3d90fd5b9081602091031261019e575190565b15610a3257565b60405162461bcd60e51b815260206004820152600960248201526815539111519253915160ba1b6044820152606490fd5b7d57115e47018c7177eebf7cd370a3356a1b7863008a5ae8028c72b886428490610a8f60008213610a2b565b711340daa0d5f769dba1915cef59f0815a5506610aab82611879565b6060928382609f03011b609f1c90605f19017d0267a36c0c95b3975ab3ee5b203a7614a3f75373f047d803ae7b6687f2b302926c0b7a86d7375468fac667a0a527826d01920d8043ca89b5239253284e42816d0a0f742023def783a307a986912e816d13cdffb29d51d99322bdff5f2211816d0df99ac502031bf953eff472fdcc816d0388eaa27412d5aca026815d636e816c465772b2bbbb5f824b15207a308101028c1d01028a1d0102881d0102861d0102841d0102821d0191780a09507084cc699bb0e71ea869ffffffffffffffffffffffff19916cb9a025d814b29c212b8b1a07cd1990826d02384773bdf1ac5676facced609019816c8c3f38e95a6b1ff2ab1c3b343619816d02247f7a7b6594320649aa03aba1816d0139601a2efabe717e604cbb4894816c29508e458543d8aa4df2abee78810102891d0102871d0102851d0102831d0102901d0102010502010160ae1d90565b634e487b7160e01b600052601160045260246000fd5b90670de0b6b3a76400009182810292818405149015171561074757565b90633b9aca009182810292818405149015171561074757565b60008190039190600160ff1b81146001166107475760001983050361074757565b600160ff1b81146107475760000390565b6706f05b59d3b200008114610e4f57670de0b6b3a764000080821215610df9578115610e1a5760018260011b91600293830560020361074757600083128015610e3e575b610e2c578215610df957671bc16d674ec800008314610e1a578212918215610e0b57925b610cf384611d10565b8015610df957610d65610d24610d1f610d1a610d15610d6a9599979699610a63565b611dd1565b610e55565b610c37565b610d60610d38610d3383611d3b565b6118eb565b610d5a610d55610d4f610d4a86611d66565b611903565b85611e48565b61191b565b90611daf565b6116c0565b611df9565b936000925b818410610da157505050506102c891610d8e91600014610d9357611ce9565b610c71565b610d9c90610c71565b611ce9565b9091610def86610de9610db985610d6086999b611a40565b610d5a610dd9610dd4610dcf610d8e8780611e48565b611b65565b611e21565b610de38386611e48565b906116c0565b906119f9565b9501929190610d6f565b6040516307a0212760e01b8152600490fd5b610e1490611684565b92610cea565b6040516322ed598560e21b8152600490fd5b604051632d0483c560e21b8152600490fd5b50671bc16d674ec800008313610cc6565b50600090565b60b581600160881b811015610efc575b80690100000000000000000062010000921015610eef575b65010000000000811015610ee2575b6301000000811015610ed5575b010260121c60019080830401811c80830401811c80830401811c80830401811c80830401811c80830401811c80830401901c8080920410900390565b60101c9160081b91610e99565b60201c9160101b91610e8c565b60401c9160201b91610e7d565b5068b500000000000000009050608082901c610e65565b60048054909190610f2e90610478906001600160a01b031681565b604080516370a0823160e01b8082523382870190815260209691949193929087908290819083010381855afa90811561037c576000916110eb575b508581106110c857508151636eb1769f60e11b8152338482019081523060208201528790829081906040010381855afa90811561037c576000916110ab575b508581106110845750803b1561019e5781516323b872dd60e01b815233848201908152306020820152604081019690965294600091869182908490829060600103925af192831561037c5761102e94869461106b575b50825461101590610478906001600160a01b031681565b9151908152309281019283529384928391829160200190565b03915afa90811561037c5761104c9260009261104e575b5050600655565b565b6110649250803d10610599576105898183610958565b3880611045565b8061107861107e9261093f565b8061021d565b38610ffe565b825163da56d3c560e01b8152808501918252602082018790529081906040010390fd5b0390fd5b6110c29150873d8911610599576105898183610958565b38610fa8565b8251630abe5a8960e01b8152808501918252602082018790529081906040010390fd5b6111029150873d8911610599576105898183610958565b38610f69565b9091901561120d5760035461112790610478906001600160a01b031681565b600080549091906001600160a01b0316813b156111f65760405163095ea7b360e01b81526001600160a01b03919091166004820152602481018590529082908290604490829084905af1801561037c576111fa575b50805461119390610478906001600160a01b031681565b6003546001600160a01b03169390803b156111f65760405163d004f0f760e01b81526001600160a01b0395909516600486015260248501919091529192918290604490829084905af1801561037c576111e95750565b8061107861104c9261093f565b8280fd5b806110786112079261093f565b3861117c565b60045490919061122790610478906001600160a01b031681565b60008054909291906001600160a01b0316813b156113665760405163095ea7b360e01b81526001600160a01b03919091166004820152602481018390529083908290604490829084905af1801561037c5761136a575b50815461129490610478906001600160a01b031681565b6004546001600160a01b0316813b156113665760405163d004f0f760e01b81526001600160a01b03919091166004820152602481019290925282908290604490829084905af1801561037c57611353575b506003546112fd90610478906001600160a01b031681565b6040516370a0823160e01b815230600482015290602090829060249082905afa90811561037c5761104c9291611334575b50600555565b61134d915060203d602011610599576105898183610958565b3861132e565b806110786113609261093f565b386112e5565b8380fd5b806110786113779261093f565b3861127d565b6040906102c893928152816020820152019061027e565b3d156113bf573d906113a58261097a565b916113b36040519384610958565b82523d6000602084013e565b606090565b9060806102c89260408152601960408201527f4445582073776170206661696c656420776974682064617461000000000000006060820152816020820152019061027e565b9181156115ef5760035461142790610478906001600160a01b031681565b6001546001600160a01b03169390803b1561019e5760405163095ea7b360e01b81526001600160a01b03959095166004860152602485018390526000908590604490829084905af193841561037c576114ce946115dc575b505b60025461149890610478906001600160a01b031681565b604051633928ff9760e01b8152600481018390528415156024820152604481019390935260009485918491829081906064820190565b03915afa91821561037c57848591869087956115ba575b50811561159c5750506001546115069150610478906001600160a01b031681565b90813b1561159857918491611532938360405180968195829463bd0625ab60e01b84526004840161137d565b03925af19081611585575b50611566576110a761154d611394565b6040516367a16b8d60e11b8152918291600483016113c4565b1561156e5750565b6003546112fd90610478906001600160a01b031681565b806110786115929261093f565b3861153d565b8480fd5b846110a791604051948594630314e62360e31b8652600486016102a3565b925050506115d39192503d8086833e61036c8183610958565b939290386114e5565b806110786115e99261093f565b3861147f565b60045461160690610478906001600160a01b031681565b6001546001600160a01b03169390803b1561019e5760405163095ea7b360e01b81526001600160a01b03959095166004860152602485018390526000908590604490829084905af193841561037c576114ce94611664575b50611481565b806110786116719261093f565b3861165e565b9190820391821161074757565b90671bc16d674ec800006000838203931281841281169184139015161761074757565b9067119000ab100ffbff19820191821360011661074757565b8181039291600013801582851316918412161761074757565b9190820180921161074757565b6004546116fd90610478906001600160a01b031681565b6040516370a0823160e01b815230600482015290602090829060249082905afa801561037c576117359160009161185a575b50600755565b600754600654908181106117f0576117717f357d905f1831209797df4d55d79c5c5bf1d9f7311c976afd05e13d881eab9bc89261179592611677565b611785611780826008546116d9565b600855565b6040519081529081906020820190565b0390a16004546117af90610478906001600160a01b031681565b60075490803b1561019e5760405163a9059cbb60e01b815233600482015260248101929092526000908290604490829084905af1801561037c576111e95750565b907fb65b2e085d7d040c313f7d4e1ac90f5937026fee497e0e24a7eff16a55e1c5ea61181f6117858484611677565b0390a16110a761182f83836116c0565b1960405193849363b16e378360e01b8552600485016040919493926060820195825260208201520152565b611873915060203d602011610599576105898183610958565b3861172f565b611884811515610a2b565b806fffffffffffffffffffffffffffffffff1060071b81811c67ffffffffffffffff1060061b1781811c63ffffffff1060051b1781811c61ffff1060041b1781811c60ff1060031b1781811c600f1060021b1781811c60031060011b1790811c6001101790565b9081672005fe4f268ea0000191821260011661074757565b9081670dc5527f642c20000191821260011661074757565b9081670de0b6b3a76400000191821260011661074757565b9081670b68df18e471fbff19019182121560011661074757565b90816714a8454c19e1ac000191821260011661074757565b9081670fc10e01578277ff19019182121560011661074757565b90816703debd083b8c7c000191821260011661074757565b9081670295d400ea3257ff19019182121560011661074757565b9081670157d8b2ecc708000191821260011661074757565b90816705310aa7d52130000191821260011661074757565b9081670de0cc3d156100000191821260011661074757565b9190916000838201938412911290801582169115161761074757565b670de0b6b3a76400009081810291818304149015176001161561019e57671bc16d674ec80000900490565b8015611b5857675698eef066700000811215610e4f57675698eef0666fffff19811315611b4b576000611b3b611a7583611e94565b611afe610dcf611a8f611a8a610d5585611a15565b611d90565b92611b36611b31611b2c611b25611b1f611b1a611b14611b0f611b09611b048d611afe611af9611af3611aee610d4f611ae9611ae3611ade611ad8611ad38a611e69565b611933565b89611e48565b61194d565b87611e48565b611965565b61197f565b83611e48565b611997565b90611e48565b6119b1565b8c611e48565b6119c9565b8a611e48565b6119e1565b88611e48565b9380611e48565b610c50565b6116a7565b6119f9565b9112156102c8576102c890611684565b50671bc16d674ec8000090565b50670de0b6b3a764000090565b680248ce36a70cb26b3e19811315610e4f57680755bf798b4a1bf1e5811215611cb5576503782dace9d990604e1b0574029d9dc38563c32e5c2f6dc192ee70ef65f9978af36bb17217f7d1cf79abc9e3b398916060906001605f1b8482841b0501821d9384029003806c10fe68e7fd37d0007b713f7650810102821d906e0587f503bb6ea29d25fcb7401964506e05180bb14799ab47a8a8cb2a527d57826e02c72388d9f74f51a9331fed693f1419816db1bbb201f443cf962f1a1d3db4a5816d1a521255e34f6a5061b25ef1c9c319816d0277594991cfc85f6e2461837cd9816c240c330e9fb2d9cbaf0fd5aafb198101028d1d01028b1d0102891d0102871d0102851d01936d360d7aeea093263ecc6e0ecb291760621b936d02d16720577bd19bf614176fe9ea810190846d01d3967ed30fc4f89c02bab570811991010102901d01020105029060c3031c90565b60405162461bcd60e51b815260206004820152600c60248201526b4558505f4f564552464c4f5760a01b6044820152606490fd5b6713a04bbdfdc9be8890808202918205146001161561019e57670de0b6b3a7640000900590565b670de0b6b3a76400009081810291818305149015176001161561019e57671bc16d674ec80000900590565b6703c1665c7aab20009081810291818305149015176001161561019e57670de0b6b3a7640000900590565b669f32752462a0009081810291818305149015176001161561019e57670de0b6b3a7640000900590565b6001811515161561019e576ec097ce7bc90715b34b9f10000000000590565b670de0b6b3a7640000908181029181830514901517821515161561019e570590565b671bc16d674ec7ffff1981810291600191830514161561019e57670de0b6b3a7640000900590565b6709d028cc6f205fff1981810291600191830514161561019e57670de0b6b3a7640000900590565b670fa8cedfc2adddfa90808202918205146001161561019e57670de0b6b3a7640000900590565b81810291818305149015176001161561019e57670de0b6b3a7640000900590565b67025f0fe105a314009081810291818305149015176001161561019e57670de0b6b3a7640000900590565b600160ff1b8114611eaf5760008112156102c8571960010190565b604051634d2d75b160e01b8152600490fdfea2646970667358221220787851310b35cfa3423fd0c89eb648843841e1769ee31178e9d6b1d6c9514e3b64736f6c63430008160033","linkReferences":{}},"methodIdentifiers":{"XTOY()":"f3c973cf","YTOX()":"6449fc57","asset()":"38d52e0f","cdf(int256)":"d0b71b1e","cumulativeProfit()":"85b319ff","divWadDown(uint256,uint256)":"37c6a44a","divWadUp(uint256,uint256)":"bd252d06","exchange()":"d2f7265a","intermediateTokenXBalance()":"936520c3","intermediateTokenYEndBalance()":"72b98246","intermediateTokenYStartBalance()":"fa2e5994","liquidExchange()":"9f27ef4f","log(int256)":"2d5b6cb9","lower_exchange_price(uint256,uint256)":"96fbee1d","mulWadDown(uint256,uint256)":"e524f849","mulWadUp(uint256,uint256)":"ae9768a8","pdf(int256)":"d24ce6e5","ppf(int256)":"3679723a","quote()":"999b93af","raise_exchange_price(uint256,uint256)":"f9005eb5","simulateSwap(uint256,bool,uint256)":"3928ff97","solver()":"49a7a26d","sqrt(uint256)":"677342ce"},"id":54}