{"abi":[{"type":"constructor","inputs":[{"name":"dfmm_","type":"address","internalType":"address"}],"stateMutability":"nonpayable"},{"type":"function","name":"computeSwapConstant","inputs":[{"name":"poolId","type":"uint256","internalType":"uint256"},{"name":"data","type":"bytes","internalType":"bytes"}],"outputs":[{"name":"","type":"int256","internalType":"int256"}],"stateMutability":"view"},{"type":"function","name":"dfmm","inputs":[],"outputs":[{"name":"","type":"address","internalType":"address"}],"stateMutability":"view"},{"type":"function","name":"getPoolParams","inputs":[{"name":"poolId","type":"uint256","internalType":"uint256"}],"outputs":[{"name":"","type":"bytes","internalType":"bytes"}],"stateMutability":"view"},{"type":"function","name":"init","inputs":[{"name":"","type":"address","internalType":"address"},{"name":"poolId","type":"uint256","internalType":"uint256"},{"name":"data","type":"bytes","internalType":"bytes"}],"outputs":[{"name":"valid","type":"bool","internalType":"bool"},{"name":"invariant","type":"int256","internalType":"int256"},{"name":"reserveX","type":"uint256","internalType":"uint256"},{"name":"reserveY","type":"uint256","internalType":"uint256"},{"name":"totalLiquidity","type":"uint256","internalType":"uint256"}],"stateMutability":"nonpayable"},{"type":"function","name":"internalParams","inputs":[{"name":"","type":"uint256","internalType":"uint256"}],"outputs":[{"name":"sigma","type":"tuple","internalType":"struct DynamicParam","components":[{"name":"lastComputedValue","type":"uint256","internalType":"uint256"},{"name":"updateEnd","type":"uint256","internalType":"uint256"},{"name":"updatePerSecond","type":"int256","internalType":"int256"},{"name":"lastUpdateAt","type":"uint256","internalType":"uint256"}]},{"name":"tau","type":"tuple","internalType":"struct DynamicParam","components":[{"name":"lastComputedValue","type":"uint256","internalType":"uint256"},{"name":"updateEnd","type":"uint256","internalType":"uint256"},{"name":"updatePerSecond","type":"int256","internalType":"int256"},{"name":"lastUpdateAt","type":"uint256","internalType":"uint256"}]},{"name":"strike","type":"tuple","internalType":"struct DynamicParam","components":[{"name":"lastComputedValue","type":"uint256","internalType":"uint256"},{"name":"updateEnd","type":"uint256","internalType":"uint256"},{"name":"updatePerSecond","type":"int256","internalType":"int256"},{"name":"lastUpdateAt","type":"uint256","internalType":"uint256"}]},{"name":"swapFee","type":"uint256","internalType":"uint256"},{"name":"controller","type":"address","internalType":"address"}],"stateMutability":"view"},{"type":"function","name":"name","inputs":[],"outputs":[{"name":"","type":"string","internalType":"string"}],"stateMutability":"view"},{"type":"function","name":"update","inputs":[{"name":"sender","type":"address","internalType":"address"},{"name":"poolId","type":"uint256","internalType":"uint256"},{"name":"data","type":"bytes","internalType":"bytes"}],"outputs":[],"stateMutability":"nonpayable"},{"type":"function","name":"validateAllocateOrDeallocate","inputs":[{"name":"","type":"address","internalType":"address"},{"name":"poolId","type":"uint256","internalType":"uint256"},{"name":"data","type":"bytes","internalType":"bytes"}],"outputs":[{"name":"valid","type":"bool","internalType":"bool"},{"name":"invariant","type":"int256","internalType":"int256"},{"name":"reserveX","type":"uint256","internalType":"uint256"},{"name":"reserveY","type":"uint256","internalType":"uint256"},{"name":"totalLiquidity","type":"uint256","internalType":"uint256"}],"stateMutability":"view"},{"type":"function","name":"validateSwap","inputs":[{"name":"","type":"address","internalType":"address"},{"name":"poolId","type":"uint256","internalType":"uint256"},{"name":"data","type":"bytes","internalType":"bytes"}],"outputs":[{"name":"valid","type":"bool","internalType":"bool"},{"name":"invariant","type":"int256","internalType":"int256"},{"name":"liquidityDelta","type":"int256","internalType":"int256"},{"name":"nextRx","type":"uint256","internalType":"uint256"},{"name":"nextRy","type":"uint256","internalType":"uint256"},{"name":"nextL","type":"uint256","internalType":"uint256"}],"stateMutability":"view"},{"type":"error","name":"Infinity","inputs":[]},{"type":"error","name":"InvalidSender","inputs":[]},{"type":"error","name":"InvalidUpdateCode","inputs":[]},{"type":"error","name":"InvalidUpdateEnd","inputs":[]},{"type":"error","name":"Min","inputs":[]},{"type":"error","name":"NegativeInfinity","inputs":[]},{"type":"error","name":"NotDFMM","inputs":[]},{"type":"error","name":"OutOfBounds","inputs":[]}],"bytecode":{"object":"0x60803461007457601f611bc438819003918201601f19168301916001600160401b038311848410176100795780849260209460405283398101031261007457516001600160a01b0381169081900361007457600080546001600160a01b031916919091179055604051611b3490816100908239f35b600080fd5b634e487b7160e01b600052604160045260246000fdfe6080604052600436101561001257600080fd5b6000803560e01c9081622e524b146100a95750806306fdde03146100a45780631edb71e51461009f57806368bd3e381461009a57806373cb2d03146100955780638a04bdd514610090578063acad29891461008b578063afba13c4146100865763dc1783551461008157600080fd5b6109e4565b6109bb565b610814565b6107da565b610674565b6103dc565b6102e1565b61023d565b3461011b57604036600319011261011b576024359067ffffffffffffffff821161011b5760206101136100f06100e236600487016101df565b838082518301019101610a17565b9061010d6100ff600435610b92565b868082518301019101610a32565b92610d8d565b604051908152f35b80fd5b634e487b7160e01b600052604160045260246000fd5b60a0810190811067ffffffffffffffff82111761015057604052565b61011e565b60c0810190811067ffffffffffffffff82111761015057604052565b90601f8019910116810190811067ffffffffffffffff82111761015057604052565b92919267ffffffffffffffff821161015057604051916101bd601f8201601f191660200184610171565b8294818452818301116101da578281602093846000960137010152565b600080fd5b9080601f830112156101da578160206101fa93359101610193565b90565b919082519283825260005b848110610229575050826000602080949584010152601f8019910116010190565b602081830181015184830182015201610208565b346101da5760003660031901126101da57604051604081019080821067ffffffffffffffff8311176101505761029a916040526009815268131bd9d39bdc9b585b60ba1b60208201526040519182916020835260208301906101fd565b0390f35b906040516080810181811067ffffffffffffffff821117610150576040526060600382948054845260018101546020850152600281015460408501520154910152565b346101da5760203660031901126101da5760043560005260016020526101c0604060002061030e8161029e565b9061031b6004820161029e565b906103bd61032b6008830161029e565b610393600c84015493600d60018060a01b03910154169461036d6040518098606080918051845260208101516020850152604081015160408501520151910152565b80516080880152602081015160a0880152604081015160c08801526060015160e0870152565b80516101008601526020810151610120860152604081015161014086015260600151610160850152565b6101808301526101a0820152f35b6001600160a01b038116036101da57565b346101da576060806003193601126101da576103f96004356103cb565b6024356044359167ffffffffffffffff83116101da576104206104829336906004016101df565b8161043c61042d85610b92565b60208082518301019101610a32565b60005490949061046290610456906001600160a01b031681565b6001600160a01b031690565b60405180809881946333854efd60e21b8352600483019190602083019252565b03915afa801561061457600091829583926105d9575b50806020806104ac93518301019101610a17565b939194909682861160001461054c5750916104ed826104e8836104e36104fe976104d96104f5988c610aa3565b908c0151906112af565b6112af565b6112db565b505b83610afe565b93828685610d8d565b9384601319129283610541575b61029a9394604051968796879260a094919796959260c08501981515855260208501526040840152606083015260808201520152565b60148612935061050b565b90929091508187111561057b57610575826104e8836104e36104fe976104d96104f5988e610aa3565b506104ef565b60405162461bcd60e51b815260206004820152603060248201527f696e76616c696420737761703a20696e70757473207820616e6420792068617660448201526f65207468652073616d65207369676e2160801b6064820152608490fd5b9095506104ac92506106019150833d851161060d575b6105f98183610171565b810190610a17565b95919290959190610498565b503d6105ef565b610a81565b9060606003198301126101da57600435610632816103cb565b916024359160443567ffffffffffffffff928382116101da57806023830112156101da5781600401359384116101da57602484830101116101da576024019190565b346101da5761068236610619565b600054929350916001600160a01b031633036107c85761078661077e61042d610779956106c0608095610743976106b7610b67565b50810190610e8c565b6020819b949a9399929b01516106e0866000526001602052604060002090565b55604081015160046106fc876000526001602052604060002090565b015580516008610716876000526001602052604060002090565b01556060810151600c610733876000526001602052604060002090565b015501516001600160a01b031690565b600d610759846000526001602052604060002090565b0180546001600160a01b0319166001600160a01b03909216919091179055565b610b92565b848385610d8d565b92836013191291826107bd575b6040805193151584526020840195909552938201929092526060810192909252608082015260a090f35b601485129250610793565b604051636853cba760e01b8152600490fd5b346101da5760606107ea36610619565b818094509492940103126101da5780359061078661077e61042d6040602085013594013595610b92565b346101da5761082236610619565b6000549093906001600160a01b0390811633036107c857610863610456600d610855876000526001602052604060002090565b01546001600160a01b031690565b9116036109a95761087683820182610b32565b61087f81610b47565b600181036108b857506108a261089d6108b392600c94953691610193565b610fc3565b926000526001602052604060002090565b01555b005b6108c181610b47565b600381036108fd5750906108e56108e06108f8936108b6953691610193565b610f19565b9290916000526001602052604060002090565b610f41565b61090681610b47565b6004810361094057509060046109276108e061093a946108b6963691610193565b9390926000526001602052604060002090565b01610f41565b61094981610b47565b6002810361096a57509060086109276108e061093a946108b6963691610193565b80610976600592610b47565b03610997576107596108a2610992600d936108b6963691610193565b610ef1565b60405163235d2b3d60e01b8152600490fd5b604051636edaef2f60e11b8152600490fd5b346101da5760003660031901126101da576000546040516001600160a01b039091168152602090f35b346101da5760203660031901126101da5761029a610a03600435610b92565b6040519182916020835260208301906101fd565b908160609103126101da578051916040602083015192015190565b908160a09103126101da57608060405191610a4c83610134565b805183526020810151602084015260408101516040840152606081015160608401520151610a79816103cb565b608082015290565b6040513d6000823e3d90fd5b634e487b7160e01b600052601160045260246000fd5b91908203918211610ab057565b610a8d565b91908201809211610ab057565b90671bc16d674ec8000060008382039312818412811691841390151617610ab057565b9067119000ab100ffbff198201918213600116610ab057565b81810392916000138015828513169184121617610ab057565b600160ff1b8114610ab05760000390565b600611156101da57565b908160209103126101da57356101fa81610b28565b60061115610b5157565b634e487b7160e01b600052602160045260246000fd5b60405190610b7482610134565b60006080838281528260208201528260408201528260608201520152565b610b9a610b67565b816000526001602052610bb8610bb3604060002061029e565b610ff8565b9160208201928352806000526001602052610bdc610bb3600860406000200161029e565b8252600c610c1d610c05610bb36004610bff866000526001602052604060002090565b0161029e565b92604085019384526000526001602052604060002090565b015490606083019182526040519383516020860152516040850152516060840152516080830152608060018060a01b039101511660a082015260a081526101fa81610155565b9081672005fe4f268ea00001918212600116610ab057565b9081670dc5527f642c200001918212600116610ab057565b9081670de0b6b3a764000001918212600116610ab057565b9081670b68df18e471fbff190191821215600116610ab057565b90816714a8454c19e1ac0001918212600116610ab057565b9081670fc10e01578277ff190191821215600116610ab057565b90816703debd083b8c7c0001918212600116610ab057565b9081670295d400ea3257ff190191821215600116610ab057565b9081670157d8b2ecc7080001918212600116610ab057565b90816705310aa7d521300001918212600116610ab057565b9081670de0cc3d1561000001918212600116610ab057565b91909160008382019384129112908015821691151617610ab057565b909282821015610e47576101fa93610e0a9284670de0b6b3a76400009182610db5838361130b565b10610e3457506001600160ff1b039590505b835191610ddd610dd7838561132d565b8561130b565b10610e0f57506001600160ff1b0392610e04925090505b6040602082015191015190611286565b92610d71565b610d71565b610e0492610e23610e2992610e2e9461132d565b9061130b565b6110b3565b91610df4565b610e4191610e299161130b565b94610dc7565b60405162461bcd60e51b815260206004820152601a60248201527f74726164696e6746756e6374696f6e3a20696e76616c696420780000000000006044820152606490fd5b80910361010081126101da5781359260208301359260a0604082013593605f1901126101da5760e060405191610ec183610134565b606081013583526080810135602084015260a0810135604084015260c081013560608401520135610a79816103cb565b6040818051810103126101da5780610f0e60206040930151610b28565b0151610456816103cb565b6060818051810103126101da57610f336020820151610b28565b606060408201519101519091565b919042821115610fb157610f57610bb38461029e565b9081845542600385015542830391838311610ab057610f7591610afe565b428314610f9b57600160ff1b8114600019831416610ab057600292600185015505910155565b634e487b7160e01b600052601260045260246000fd5b6040516366f102ed60e11b8152600490fd5b6040818051810103126101da5780610fe060206040930151610b28565b015190565b81810292918115918404141715610ab057565b606081015160208201518082146110735780421160001461106b57905b8103908111610ab05760408201908151600081136000146110485750611042906101fa9351925190610fe5565b90610ab5565b9261105f9250611059905193610b17565b90610fe5565b8103908111610ab05790565b504290611015565b50505190565b90633b9aca0091828102928184051490151715610ab057565b60008190039190600160ff1b8114600116610ab057600019830503610ab057565b6706f05b59d3b20000811461128057670de0b6b3a76400008082121561122a57811561124b5760018260011b916002938305600203610ab05760008312801561126f575b61125d57821561122a57671bc16d674ec80000831461124b57821291821561123c57925b611124846118db565b801561122a5761119661115561115061114b61114661119b959997969961146f565b61199c565b611379565b611079565b61119161116961116483611906565b610c63565b61118b61118661118061117b86611931565b610c7b565b85611a13565b610c93565b9061197a565b610afe565b6119c4565b936000925b8184106111d257505050506101fa916111bf916000146111c4576118b4565b610b17565b6111cd90610b17565b6118b4565b90916112208661121a6111ea8561119186999b611610565b61118b61120a6112056112006111bf8780611a13565b611730565b6119ec565b6112148386611a13565b90610afe565b90610d71565b95019291906111a0565b6040516307a0212760e01b8152600490fd5b61124590610ac2565b9261111b565b6040516322ed598560e21b8152600490fd5b604051632d0483c560e21b8152600490fd5b50671bc16d674ec8000083136110f7565b50600090565b9061129090611379565b633b9aca0090818102918183041490151715610ab0576101fa9161132d565b8181029181830414901517600116156101da576001670de0b6b3a7640000600019830104019015150290565b90670de0b6b3a764000091828102928184041490151781151516156101da57600190600019830104019015150290565b670de0b6b3a764000090818102918183041490151782151516156101da570490565b8181029181830414901517600116156101da57670de0b6b3a7640000900490565b670de0b6b3a7640000908181029181830414901517600116156101da57671bc16d674ec80000900490565b60b581600160881b811015611420575b80690100000000000000000062010000921015611413575b65010000000000811015611406575b63010000008110156113f9575b010260121c60019080830401811c80830401811c80830401811c80830401811c80830401811c80830401811c80830401901c8080920410900390565b60101c9160081b916113bd565b60201c9160101b916113b0565b60401c9160201b916113a1565b5068b500000000000000009050608082901c611389565b1561143e57565b60405162461bcd60e51b815260206004820152600960248201526815539111519253915160ba1b6044820152606490fd5b7d57115e47018c7177eebf7cd370a3356a1b7863008a5ae8028c72b88642849061149b60008213611437565b711340daa0d5f769dba1915cef59f0815a55066114b782611a5f565b6060928382609f03011b609f1c90605f19017d0267a36c0c95b3975ab3ee5b203a7614a3f75373f047d803ae7b6687f2b302926c0b7a86d7375468fac667a0a527826d01920d8043ca89b5239253284e42816d0a0f742023def783a307a986912e816d13cdffb29d51d99322bdff5f2211816d0df99ac502031bf953eff472fdcc816d0388eaa27412d5aca026815d636e816c465772b2bbbb5f824b15207a308101028c1d01028a1d0102881d0102861d0102841d0102821d0191780a09507084cc699bb0e71ea869ffffffffffffffffffffffff19916cb9a025d814b29c212b8b1a07cd1990826d02384773bdf1ac5676facced609019816c8c3f38e95a6b1ff2ab1c3b343619816d02247f7a7b6594320649aa03aba1816d0139601a2efabe717e604cbb4894816c29508e458543d8aa4df2abee78810102891d0102871d0102851d0102831d0102901d0102010502010160ae1d90565b801561172357675698eef06670000081121561128057675698eef0666fffff1981131561171657600061170661164583611ad1565b6116ce61120061165f61165a6111868561134e565b61195b565b92610e0a6117016116fc6116f56116ef6116ea6116e46116df6116d96116d48d6116ce6116c96116c36116be6111806116b96116b36116ae6116a86116a38a611a34565b610cab565b89611a13565b610cc5565b87611a13565b610cdd565b610cf7565b83611a13565b610d0f565b90611a13565b610d29565b8c611a13565b610d41565b8a611a13565b610d59565b88611a13565b9380611a13565b611092565b610ae5565b9112156101fa576101fa90610ac2565b50671bc16d674ec8000090565b50670de0b6b3a764000090565b680248ce36a70cb26b3e1981131561128057680755bf798b4a1bf1e5811215611880576503782dace9d990604e1b0574029d9dc38563c32e5c2f6dc192ee70ef65f9978af36bb17217f7d1cf79abc9e3b398916060906001605f1b8482841b0501821d9384029003806c10fe68e7fd37d0007b713f7650810102821d906e0587f503bb6ea29d25fcb7401964506e05180bb14799ab47a8a8cb2a527d57826e02c72388d9f74f51a9331fed693f1419816db1bbb201f443cf962f1a1d3db4a5816d1a521255e34f6a5061b25ef1c9c319816d0277594991cfc85f6e2461837cd9816c240c330e9fb2d9cbaf0fd5aafb198101028d1d01028b1d0102891d0102871d0102851d01936d360d7aeea093263ecc6e0ecb291760621b936d02d16720577bd19bf614176fe9ea810190846d01d3967ed30fc4f89c02bab570811991010102901d01020105029060c3031c90565b60405162461bcd60e51b815260206004820152600c60248201526b4558505f4f564552464c4f5760a01b6044820152606490fd5b6713a04bbdfdc9be889080820291820514600116156101da57670de0b6b3a7640000900590565b670de0b6b3a7640000908181029181830514901517600116156101da57671bc16d674ec80000900590565b6703c1665c7aab2000908181029181830514901517600116156101da57670de0b6b3a7640000900590565b669f32752462a000908181029181830514901517600116156101da57670de0b6b3a7640000900590565b600181151516156101da576ec097ce7bc90715b34b9f10000000000590565b670de0b6b3a764000090818102918183051490151782151516156101da570590565b671bc16d674ec7ffff198181029160019183051416156101da57670de0b6b3a7640000900590565b6709d028cc6f205fff198181029160019183051416156101da57670de0b6b3a7640000900590565b670fa8cedfc2adddfa9080820291820514600116156101da57670de0b6b3a7640000900590565b8181029181830514901517600116156101da57670de0b6b3a7640000900590565b67025f0fe105a31400908181029181830514901517600116156101da57670de0b6b3a7640000900590565b611a6a811515611437565b806fffffffffffffffffffffffffffffffff1060071b81811c67ffffffffffffffff1060061b1781811c63ffffffff1060051b1781811c61ffff1060041b1781811c60ff1060031b1781811c600f1060021b1781811c60031060011b1790811c6001101790565b600160ff1b8114611aec5760008112156101fa571960010190565b604051634d2d75b160e01b8152600490fdfea2646970667358221220b596d744fe988e0f66eb3212b01d8a9e660acea43730ff108a9b5edd5f05d2b364736f6c63430008160033","linkReferences":{}},"methodIdentifiers":{"computeSwapConstant(uint256,bytes)":"002e524b","dfmm()":"afba13c4","getPoolParams(uint256)":"dc178355","init(address,uint256,bytes)":"73cb2d03","internalParams(uint256)":"1edb71e5","name()":"06fdde03","update(address,uint256,bytes)":"acad2989","validateAllocateOrDeallocate(address,uint256,bytes)":"8a04bdd5","validateSwap(address,uint256,bytes)":"68bd3e38"},"id":43}