{"abi":[{"type":"constructor","inputs":[{"name":"strategy_","type":"address","internalType":"address"}],"stateMutability":"nonpayable"},{"type":"function","name":"getInitialPoolData","inputs":[{"name":"rx","type":"uint256","internalType":"uint256"},{"name":"ry","type":"uint256","internalType":"uint256"},{"name":"params","type":"tuple","internalType":"struct ConstantSum.ConstantSumParams","components":[{"name":"price","type":"uint256","internalType":"uint256"},{"name":"swapFee","type":"uint256","internalType":"uint256"},{"name":"controller","type":"address","internalType":"address"}]}],"outputs":[{"name":"","type":"bytes","internalType":"bytes"}],"stateMutability":"pure"},{"type":"function","name":"simulateAllocateOrDeallocate","inputs":[{"name":"poolId","type":"uint256","internalType":"uint256"},{"name":"IsAllocate","type":"bool","internalType":"bool"},{"name":"amountX","type":"uint256","internalType":"uint256"},{"name":"amountY","type":"uint256","internalType":"uint256"}],"outputs":[{"name":"","type":"bool","internalType":"bool"},{"name":"","type":"bytes","internalType":"bytes"}],"stateMutability":"view"},{"type":"function","name":"simulateSwap","inputs":[{"name":"poolId","type":"uint256","internalType":"uint256"},{"name":"swapXIn","type":"bool","internalType":"bool"},{"name":"amountIn","type":"uint256","internalType":"uint256"}],"outputs":[{"name":"","type":"bool","internalType":"bool"},{"name":"","type":"uint256","internalType":"uint256"},{"name":"","type":"bytes","internalType":"bytes"}],"stateMutability":"view"},{"type":"function","name":"strategy","inputs":[],"outputs":[{"name":"","type":"address","internalType":"address"}],"stateMutability":"view"},{"type":"error","name":"NotEnoughLiquidity","inputs":[]}],"bytecode":{"object":"0x60803461007457601f610c8938819003918201601f19168301916001600160401b038311848410176100795780849260209460405283398101031261007457516001600160a01b0381169081900361007457600080546001600160a01b031916919091179055604051610bf990816100908239f35b600080fd5b634e487b7160e01b600052604160045260246000fdfe60406080815260048036101561001457600080fd5b600091823560e01c9283633928ff971461005f57505050806389ea85591461005a5780638a1a20de146100555763a8c62e761461005057600080fd5b61088b565b6105c9565b6104fa565b346103cc5760603660031901126103cc57823560243561007e816103cf565b6044359161008a6108b4565b956100936108b4565b85549094906100b8906100ac906001600160a01b031681565b6001600160a01b031690565b8751632bee84f160e21b81529094602092838386818a5afa9283156102b657899361039d575b5060608a5180946333854efd60e21b825281806101028b8b83019190602083019252565b03916001600160a01b03165afa9081156102b6578b938a908b908c94610367575b50858d019384529486019485528c528a5163dc17835560e01b81528681018881528b908290819060200103818c5afa80156102b657610172918c91610345575b50868082518301019101610978565b92156102cb57916101be916101b66101de946101af888501516101a96101a361019b8386610b54565b975185610b80565b916109c8565b90610b80565b9e516109eb565b8a52516109eb565b8988019081526101d58b6101d06109f8565b610acc565b516101d0610a1f565b888151106102bb579261022f959261023d61025996936102018c60c098516109de565b818701525b8a5198899687928301919091604080606083019480518452602081015160208501520151910152565b03601f1981018652856104b6565b8851630d17a7c760e31b81529586948593849330908501610a78565b03915afa9283156102b6579261027e575b5061027a91925193849384610426565b0390f35b61027a92506102a49060c03d60c0116102af575b61029c81836104b6565b810190610a41565b50505050509161026a565b503d610292565b6108e8565b8751634323a55560e01b81528390fd5b916101be9161031161031b946101af969e968885015194610309836103046102fe6102f68a84610b54565b855190610b24565b986109c8565b610b80565b905190610ba1565b868b0152516109eb565b888151106102bb579261022f959261023d610259969361033e8c60c098516109de565b8652610206565b61036191503d808e833e61035981836104b6565b81019061090f565b8e610163565b91505061038d91925060603d606011610396575b61038581836104b6565b8101906108f4565b9291908e610123565b503d61037b565b6103be919350843d86116103c5575b6103b681836104b6565b8101906108d3565b918b6100de565b503d6103ac565b80fd5b801515036103d957565b600080fd5b60005b8381106103f15750506000910152565b81810151838201526020016103e1565b9060209161041a815180928185528580860191016103de565b601f01601f1916010190565b61044493926060921515825260208201528160408201520190610401565b90565b634e487b7160e01b600052604160045260246000fd5b6060810190811067ffffffffffffffff82111761047957604052565b610447565b60e0810190811067ffffffffffffffff82111761047957604052565b6040810190811067ffffffffffffffff82111761047957604052565b90601f8019910116810190811067ffffffffffffffff82111761047957604052565b6001600160a01b038116036103d957565b906020610444928181520190610401565b346103d95760a03660031901126103d95760243560043560603660431901126103d9576040516105298161045d565b60443590818152602081019060643582526105576084359361054a856104d8565b6040830194855286610b24565b84018085116105ab5761027a95604051956020870152604086015260608501525160808401525160a083015260018060a01b0390511660c082015260c0815261059f8161047e565b604051918291826104e9565b6109b2565b6040906104449392151581528160208201520190610401565b346103d95760803660031901126103d957600460243581356105ea826103cf565b604435906064356105f96108b4565b916106026108b4565b9260009561061c6100ac6100ac895460018060a01b031690565b93604096875190632bee84f160e21b825260209485838d818b5afa80156102b657876060918e61066d968f9261086c575b508d516333854efd60e21b81529081019283529586928391829160200190565b03916001600160a01b03165afa80156102b6578b888e6106bd938e9784918591869161084a575b508c880199880152885285528d51938492839263dc17835560e01b845283019190602083019252565b03818c5afa80156102b6576106e2918d91610830575b50878082518301019101610978565b94156107cf5761077698969461072661071761022f9e9661075a9661070f60a09d9b9761072c97516109eb565b8c52516109eb565b80858b01528951925190610b24565b906109eb565b898701525b88519a8b9687928301919091604080606083019480518452602081015160208501520151910152565b8651638a04bdd560e01b81529586948593849330908501610a78565b03915afa9283156102b65792610796575b5061027a9051928392836105b0565b61027a9192506107bd9060a03d60a0116107c8575b6107b581836104b6565b810190610a9c565b505050509190610787565b503d6107ab565b818151108015610826575b6108165761077698969461072661071761022f9e9661075a9661080560a09d9b9761080d97516109de565b8c52516109de565b89870152610731565b8951634323a55560e01b81528c90fd5b50838351106107da565b61084491503d808f833e61035981836104b6565b386106d3565b915050610866915060603d6060116103965761038581836104b6565b38610694565b6108849192508a3d8c116103c5576103b681836104b6565b903861064d565b346103d95760003660031901126103d9576000546040516001600160a01b039091168152602090f35b604051906108c18261045d565b60006040838281528260208201520152565b908160209103126103d95751610444816104d8565b6040513d6000823e3d90fd5b908160609103126103d9578051916040602083015192015190565b6020818303126103d957805167ffffffffffffffff918282116103d957019082601f830112156103d9578151908111610479576040519261095a601f8301601f1916602001856104b6565b818452602082840101116103d95761044491602080850191016103de565b908160609103126103d95760408051916109918361045d565b805183526020810151602084015201516109aa816104d8565b604082015290565b634e487b7160e01b600052601160045260246000fd5b90670de0b6b3a76400009182039182116105ab57565b919082039182116105ab57565b919082018092116105ab57565b60405190610a058261049a565b600b82526a030b6b7bab73a27baba1d160ad1b6020830152565b60405190610a2c8261049a565b600682526503732bba61d160d51b6020830152565b91908260c09103126103d9578151610a58816103cf565b9160208101519160408201519160608101519160a0608083015192015190565b610444939260609260018060a01b0316825260208201528160408201520190610401565b908160a09103126103d9578051610ab2816103cf565b916020820151916040810151916080606083015192015190565b600091908291610b116040518092610afd6020830195632d839cb360e21b8752604060248501526064840190610401565b90604483015203601f1981018352826104b6565b51906a636f6e736f6c652e6c6f675afa50565b90670de0b6b3a764000091828102928184041490151781151516156103d957600190600019830104019015150290565b8181029181830414901517600116156103d9576001670de0b6b3a7640000600019830104019015150290565b8181029181830414901517600116156103d957670de0b6b3a7640000900490565b670de0b6b3a764000090818102918183041490151782151516156103d957049056fea26469706673582212208dfd5857d9ca2481ec2f8db3afb8a6c38074c957084a4bb83e162400bf0d0bad64736f6c63430008160033","linkReferences":{}},"methodIdentifiers":{"getInitialPoolData(uint256,uint256,(uint256,uint256,address))":"89ea8559","simulateAllocateOrDeallocate(uint256,bool,uint256,uint256)":"8a1a20de","simulateSwap(uint256,bool,uint256)":"3928ff97","strategy()":"a8c62e76"},"id":34}