{"abi":[{"type":"constructor","inputs":[{"name":"weth_","type":"address","internalType":"address"}],"stateMutability":"nonpayable"},{"type":"receive","stateMutability":"payable"},{"type":"function","name":"allocate","inputs":[{"name":"poolId","type":"uint256","internalType":"uint256"},{"name":"data","type":"bytes","internalType":"bytes"}],"outputs":[{"name":"","type":"uint256","internalType":"uint256"},{"name":"","type":"uint256","internalType":"uint256"},{"name":"","type":"uint256","internalType":"uint256"}],"stateMutability":"payable"},{"type":"function","name":"deallocate","inputs":[{"name":"poolId","type":"uint256","internalType":"uint256"},{"name":"data","type":"bytes","internalType":"bytes"}],"outputs":[{"name":"","type":"uint256","internalType":"uint256"},{"name":"","type":"uint256","internalType":"uint256"},{"name":"","type":"uint256","internalType":"uint256"}],"stateMutability":"nonpayable"},{"type":"function","name":"getPool","inputs":[{"name":"poolId","type":"uint256","internalType":"uint256"}],"outputs":[{"name":"","type":"tuple","internalType":"struct IDFMM.Pool","components":[{"name":"strategy","type":"address","internalType":"address"},{"name":"tokenX","type":"address","internalType":"address"},{"name":"tokenY","type":"address","internalType":"address"},{"name":"reserveX","type":"uint256","internalType":"uint256"},{"name":"reserveY","type":"uint256","internalType":"uint256"},{"name":"totalLiquidity","type":"uint256","internalType":"uint256"},{"name":"liquidityToken","type":"address","internalType":"address"}]}],"stateMutability":"view"},{"type":"function","name":"getReservesAndLiquidity","inputs":[{"name":"poolId","type":"uint256","internalType":"uint256"}],"outputs":[{"name":"","type":"uint256","internalType":"uint256"},{"name":"","type":"uint256","internalType":"uint256"},{"name":"","type":"uint256","internalType":"uint256"}],"stateMutability":"view"},{"type":"function","name":"init","inputs":[{"name":"params","type":"tuple","internalType":"struct IDFMM.InitParams","components":[{"name":"strategy","type":"address","internalType":"address"},{"name":"tokenX","type":"address","internalType":"address"},{"name":"tokenY","type":"address","internalType":"address"},{"name":"data","type":"bytes","internalType":"bytes"}]}],"outputs":[{"name":"","type":"uint256","internalType":"uint256"},{"name":"","type":"uint256","internalType":"uint256"},{"name":"","type":"uint256","internalType":"uint256"},{"name":"","type":"uint256","internalType":"uint256"}],"stateMutability":"payable"},{"type":"function","name":"liquidityOf","inputs":[{"name":"account","type":"address","internalType":"address"},{"name":"poolId","type":"uint256","internalType":"uint256"}],"outputs":[{"name":"","type":"uint256","internalType":"uint256"}],"stateMutability":"view"},{"type":"function","name":"lpTokenImplementation","inputs":[],"outputs":[{"name":"","type":"address","internalType":"address"}],"stateMutability":"view"},{"type":"function","name":"nonce","inputs":[],"outputs":[{"name":"","type":"uint256","internalType":"uint256"}],"stateMutability":"view"},{"type":"function","name":"pools","inputs":[{"name":"","type":"uint256","internalType":"uint256"}],"outputs":[{"name":"strategy","type":"address","internalType":"address"},{"name":"tokenX","type":"address","internalType":"address"},{"name":"tokenY","type":"address","internalType":"address"},{"name":"reserveX","type":"uint256","internalType":"uint256"},{"name":"reserveY","type":"uint256","internalType":"uint256"},{"name":"totalLiquidity","type":"uint256","internalType":"uint256"},{"name":"liquidityToken","type":"address","internalType":"address"}],"stateMutability":"view"},{"type":"function","name":"swap","inputs":[{"name":"poolId","type":"uint256","internalType":"uint256"},{"name":"data","type":"bytes","internalType":"bytes"}],"outputs":[{"name":"","type":"uint256","internalType":"uint256"},{"name":"","type":"uint256","internalType":"uint256"}],"stateMutability":"nonpayable"},{"type":"function","name":"update","inputs":[{"name":"poolId","type":"uint256","internalType":"uint256"},{"name":"data","type":"bytes","internalType":"bytes"}],"outputs":[],"stateMutability":"nonpayable"},{"type":"function","name":"weth","inputs":[],"outputs":[{"name":"","type":"address","internalType":"address"}],"stateMutability":"view"},{"type":"event","name":"Allocate","inputs":[{"name":"account","type":"address","indexed":true,"internalType":"address"},{"name":"poolId","type":"uint256","indexed":false,"internalType":"uint256"},{"name":"deltaX","type":"uint256","indexed":false,"internalType":"uint256"},{"name":"deltaY","type":"uint256","indexed":false,"internalType":"uint256"},{"name":"deltaL","type":"uint256","indexed":false,"internalType":"uint256"}],"anonymous":false},{"type":"event","name":"Deallocate","inputs":[{"name":"account","type":"address","indexed":true,"internalType":"address"},{"name":"poolId","type":"uint256","indexed":false,"internalType":"uint256"},{"name":"deltaX","type":"uint256","indexed":false,"internalType":"uint256"},{"name":"deltaY","type":"uint256","indexed":false,"internalType":"uint256"},{"name":"deltaL","type":"uint256","indexed":false,"internalType":"uint256"}],"anonymous":false},{"type":"event","name":"Init","inputs":[{"name":"account","type":"address","indexed":true,"internalType":"address"},{"name":"strategy","type":"address","indexed":false,"internalType":"address"},{"name":"lpToken","type":"address","indexed":false,"internalType":"address"},{"name":"tokenX","type":"address","indexed":true,"internalType":"address"},{"name":"tokenY","type":"address","indexed":true,"internalType":"address"},{"name":"poolId","type":"uint256","indexed":false,"internalType":"uint256"},{"name":"reserveX","type":"uint256","indexed":false,"internalType":"uint256"},{"name":"reserveY","type":"uint256","indexed":false,"internalType":"uint256"},{"name":"totalLiquidity","type":"uint256","indexed":false,"internalType":"uint256"}],"anonymous":false},{"type":"event","name":"Swap","inputs":[{"name":"account","type":"address","indexed":true,"internalType":"address"},{"name":"poolId","type":"uint256","indexed":true,"internalType":"uint256"},{"name":"isSwapXForY","type":"bool","indexed":false,"internalType":"bool"},{"name":"inputAmount","type":"uint256","indexed":false,"internalType":"uint256"},{"name":"outputAmount","type":"uint256","indexed":false,"internalType":"uint256"}],"anonymous":false},{"type":"error","name":"ERC1167FailedCreateClone","inputs":[]},{"type":"error","name":"Invalid","inputs":[{"name":"negative","type":"bool","internalType":"bool"},{"name":"swapConstantGrowth","type":"uint256","internalType":"uint256"}]},{"type":"error","name":"InvalidSwap","inputs":[]},{"type":"error","name":"InvalidSwapInputTransfer","inputs":[]},{"type":"error","name":"InvalidSwapOutputTransfer","inputs":[]},{"type":"error","name":"InvalidTokens","inputs":[]},{"type":"error","name":"Locked","inputs":[]},{"type":"error","name":"Min","inputs":[]},{"type":"error","name":"OnlyWETH","inputs":[]}],"bytecode":{"object":"0x60c0346200016d57601f62002e6938819003918201601f19168301926001600160401b0392909183851183861017620001575781602092849260409788528339810103126200016d57516001600160a01b03919082811681036200016d576001805560a052825191610f0d928381019381851084861117620001575762001f5c823980600094039084f080156200014d571680608052803b15620001495790828092608486518096819363266c45bb60e11b8352896004840152816044840152606060248401528160648401525af180156200013f5762000118575b8351611de9908162000173823960805181818161037c0152610c81015260a0518181816109c5015281816111d9015281816114b501526115e20152f35b82116200012b57508152388080620000db565b634e487b7160e01b81526041600452602490fd5b84513d84823e3d90fd5b8280fd5b84513d85823e3d90fd5b634e487b7160e01b600052604160045260246000fd5b600080fdfe60806040526004361015610023575b361561001957600080fd5b6100216111d7565b005b60003560e01c80630216b838146100e3578063068bcd8d146100de5780631455f1fc146100d95780632ec38188146100d45780633be6a341146100cf5780633fc8cef3146100ca5780639d942f9a146100c5578063ac4afa38146100c0578063affed0e0146100bb578063b462cd25146100b6578063bd0625ab146100b15763ce153bf40361000e57610df4565b610cb0565b610c6b565b610c4d565b610bc0565b6109f4565b6109af565b610874565b610667565b610293565b6101e4565b61013a565b6040600319820112610135576004359160243567ffffffffffffffff9283821161013557806023830112156101355781600401359384116101355760248483010111610135576024019190565b600080fd5b3461013557610148366100e8565b9190600154926002600094146101d2578391600260015561016884610b72565b50546001600160a01b031690813b156101ce578361019e956040519687958694859363acad298960e01b85523360048601610ebf565b03925af180156101c9576101ba575b506101b760018055565b80f35b6101c390610e68565b386101ad565b610efa565b8380fd5b6040516303cb96db60e21b8152600490fd5b346101355760203660031901126101355760405161020181610e81565b60c06000918281528260208201528260408201528260608201528260808201528260a0820152015260e061023f610239600435610b72565b50610f15565b6040519060c060018060a01b0391828151168452826020820151166020850152826040820151166040850152606081015160608501526080810151608085015260a081015160a085015201511660c0820152f35b600319602036820112610135576004803567ffffffffffffffff81116101355760808183019382360301126101355760026001541461065757600260015560248101906102df82610fa6565b604482016102fb6102ef82610fa6565b6001600160a01b031690565b6001600160a01b03928316146106465761031a6102ef6102ef88610fa6565b9160009660a061032f60648a54970183610fb3565b956040978b8b6103548b519a8b96879586946373cb2d0360e01b865233908601610ebf565b03925af19182156101c9578897898a998b978c96610604575b50156105ce57506103a06102ef7f0000000000000000000000000000000000000000000000000000000000000000611248565b916103c56103ad85610fa6565b6103b68b610fa6565b6103bf89610fa6565b916113b1565b9216918a833b156105cb57885163266c45bb60e11b815291829081906103ee9080878401611069565b038183875af180156101c9576105b8575b50610409846110a4565b823b156105a15787516340c10f1960e01b808252338483019081526020810193909352918c9082908190604001038183885af180156101c9576105a5575b50823b156105a157998091610476999a9b89519a8b92839283528201906103e860206040840193600081520152565b038183865af19283156101c957610544610559966105498d61054461053e8f976105849f8f998f9961054e9b6104c66105549f61050f93610538966104c092610588575b50610fa6565b93610fa6565b906104fe6104d38c610fa6565b926104ee6104df610f06565b6001600160a01b039097168752565b6001600160a01b03166020860152565b6001600160a01b0390911690830152565b60608101869052608081018a905260a081018e90526001600160a01b038c1660c08201526110d5565b546110b9565b9e610fa6565b6114ab565b610fa6565b87611555565b6110a4565b9161056360018055565b51948594859094939260609260808301968352602083015260408201520152565b0390f35b8061059561059b92610e68565b806109a4565b386104ba565b8a80fd5b806105956105b292610e68565b38610447565b806105956105c592610e68565b386103ff565b80fd5b610600888c936105dd8461121b565b91516377606d2960e11b8152949093129284019283526020830152829160400190565b0390fd5b939a505050925061062e91945060a03d60a01161063f575b6106268183610e9d565b810190610ff3565b91999096919491939092903861036d565b503d61061c565b6040516333910aef60e11b81528590fd5b506040516303cb96db60e21b8152fd5b610670366100e8565b91906002600154146101d2576106c79260a09160026001556106a86102ef6102ef61069a87610b72565b50546001600160a01b031690565b90604051809681948293638a04bdd560e01b8452883360048601610ebf565b03915afa9081156101c957600090818280958195610836575b50156108005750908161070360036106fa61058495610b72565b500154836110c8565b9361071b600461071284610b72565b500154876110c8565b9561072a60056106fa85610b72565b936107358585611b90565b600361074085610b72565b500155600461074e84610b72565b500155600561075c83610b72565b5001556107988560016107848761077286610b72565b50838060a01b039384910154166114ab565b600261078f85610b72565b500154166114ab565b604080519182526020820185905281018590526060810182905233907f9597577f339320775e63d3fed7d5dde6365badcc9fccdb66b34894630ca98b6f9080608081015b0390a260018055604051938493846040919493926060820195825260208201520152565b8061060061080f60009361121b565b6040516377606d2960e11b8152939092126004840152602483019190915281906044820190565b935050509250610855915060a03d60a01161063f576106268183610e9d565b9491909290929493386106e0565b6001600160a01b0381160361013557565b346101355760403660031901126101355760043561089181610863565b602435906108b86102ef6102ef60066108a986610b72565b5001546001600160a01b031690565b6040516370a0823160e01b81526001600160a01b0392909216600483015260208083602481855afa9182156101c957600493600093610983575b508190604051948580926318160ddd60e01b82525afa80156101c9576105849461093d946109379360009361094d575b505061092f600591610b72565b500154611d14565b90611d36565b6040519081529081906020820190565b600592935061092f918161097592903d1061097c575b61096d8183610e9d565b810190611193565b9291610922565b503d610963565b8291935061099d90823d841161097c5761096d8183610e9d565b92906108f2565b600091031261013557565b34610135576000366003190112610135576040517f00000000000000000000000000000000000000000000000000000000000000006001600160a01b03168152602090f35b3461013557610a02366100e8565b91906002600154146101d257610a2c9260a09160026001556106a86102ef6102ef61069a87610b72565b03915afa9081156101c957600090818280958195610b45575b501561080057509081610a68826003610a6061058496610b72565b5001546110c8565b93610a78866004610a6085610b72565b95610a88826005610a6086610b72565b93610a938585611c5c565b6003610a9e85610b72565b5001556004610aac84610b72565b5001556005610aba83610b72565b500155610afd85610aca83610b72565b50600101546001600160a01b0390610ae7908890339084166115d8565b610af084610b72565b50600201543391166115d8565b604080519182526020820185905281018590526060810182905233907facbe127e93a8a0b278d8e06e27205b3df9d1f3812414bc8917c774a83710316e9080608081016107dc565b935050509250610b64915060a03d60a01161063f576106268183610e9d565b949190929092949338610a45565b906000918254811015610bac57600790838052027f290decd9548b62a8d60345a988386fc84ba6bc95484008f6362f93160ef3e563019190565b634e487b7160e01b83526032600452602483fd5b346101355760203660031901126101355760043560005481101561013557610be790610b72565b50805460018201546002830154600384015460048501546005860154600690960154604080516001600160a01b0397881681529587166020870152938616938501939093526060840191909152608083015260a0820193909352911660c082015260e090f35b34610135576000366003190112610135576020600054604051908152f35b34610135576000366003190112610135576040517f00000000000000000000000000000000000000000000000000000000000000006001600160a01b03168152602090f35b3461013557610cbe366100e8565b91906002600154146101d257610d079260c0916002600155610ce86102ef6102ef61069a87610b72565b90604051809681948293630d17a7c760e31b8452883360048601610ebf565b03915afa9182156101c957600080938180938192610db7575b5015610da8578394506005610d37610d4095610b72565b500155836116fe565b9492509290507f4c7def84e42b2bc0a5aab222868dd7a092b53377a4b537abcd94345a7a8527ed60405180610d8b878733968460409194939260608201951515825260208201520152565b0390a3610d9760018055565b604080519182526020820192909252f35b60008561060061080f8261121b565b9350505050610ddf91925060c03d60c011610ded575b610dd78183610e9d565b8101906111a2565b939594909391925038610d20565b503d610dcd565b34610135576020366003190112610135576004356003610e1382610b72565b5001546105846005610e326004610e2986610b72565b50015494610b72565b500154604051938493846040919493926060820195825260208201520152565b634e487b7160e01b600052604160045260246000fd5b67ffffffffffffffff8111610e7c57604052565b610e52565b60e0810190811067ffffffffffffffff821117610e7c57604052565b90601f8019910116810190811067ffffffffffffffff821117610e7c57604052565b9284926080959260018060a01b03168552602085015260606040850152816060850152848401376000828201840152601f01601f1916010190565b6040513d6000823e3d90fd5b60405190610f1382610e81565b565b90610f13604051610f2581610e81565b60c0610f986006839660018060a01b038082541686526001820154166020860152610f6c610f5c600283015460018060a01b031690565b6001600160a01b03166040870152565b6003810154606086015260048101546080860152600581015460a086015201546001600160a01b031690565b6001600160a01b0316910152565b35610fb081610863565b90565b903590601e1981360301821215610135570180359067ffffffffffffffff82116101355760200191813603831361013557565b5190811515820361013557565b908160a09103126101355761100781610fe6565b916020820151916040810151916080606083015192015190565b60005b8381106110345750506000910152565b8181015183820152602001611024565b9060209161105d81518092818552858086019101611021565b601f01601f1916010190565b9091611080610fb093604084526040840190611044565b916020818403910152611044565b634e487b7160e01b600052601160045260246000fd5b6103e7198101919082116110b457565b61108e565b6000198101919082116110b457565b919082039182116110b457565b60005468010000000000000000811015610e7c578060016110f99201600055610b72565b61117d57815181546001600160a01b039182166001600160a01b0319918216178355602084015160018401805491841691831691909117905560408401516002840180548316918416919091179055606084015160038401556080840151600484015560a0840151600584015560c090930151600690920180549093169116179055565b634e487b7160e01b600052600060045260246000fd5b90816020910312610135575190565b91908260c0910312610135576111b782610fe6565b9160208101519160408201519160608101519160a0608083015192015190565b7f00000000000000000000000000000000000000000000000000000000000000006001600160a01b0316330361120957565b6040516301f180c960e01b8152600490fd5b600160ff1b8114611236576000811215610fb0571960010190565b604051634d2d75b160e01b8152600490fd5b6e5af43d82803e903d91602b57fd5bf390763d602d80600a3d3981f3363d3d373d3d3d363d7300000062ffffff8260881c161760005260781b17602052603760096000f0906001600160a01b0382161561129e57565b6040516330be1a3d60e21b8152600490fd5b60208183031261013557805167ffffffffffffffff9182821161013557019082601f83011215610135578151908111610e7c57604051926112fb601f8301601f191660200185610e9d565b8184526020828401011161013557610fb09160208085019101611021565b610f139294936028926040519687936444464d4d2d60d81b602086015261134a815180926020602589019101611021565b840191602d60f81b9283602582015261136d825180936020602685019101611021565b01826026820152611388825180936020602785019101611021565b019060278201526113a28251809360208785019101611021565b01036008810185520183610e9d565b6040516306fdde0360e01b81526001600160a01b0393909260009290919083908590600490829089165afa9384156101c957839461148f575b50604051908382600481896395d89b4160e01b97888352165afa9283156101c95784928394611470575b5060049060405197889384928352165afa9182156101c957610fb0948193611448575b506114429054611998565b92611319565b611442919350611469903d8086833e6114618183610e9d565b8101906112b0565b9290611437565b6004919450611488903d8086833e6114618183610e9d565b9390611414565b6114a49194503d8085833e6114618183610e9d565b92386113ea565b47821161152c57507f00000000000000000000000000000000000000000000000000000000000000006001600160a01b0316803b1561013557600090600460405180948193630d0e30db60e41b83525af180156101c957611519575b504761150f57565b610f134733611b45565b8061059561152692610e68565b38611507565b611542610f139261153c83611a31565b90611d57565b90309033906001600160a01b0316611ac4565b9061156261023983610b72565b60018060a01b039182825116918360208201511693806040830151169560608301519160a060808501519401519460405196875216602086015260408501526060840152608083015260a08201527f460b3f468ae9cc90b3d7770815de570a1877e219d99c9cdd0a66b40410ff818e60c03392a4565b6001600160a01b037f0000000000000000000000000000000000000000000000000000000000000000811693929190811690818503611666575050823b1561013557604051632e1a7d4d60e01b815260048101839052926000908490602490829084905af19283156101c957610f1393611653575b50611b45565b8061059561166092610e68565b3861164d565b60209294509261167961167f9294611a31565b90611d14565b604460405194600080958194829363a9059cbb60e01b84526004526024525af13d15601f3d1160018451141617169060605281604052156116bd5750565b62461bcd60e51b815260206004820152600f60248201526e1514905394d1915497d19052531151608a1b6044820152606490fd5b919082018092116110b457565b929190600361170c85610b72565b5001549261171985610b72565b5060049081015493858411919082156119585785811015611948578161177e61174660016108a98c610b72565b996117698461176361175c60026108a986610b72565b9c8b6110c8565b9a6110c8565b975b600361177683610b72565b500155610b72565b500155604080516370a0823160e01b808252308483019081526001600160a01b038b8116916020919082908690819083010381865afa9485156101c957600095611929575b50855184815230888201908152918d1695909490918390869081906020010381895afa9485156101c9578d8f8e908e936000996118fc575b5061181293929161180b916114ab565b33906115d8565b865181815230898201908152909484918691908290819060200103915afa9384156101c9576000946118db575b50865190815230888201908152909583918791908290819060200103915afa9485156101c9578b926000966118b4575b50509061187b916116f1565b116118a5578661188a916110c8565b116118985750509493929190565b5163f3cbbc8760e01b8152fd5b50505163203d901d60e21b8152fd5b61187b9392965090816118d292903d1061097c5761096d8183610e9d565b9490913861186f565b839194506118f590823d841161097c5761096d8183610e9d565b939061183f565b61180b9199509161191e611812959493893d8b1161097c5761096d8183610e9d565b9991509192936117fb565b611941919550823d841161097c5761096d8183610e9d565b93386117c3565b50604051631115766760e01b8152fd5b86859796971015611948578161177e61197560026108a98c610b72565b996119928861176361198b60016108a986610b72565b9c876110c8565b9761176b565b9081156119db57604e916040519083825280608083016040525b6119c15750820191604e038252565b92600a9081850660300181840152600019019304806119b2565b90506040516040810181811067ffffffffffffffff821117610e7c5760405260018152600360fc1b602082015290565b604d81116110b457600a0a90565b90670de0b6b3a764000091808302928304036110b457565b60405163313ce56760e01b815290602090829060049082906001600160a01b03165afa9081156101c957600091611a83575b5060ff16601203601281116110b457611a7e610fb091611a0b565b611a19565b6020813d602011611abc575b81611a9c60209383610e9d565b81010312611ab857519060ff821682036105cb575060ff611a63565b5080fd5b3d9150611a8f565b9192606460209294604051956000958694859384936323b872dd60e01b85526004526024526044525af13d15601f3d116001845114161716906060528160405215611b0c5750565b62461bcd60e51b81526020600482015260146024820152731514905394d1915497d19493d357d1905253115160621b6044820152606490fd5b600080809381935af115611b5557565b60405162461bcd60e51b815260206004820152601360248201527211551217d514905394d1915497d19052531151606a1b6044820152606490fd5b611ba46102ef6102ef60066108a985610b72565b916040516318160ddd60e01b8152602081600481875afa80156101c957611be69361093792600092611c34575b50611bdd600591610b72565b50015490611d14565b90803b15610135576040516340c10f1960e01b815233600482015260248101929092526000908290818381604481015b03925af180156101c957611c275750565b80610595610f1392610e68565b6005919250611c54611bdd9160203d60201161097c5761096d8183610e9d565b929150611bd1565b611c706102ef6102ef60066108a985610b72565b916040516318160ddd60e01b8152602081600481875afa80156101c957611cb893611cb292600092611cec575b50611ca9600591610b72565b50015490611d57565b90611d87565b90803b1561013557604051632770a7eb60e21b81523360048201526024810192909252600090829081838160448101611c16565b6005919250611d0c611ca99160203d60201161097c5761096d8183610e9d565b929150611c9d565b670de0b6b3a76400009081810291818304149015178215151615610135570490565b81810291818304149015176001161561013557670de0b6b3a7640000900490565b90670de0b6b3a7640000918281029281840414901517811515161561013557600190600019830104019015150290565b818102918183041490151760011615610135576001670de0b6b3a764000060001983010401901515029056fea2646970667358221220a0285246cca869ae873881f80f4d9045ecd44c1c2a21c512e1a0af717c9491fa64736f6c634300081600336080806040523461001657610ef1908161001c8239f35b600080fdfe6080604081815260048036101561001557600080fd5b600092833560e01c90816306fdde0314610b3557508063095ea7b314610ac7578063158ef93e14610aa057806318160ddd14610a8157806323b872dd146109c0578063313ce567146109a45780633644e5151461098057806340c10f19146108f95780634cd88b76146105de57806370a08231146105a65780637ecebe001461056e57806395d89b41146104885780639dc29fac14610408578063a9059cbb14610396578063afba13c41461036d578063d505accf146101295763dd62ed3e146100de57600080fd5b3461012557816003193601126101255760209282916100fb610c81565b610103610c9c565b6001600160a01b03918216845291865283832091168252845220549051908152f35b8280fd5b509190346103695760e036600319011261036957610145610c81565b9061014e610c9c565b91604435606435926084359260ff84168094036103655742851061032257610174610d2c565b9560018060a01b038092169586895260209560078752848a209889549960018b01905585519285898501957f6e71edae12b1b97f4d1f60370fef10105fa2faae0126114a169c64845d6126c987528b89870152169a8b606086015288608086015260a085015260c084015260c0835260e0830167ffffffffffffffff948482108683111761030e578188528451902061010085019261190160f01b845261010286015261012285015260428152610160840194818610908611176102fb57848752519020835261018082015260a4356101a082015260c4356101c0909101528780528490889060809060015afa156102f15786511696871515806102e8575b156102b65786977f8c5be1e5ebec7d5bd14f71427d1e84f3dd0314c0f7b2291e5b200ac8c7c3b9259596975283528087208688528352818188205551908152a380f35b83606492519162461bcd60e51b8352820152600e60248201526d24a72b20a624a22fa9a4a3a722a960911b6044820152fd5b50848814610273565b81513d88823e3d90fd5b634e487b7160e01b8c5260418d5260248cfd5b50634e487b7160e01b8c5260418d5260248cfd5b815162461bcd60e51b81526020818a0152601760248201527f5045524d49545f444541444c494e455f455850495245440000000000000000006044820152606490fd5b8680fd5b5080fd5b50503461036957816003193601126103695760085490516001600160a01b039091168152602090f35b5050346103695780600319360112610369576020916103b3610c81565b8260243591338452600386528184206103cd848254610d09565b90556001600160a01b031680845260038652922080548201905582519081523390600080516020610e9c833981519152908590a35160018152f35b5034610125578160031936011261012557610421610c81565b600854602435926001600160a01b0392918316330361047a5750849392600080516020610e9c83398151915292602092169384865260038352808620610468838254610d09565b9055816002540360025551908152a380f35b8451636853cba760e01b8152fd5b82843461056b578060031936011261056b578151908060018054906104ac82610bc6565b808652926020926001811690811561053e57506001146104e6575b6104e286886104d882890383610c00565b5191829182610c38565b0390f35b9350600184527fb10e2d527612073b26eecdfd717e6a320cf44b4afac2b0732d9fcbe2b7fa0cf65b83851061052b575050505081016020016104d8826104e2866104c7565b805486860184015293820193810161050e565b90506104e2979550869350602092506104d894915060ff191682840152151560051b8201019294866104c7565b80fd5b5050346103695760203660031901126103695760209181906001600160a01b03610596610c81565b1681526007845220549051908152f35b5050346103695760203660031901126103695760209181906001600160a01b036105ce610c81565b1681526003845220549051908152f35b5082903461036957826003193601126103695767ffffffffffffffff81358181116108f5576106109036908401610cb2565b916024358281116108f1576106289036908301610cb2565b946008549060ff8260a01c166108e357506001600160a01b031916331760085582518281116108d0578061065c8654610bc6565b94601f95868111610877575b506020908683116001146108085787926107fd575b50508160011b916000199060031b1c19161784555b84519182116107ea57506001916106a98354610bc6565b818111610788575b50602090821160011461070d57839482939492610702575b5050600019600383901b1c191690821b1790555b466005556106e9610d46565b6006556008805460ff60a01b1916600160a01b17905580f35b0151905084806106c9565b8284527fb10e2d527612073b26eecdfd717e6a320cf44b4afac2b0732d9fcbe2b7fa0cf690601f198316855b8181106107725750958385969710610759575b505050811b0190556106dd565b015160001960f88460031b161c1916905584808061074c565b8783015184559285019260209283019201610739565b8385527fb10e2d527612073b26eecdfd717e6a320cf44b4afac2b0732d9fcbe2b7fa0cf68280850160051c820192602086106107e1575b0160051c019084905b8281106107d65750506106b1565b8681550184906107c8565b925081926107bf565b634e487b7160e01b845260419052602483fd5b01519050878061067d565b878052600080516020610e7c8339815191529250601f198416885b81811061085f5750908460019594939210610846575b505050811b018455610692565b015160001960f88460031b161c19169055878080610839565b92936020600181928786015181550195019301610823565b909150868052600080516020610e7c8339815191528680850160051c820192602086106108c7575b9085949392910160051c01905b8181106108b95750610668565b8881558493506001016108ac565b9250819261089f565b634e487b7160e01b855260418252602485fd5b5162dc149f60e41b81529050fd5b8480fd5b8380fd5b5034610125578160031936011261012557610912610c81565b600854602435926001600160a01b0392918316330361047a576002549084820180921161096d575092600080516020610e9c83398151915292602092879560025516948585526003835280852082815401905551908152a380f35b634e487b7160e01b875260119052602486fd5b50503461036957816003193601126103695760209061099d610d2c565b9051908152f35b5050346103695781600319360112610369576020905160128152f35b50913461056b57606036600319011261056b576109db610c81565b600080516020610e9c8339815191526109f2610c9c565b6001600160a01b0392831680855260208781528686203387528152868620549097919488936044359389938560018201610a5e575b50505086885260038552828820610a3f858254610d09565b9055169586815260038452208181540190558551908152a35160018152f35b610a6791610d09565b90888a528652838920338a52865283892055388085610a27565b5050346103695781600319360112610369576020906002549051908152f35b50503461036957816003193601126103695760209060ff60085460a01c1690519015158152f35b5034610125578160031936011261012557602092610ae3610c81565b918360243592839233825287528181209460018060a01b0316948582528752205582519081527f8c5be1e5ebec7d5bd14f71427d1e84f3dd0314c0f7b2291e5b200ac8c7c3b925843392a35160018152f35b8390853461056b578060031936011261056b57805481610b5482610bc6565b8085529160209160019182811690811561053e5750600114610b81576104e286886104d882890383610c00565b8080955052600080516020610e7c8339815191525b838510610bb3575050505081016020016104d8826104e2866104c7565b8054868601840152938201938101610b96565b90600182811c92168015610bf6575b6020831014610be057565b634e487b7160e01b600052602260045260246000fd5b91607f1691610bd5565b90601f8019910116810190811067ffffffffffffffff821117610c2257604052565b634e487b7160e01b600052604160045260246000fd5b6020808252825181830181905290939260005b828110610c6d57505060409293506000838284010152601f8019910116010190565b818101860151848201604001528501610c4b565b600435906001600160a01b0382168203610c9757565b600080fd5b602435906001600160a01b0382168203610c9757565b81601f82011215610c975780359067ffffffffffffffff8211610c225760405192610ce7601f8401601f191660200185610c00565b82845260208383010111610c9757816000926020809301838601378301015290565b91908203918211610d1657565b634e487b7160e01b600052601160045260246000fd5b6005544603610d3b5760065490565b610d43610d46565b90565b60405160009060005490610d5982610bc6565b808252816020948582019460019087600182169182600014610e5d575050600114610e15575b50610d8c92500382610c00565b51902090604051908101917f8b73c3c69bb8fe3d512ecc4cf759cc79239f7b179b0ffacaa9a75d522b39400f835260408201527fc89efdaa54c0f20c7adf612882df0950f5a951637e0307cdcb4c672f298b8bc660608201524660808201523060a082015260a0815260c0810181811067ffffffffffffffff821117610c225760405251902090565b600080805287925090600080516020610e7c8339815191525b858310610e45575050610d8c935082010138610d7f565b80548388018501528694508893909201918101610e2e565b60ff19168852610d8c95151560051b8501019250389150610d7f905056fe290decd9548b62a8d60345a988386fc84ba6bc95484008f6362f93160ef3e563ddf252ad1be2c89b69c2b068fc378daa952ba7f163c4a11628f55a4df523b3efa2646970667358221220cb98d0e2a923f06208a7d95352c1e293c1ab04b4c62a0981e8484a4726b12c0c64736f6c63430008160033","linkReferences":{}},"methodIdentifiers":{"allocate(uint256,bytes)":"2ec38188","deallocate(uint256,bytes)":"9d942f9a","getPool(uint256)":"068bcd8d","getReservesAndLiquidity(uint256)":"ce153bf4","init((address,address,address,bytes))":"1455f1fc","liquidityOf(address,uint256)":"3be6a341","lpTokenImplementation()":"b462cd25","nonce()":"affed0e0","pools(uint256)":"ac4afa38","swap(uint256,bytes)":"bd0625ab","update(uint256,bytes)":"0216b838","weth()":"3fc8cef3"},"id":24}